{
  "_format": "hh-sol-artifact-1",
  "contractName": "NFTMarketplace",
  "sourceName": "contracts/NFTMarketplace.sol",
  "abi": [
    {
      "inputs": [],
      "stateMutability": "nonpayable",
      "type": "constructor"
    },
    {
      "anonymous": false,
      "inputs": [
        {
          "indexed": true,
          "internalType": "address",
          "name": "owner",
          "type": "address"
        },
        {
          "indexed": true,
          "internalType": "address",
          "name": "approved",
          "type": "address"
        },
        {
          "indexed": true,
          "internalType": "uint256",
          "name": "tokenId",
          "type": "uint256"
        }
      ],
      "name": "Approval",
      "type": "event"
    },
    {
      "anonymous": false,
      "inputs": [
        {
          "indexed": true,
          "internalType": "address",
          "name": "owner",
          "type": "address"
        },
        {
          "indexed": true,
          "internalType": "address",
          "name": "operator",
          "type": "address"
        },
        {
          "indexed": false,
          "internalType": "bool",
          "name": "approved",
          "type": "bool"
        }
      ],
      "name": "ApprovalForAll",
      "type": "event"
    },
    {
      "anonymous": false,
      "inputs": [
        {
          "indexed": true,
          "internalType": "uint256",
          "name": "tokenId",
          "type": "uint256"
        },
        {
          "indexed": false,
          "internalType": "address",
          "name": "seller",
          "type": "address"
        },
        {
          "indexed": false,
          "internalType": "address",
          "name": "owner",
          "type": "address"
        },
        {
          "indexed": false,
          "internalType": "uint256",
          "name": "price",
          "type": "uint256"
        },
        {
          "indexed": false,
          "internalType": "bool",
          "name": "sold",
          "type": "bool"
        }
      ],
      "name": "MarketItemCreated",
      "type": "event"
    },
    {
      "anonymous": false,
      "inputs": [
        {
          "indexed": true,
          "internalType": "address",
          "name": "from",
          "type": "address"
        },
        {
          "indexed": true,
          "internalType": "address",
          "name": "to",
          "type": "address"
        },
        {
          "indexed": true,
          "internalType": "uint256",
          "name": "tokenId",
          "type": "uint256"
        }
      ],
      "name": "Transfer",
      "type": "event"
    },
    {
      "inputs": [
        {
          "internalType": "address",
          "name": "to",
          "type": "address"
        },
        {
          "internalType": "uint256",
          "name": "tokenId",
          "type": "uint256"
        }
      ],
      "name": "approve",
      "outputs": [],
      "stateMutability": "nonpayable",
      "type": "function"
    },
    {
      "inputs": [
        {
          "internalType": "address",
          "name": "owner",
          "type": "address"
        }
      ],
      "name": "balanceOf",
      "outputs": [
        {
          "internalType": "uint256",
          "name": "",
          "type": "uint256"
        }
      ],
      "stateMutability": "view",
      "type": "function"
    },
    {
      "inputs": [
        {
          "internalType": "uint256",
          "name": "tokenId",
          "type": "uint256"
        }
      ],
      "name": "createMarketSale",
      "outputs": [],
      "stateMutability": "payable",
      "type": "function"
    },
    {
      "inputs": [
        {
          "internalType": "string",
          "name": "tokenURI",
          "type": "string"
        },
        {
          "internalType": "uint256",
          "name": "price",
          "type": "uint256"
        }
      ],
      "name": "createToken",
      "outputs": [
        {
          "internalType": "uint256",
          "name": "",
          "type": "uint256"
        }
      ],
      "stateMutability": "payable",
      "type": "function"
    },
    {
      "inputs": [],
      "name": "fetchItemsListed",
      "outputs": [
        {
          "components": [
            {
              "internalType": "uint256",
              "name": "tokenId",
              "type": "uint256"
            },
            {
              "internalType": "address payable",
              "name": "seller",
              "type": "address"
            },
            {
              "internalType": "address payable",
              "name": "owner",
              "type": "address"
            },
            {
              "internalType": "uint256",
              "name": "price",
              "type": "uint256"
            },
            {
              "internalType": "bool",
              "name": "sold",
              "type": "bool"
            }
          ],
          "internalType": "struct NFTMarketplace.MarketItem[]",
          "name": "",
          "type": "tuple[]"
        }
      ],
      "stateMutability": "view",
      "type": "function"
    },
    {
      "inputs": [],
      "name": "fetchMarketItems",
      "outputs": [
        {
          "components": [
            {
              "internalType": "uint256",
              "name": "tokenId",
              "type": "uint256"
            },
            {
              "internalType": "address payable",
              "name": "seller",
              "type": "address"
            },
            {
              "internalType": "address payable",
              "name": "owner",
              "type": "address"
            },
            {
              "internalType": "uint256",
              "name": "price",
              "type": "uint256"
            },
            {
              "internalType": "bool",
              "name": "sold",
              "type": "bool"
            }
          ],
          "internalType": "struct NFTMarketplace.MarketItem[]",
          "name": "",
          "type": "tuple[]"
        }
      ],
      "stateMutability": "view",
      "type": "function"
    },
    {
      "inputs": [],
      "name": "fetchMyNFTs",
      "outputs": [
        {
          "components": [
            {
              "internalType": "uint256",
              "name": "tokenId",
              "type": "uint256"
            },
            {
              "internalType": "address payable",
              "name": "seller",
              "type": "address"
            },
            {
              "internalType": "address payable",
              "name": "owner",
              "type": "address"
            },
            {
              "internalType": "uint256",
              "name": "price",
              "type": "uint256"
            },
            {
              "internalType": "bool",
              "name": "sold",
              "type": "bool"
            }
          ],
          "internalType": "struct NFTMarketplace.MarketItem[]",
          "name": "",
          "type": "tuple[]"
        }
      ],
      "stateMutability": "view",
      "type": "function"
    },
    {
      "inputs": [
        {
          "internalType": "uint256",
          "name": "tokenId",
          "type": "uint256"
        }
      ],
      "name": "getApproved",
      "outputs": [
        {
          "internalType": "address",
          "name": "",
          "type": "address"
        }
      ],
      "stateMutability": "view",
      "type": "function"
    },
    {
      "inputs": [],
      "name": "getListingPrice",
      "outputs": [
        {
          "internalType": "uint256",
          "name": "",
          "type": "uint256"
        }
      ],
      "stateMutability": "view",
      "type": "function"
    },
    {
      "inputs": [
        {
          "internalType": "address",
          "name": "owner",
          "type": "address"
        },
        {
          "internalType": "address",
          "name": "operator",
          "type": "address"
        }
      ],
      "name": "isApprovedForAll",
      "outputs": [
        {
          "internalType": "bool",
          "name": "",
          "type": "bool"
        }
      ],
      "stateMutability": "view",
      "type": "function"
    },
    {
      "inputs": [],
      "name": "name",
      "outputs": [
        {
          "internalType": "string",
          "name": "",
          "type": "string"
        }
      ],
      "stateMutability": "view",
      "type": "function"
    },
    {
      "inputs": [
        {
          "internalType": "uint256",
          "name": "tokenId",
          "type": "uint256"
        }
      ],
      "name": "ownerOf",
      "outputs": [
        {
          "internalType": "address",
          "name": "",
          "type": "address"
        }
      ],
      "stateMutability": "view",
      "type": "function"
    },
    {
      "inputs": [
        {
          "internalType": "uint256",
          "name": "tokenId",
          "type": "uint256"
        },
        {
          "internalType": "uint256",
          "name": "price",
          "type": "uint256"
        }
      ],
      "name": "resellToken",
      "outputs": [],
      "stateMutability": "payable",
      "type": "function"
    },
    {
      "inputs": [
        {
          "internalType": "address",
          "name": "from",
          "type": "address"
        },
        {
          "internalType": "address",
          "name": "to",
          "type": "address"
        },
        {
          "internalType": "uint256",
          "name": "tokenId",
          "type": "uint256"
        }
      ],
      "name": "safeTransferFrom",
      "outputs": [],
      "stateMutability": "nonpayable",
      "type": "function"
    },
    {
      "inputs": [
        {
          "internalType": "address",
          "name": "from",
          "type": "address"
        },
        {
          "internalType": "address",
          "name": "to",
          "type": "address"
        },
        {
          "internalType": "uint256",
          "name": "tokenId",
          "type": "uint256"
        },
        {
          "internalType": "bytes",
          "name": "data",
          "type": "bytes"
        }
      ],
      "name": "safeTransferFrom",
      "outputs": [],
      "stateMutability": "nonpayable",
      "type": "function"
    },
    {
      "inputs": [
        {
          "internalType": "address",
          "name": "operator",
          "type": "address"
        },
        {
          "internalType": "bool",
          "name": "approved",
          "type": "bool"
        }
      ],
      "name": "setApprovalForAll",
      "outputs": [],
      "stateMutability": "nonpayable",
      "type": "function"
    },
    {
      "inputs": [
        {
          "internalType": "bytes4",
          "name": "interfaceId",
          "type": "bytes4"
        }
      ],
      "name": "supportsInterface",
      "outputs": [
        {
          "internalType": "bool",
          "name": "",
          "type": "bool"
        }
      ],
      "stateMutability": "view",
      "type": "function"
    },
    {
      "inputs": [],
      "name": "symbol",
      "outputs": [
        {
          "internalType": "string",
          "name": "",
          "type": "string"
        }
      ],
      "stateMutability": "view",
      "type": "function"
    },
    {
      "inputs": [
        {
          "internalType": "uint256",
          "name": "tokenId",
          "type": "uint256"
        }
      ],
      "name": "tokenURI",
      "outputs": [
        {
          "internalType": "string",
          "name": "",
          "type": "string"
        }
      ],
      "stateMutability": "view",
      "type": "function"
    },
    {
      "inputs": [
        {
          "internalType": "address",
          "name": "from",
          "type": "address"
        },
        {
          "internalType": "address",
          "name": "to",
          "type": "address"
        },
        {
          "internalType": "uint256",
          "name": "tokenId",
          "type": "uint256"
        }
      ],
      "name": "transferFrom",
      "outputs": [],
      "stateMutability": "nonpayable",
      "type": "function"
    },
    {
      "inputs": [
        {
          "internalType": "uint256",
          "name": "_listingPrice",
          "type": "uint256"
        }
      ],
      "name": "updateListingPrice",
      "outputs": [],
      "stateMutability": "payable",
      "type": "function"
    }
  ],
  "bytecode": "0x60806040526658d15e176280006009553480156200001c57600080fd5b506040518060400160405280600c81526020017f5368617065204d61726b657400000000000000000000000000000000000000008152506040518060400160405280600381526020017f53485000000000000000000000000000000000000000000000000000000000008152508160009080519060200190620000a192919062000104565b508060019080519060200190620000ba92919062000104565b50505033600a60006101000a81548173ffffffffffffffffffffffffffffffffffffffff021916908373ffffffffffffffffffffffffffffffffffffffff16021790555062000219565b8280546200011290620001b4565b90600052602060002090601f01602090048101928262000136576000855562000182565b82601f106200015157805160ff191683800117855562000182565b8280016001018555821562000182579182015b828111156200018157825182559160200191906001019062000164565b5b50905062000191919062000195565b5090565b5b80821115620001b057600081600090555060010162000196565b5090565b60006002820490506001821680620001cd57607f821691505b60208210811415620001e457620001e3620001ea565b5b50919050565b7f4e487b7100000000000000000000000000000000000000000000000000000000600052602260045260246000fd5b61442180620002296000396000f3fe60806040526004361061012a5760003560e01c80636352211e116100ab578063ae677aa31161006f578063ae677aa3146103f9578063b88d4fde14610415578063be9af5361461043e578063c87b56dd1461045a578063e219fc7514610497578063e985e9c5146104b35761012a565b80636352211e146102fb57806370a082311461033857806372b3b6201461037557806395d89b41146103a5578063a22cb465146103d05761012a565b806312e85585116100f257806312e8558514610228578063202e37401461025357806323b872dd1461027e57806342842e0e146102a757806345f8fa80146102d05761012a565b806301ffc9a71461012f57806306fdde031461016c578063081812fc14610197578063095ea7b3146101d45780630f08efe0146101fd575b600080fd5b34801561013b57600080fd5b50610156600480360381019061015191906131ce565b6104f0565b604051610163919061383f565b60405180910390f35b34801561017857600080fd5b506101816105d2565b60405161018e919061385a565b60405180910390f35b3480156101a357600080fd5b506101be60048036038101906101b99190613274565b610664565b6040516101cb9190613771565b60405180910390f35b3480156101e057600080fd5b506101fb60048036038101906101f69190613192565b6106aa565b005b34801561020957600080fd5b506102126107c2565b60405161021f919061381d565b60405180910390f35b34801561023457600080fd5b5061023d610a77565b60405161024a9190613adc565b60405180910390f35b34801561025f57600080fd5b50610268610a81565b604051610275919061381d565b60405180910390f35b34801561028a57600080fd5b506102a560048036038101906102a0919061308c565b610dbb565b005b3480156102b357600080fd5b506102ce60048036038101906102c9919061308c565b610e1b565b005b3480156102dc57600080fd5b506102e5610e3b565b6040516102f2919061381d565b60405180910390f35b34801561030757600080fd5b50610322600480360381019061031d9190613274565b611175565b60405161032f9190613771565b60405180910390f35b34801561034457600080fd5b5061035f600480360381019061035a9190613027565b6111fc565b60405161036c9190613adc565b60405180910390f35b61038f600480360381019061038a9190613220565b6112b4565b60405161039c9190613adc565b60405180910390f35b3480156103b157600080fd5b506103ba6112f6565b6040516103c7919061385a565b60405180910390f35b3480156103dc57600080fd5b506103f760048036038101906103f29190613156565b611388565b005b610413600480360381019061040e9190613274565b61139e565b005b34801561042157600080fd5b5061043c600480360381019061043791906130db565b611438565b005b61045860048036038101906104539190613274565b61149a565b005b34801561046657600080fd5b50610481600480360381019061047c9190613274565b611731565b60405161048e919061385a565b60405180910390f35b6104b160048036038101906104ac919061329d565b611844565b005b3480156104bf57600080fd5b506104da60048036038101906104d59190613050565b611a39565b6040516104e7919061383f565b60405180910390f35b60007f80ac58cd000000000000000000000000000000000000000000000000000000007bffffffffffffffffffffffffffffffffffffffffffffffffffffffff1916827bffffffffffffffffffffffffffffffffffffffffffffffffffffffff191614806105bb57507f5b5e139f000000000000000000000000000000000000000000000000000000007bffffffffffffffffffffffffffffffffffffffffffffffffffffffff1916827bffffffffffffffffffffffffffffffffffffffffffffffffffffffff1916145b806105cb57506105ca82611acd565b5b9050919050565b6060600080546105e190613d4c565b80601f016020809104026020016040519081016040528092919081815260200182805461060d90613d4c565b801561065a5780601f1061062f5761010080835404028352916020019161065a565b820191906000526020600020905b81548152906001019060200180831161063d57829003601f168201915b5050505050905090565b600061066f82611b37565b6004600083815260200190815260200160002060009054906101000a900473ffffffffffffffffffffffffffffffffffffffff169050919050565b60006106b582611175565b90508073ffffffffffffffffffffffffffffffffffffffff168373ffffffffffffffffffffffffffffffffffffffff161415610726576040517f08c379a000000000000000000000000000000000000000000000000000000000815260040161071d90613a3c565b60405180910390fd5b8073ffffffffffffffffffffffffffffffffffffffff16610745611b82565b73ffffffffffffffffffffffffffffffffffffffff16148061077457506107738161076e611b82565b611a39565b5b6107b3576040517f08c379a00000000000000000000000000000000000000000000000000000000081526004016107aa90613a7c565b60405180910390fd5b6107bd8383611b8a565b505050565b606060006107d06007611c43565b905060006107de6008611c43565b6107e86007611c43565b6107f29190613c50565b90506000808267ffffffffffffffff811115610837577f4e487b7100000000000000000000000000000000000000000000000000000000600052604160045260246000fd5b60405190808252806020026020018201604052801561087057816020015b61085d612dee565b8152602001906001900390816108555790505b50905060005b84811015610a6c573073ffffffffffffffffffffffffffffffffffffffff16600b60006001846108a69190613bfa565b815260200190815260200160002060020160009054906101000a900473ffffffffffffffffffffffffffffffffffffffff1673ffffffffffffffffffffffffffffffffffffffff161415610a595760006001826109039190613bfa565b90506000600b60008381526020019081526020016000209050806040518060a0016040529081600082015481526020016001820160009054906101000a900473ffffffffffffffffffffffffffffffffffffffff1673ffffffffffffffffffffffffffffffffffffffff1673ffffffffffffffffffffffffffffffffffffffff1681526020016002820160009054906101000a900473ffffffffffffffffffffffffffffffffffffffff1673ffffffffffffffffffffffffffffffffffffffff1673ffffffffffffffffffffffffffffffffffffffff168152602001600382015481526020016004820160009054906101000a900460ff161515151581525050848681518110610a3c577f4e487b7100000000000000000000000000000000000000000000000000000000600052603260045260246000fd5b6020026020010181905250600185610a549190613bfa565b945050505b8080610a6490613daf565b915050610876565b508094505050505090565b6000600954905090565b60606000610a8f6007611c43565b905060008060005b83811015610b38573373ffffffffffffffffffffffffffffffffffffffff16600b6000600184610ac79190613bfa565b815260200190815260200160002060020160009054906101000a900473ffffffffffffffffffffffffffffffffffffffff1673ffffffffffffffffffffffffffffffffffffffff161415610b2557600183610b229190613bfa565b92505b8080610b3090613daf565b915050610a97565b5060008267ffffffffffffffff811115610b7b577f4e487b7100000000000000000000000000000000000000000000000000000000600052604160045260246000fd5b604051908082528060200260200182016040528015610bb457816020015b610ba1612dee565b815260200190600190039081610b995790505b50905060005b84811015610db0573373ffffffffffffffffffffffffffffffffffffffff16600b6000600184610bea9190613bfa565b815260200190815260200160002060020160009054906101000a900473ffffffffffffffffffffffffffffffffffffffff1673ffffffffffffffffffffffffffffffffffffffff161415610d9d576000600182610c479190613bfa565b90506000600b60008381526020019081526020016000209050806040518060a0016040529081600082015481526020016001820160009054906101000a900473ffffffffffffffffffffffffffffffffffffffff1673ffffffffffffffffffffffffffffffffffffffff1673ffffffffffffffffffffffffffffffffffffffff1681526020016002820160009054906101000a900473ffffffffffffffffffffffffffffffffffffffff1673ffffffffffffffffffffffffffffffffffffffff1673ffffffffffffffffffffffffffffffffffffffff168152602001600382015481526020016004820160009054906101000a900460ff161515151581525050848681518110610d80577f4e487b7100000000000000000000000000000000000000000000000000000000600052603260045260246000fd5b6020026020010181905250600185610d989190613bfa565b945050505b8080610da890613daf565b915050610bba565b508094505050505090565b610dcc610dc6611b82565b82611c51565b610e0b576040517f08c379a0000000000000000000000000000000000000000000000000000000008152600401610e029061387c565b60405180910390fd5b610e16838383611ce6565b505050565b610e3683838360405180602001604052806000815250611438565b505050565b60606000610e496007611c43565b905060008060005b83811015610ef2573373ffffffffffffffffffffffffffffffffffffffff16600b6000600184610e819190613bfa565b815260200190815260200160002060010160009054906101000a900473ffffffffffffffffffffffffffffffffffffffff1673ffffffffffffffffffffffffffffffffffffffff161415610edf57600183610edc9190613bfa565b92505b8080610eea90613daf565b915050610e51565b5060008267ffffffffffffffff811115610f35577f4e487b7100000000000000000000000000000000000000000000000000000000600052604160045260246000fd5b604051908082528060200260200182016040528015610f6e57816020015b610f5b612dee565b815260200190600190039081610f535790505b50905060005b8481101561116a573373ffffffffffffffffffffffffffffffffffffffff16600b6000600184610fa49190613bfa565b815260200190815260200160002060010160009054906101000a900473ffffffffffffffffffffffffffffffffffffffff1673ffffffffffffffffffffffffffffffffffffffff1614156111575760006001826110019190613bfa565b90506000600b60008381526020019081526020016000209050806040518060a0016040529081600082015481526020016001820160009054906101000a900473ffffffffffffffffffffffffffffffffffffffff1673ffffffffffffffffffffffffffffffffffffffff1673ffffffffffffffffffffffffffffffffffffffff1681526020016002820160009054906101000a900473ffffffffffffffffffffffffffffffffffffffff1673ffffffffffffffffffffffffffffffffffffffff1673ffffffffffffffffffffffffffffffffffffffff168152602001600382015481526020016004820160009054906101000a900460ff16151515158152505084868151811061113a577f4e487b7100000000000000000000000000000000000000000000000000000000600052603260045260246000fd5b60200260200101819052506001856111529190613bfa565b945050505b808061116290613daf565b915050610f74565b508094505050505090565b60008061118183611fe0565b9050600073ffffffffffffffffffffffffffffffffffffffff168173ffffffffffffffffffffffffffffffffffffffff1614156111f3576040517f08c379a00000000000000000000000000000000000000000000000000000000081526004016111ea90613a1c565b60405180910390fd5b80915050919050565b60008073ffffffffffffffffffffffffffffffffffffffff168273ffffffffffffffffffffffffffffffffffffffff16141561126d576040517f08c379a00000000000000000000000000000000000000000000000000000000081526004016112649061397c565b60405180910390fd5b600360008373ffffffffffffffffffffffffffffffffffffffff1673ffffffffffffffffffffffffffffffffffffffff168152602001908152602001600020549050919050565b60006112c0600761201d565b60006112cc6007611c43565b90506112d83382612033565b6112e28185612251565b6112ec81846122c5565b8091505092915050565b60606001805461130590613d4c565b80601f016020809104026020016040519081016040528092919081815260200182805461133190613d4c565b801561137e5780601f106113535761010080835404028352916020019161137e565b820191906000526020600020905b81548152906001019060200180831161136157829003601f168201915b5050505050905090565b61139a611393611b82565b83836124c8565b5050565b3373ffffffffffffffffffffffffffffffffffffffff16600a60009054906101000a900473ffffffffffffffffffffffffffffffffffffffff1673ffffffffffffffffffffffffffffffffffffffff161461142e576040517f08c379a000000000000000000000000000000000000000000000000000000000815260040161142590613a9c565b60405180910390fd5b8060098190555050565b611449611443611b82565b83611c51565b611488576040517f08c379a000000000000000000000000000000000000000000000000000000000815260040161147f9061387c565b60405180910390fd5b61149484848484612635565b50505050565b6000600b60008381526020019081526020016000206003015490508034146114f7576040517f08c379a00000000000000000000000000000000000000000000000000000000081526004016114ee906139bc565b60405180910390fd5b61150961150383611175565b30611a39565b611548576040517f08c379a000000000000000000000000000000000000000000000000000000000815260040161153f9061389c565b60405180910390fd5b600061155383611175565b905033600b600085815260200190815260200160002060020160006101000a81548173ffffffffffffffffffffffffffffffffffffffff021916908373ffffffffffffffffffffffffffffffffffffffff1602179055506001600b600085815260200190815260200160002060040160006101000a81548160ff0219169083151502179055506000600b600085815260200190815260200160002060010160006101000a81548173ffffffffffffffffffffffffffffffffffffffff021916908373ffffffffffffffffffffffffffffffffffffffff160217905550611639600861201d565b611644813385611ce6565b600a60009054906101000a900473ffffffffffffffffffffffffffffffffffffffff1673ffffffffffffffffffffffffffffffffffffffff166108fc6009549081150290604051600060405180830381858888f193505050501580156116ae573d6000803e3d6000fd5b50600b600084815260200190815260200160002060010160009054906101000a900473ffffffffffffffffffffffffffffffffffffffff1673ffffffffffffffffffffffffffffffffffffffff166108fc349081150290604051600060405180830381858888f1935050505015801561172b573d6000803e3d6000fd5b50505050565b606061173c82611b37565b600060066000848152602001908152602001600020805461175c90613d4c565b80601f016020809104026020016040519081016040528092919081815260200182805461178890613d4c565b80156117d55780601f106117aa576101008083540402835291602001916117d5565b820191906000526020600020905b8154815290600101906020018083116117b857829003601f168201915b5050505050905060006117e6612691565b90506000815114156117fc57819250505061183f565b60008251111561183157808260405160200161181992919061374d565b6040516020818303038152906040529250505061183f565b61183a846126a8565b925050505b919050565b3373ffffffffffffffffffffffffffffffffffffffff16600b600084815260200190815260200160002060020160009054906101000a900473ffffffffffffffffffffffffffffffffffffffff1673ffffffffffffffffffffffffffffffffffffffff16146118e8576040517f08c379a00000000000000000000000000000000000000000000000000000000081526004016118df906139fc565b60405180910390fd5b600954341461192c576040517f08c379a000000000000000000000000000000000000000000000000000000000815260040161192390613a5c565b60405180910390fd5b6000600b600084815260200190815260200160002060040160006101000a81548160ff02191690831515021790555080600b60008481526020019081526020016000206003018190555033600b600084815260200190815260200160002060010160006101000a81548173ffffffffffffffffffffffffffffffffffffffff021916908373ffffffffffffffffffffffffffffffffffffffff16021790555030600b600084815260200190815260200160002060020160006101000a81548173ffffffffffffffffffffffffffffffffffffffff021916908373ffffffffffffffffffffffffffffffffffffffff160217905550611a2a6008612710565b611a35306001611388565b5050565b6000600560008473ffffffffffffffffffffffffffffffffffffffff1673ffffffffffffffffffffffffffffffffffffffff16815260200190815260200160002060008373ffffffffffffffffffffffffffffffffffffffff1673ffffffffffffffffffffffffffffffffffffffff16815260200190815260200160002060009054906101000a900460ff16905092915050565b60007f01ffc9a7000000000000000000000000000000000000000000000000000000007bffffffffffffffffffffffffffffffffffffffffffffffffffffffff1916827bffffffffffffffffffffffffffffffffffffffffffffffffffffffff1916149050919050565b611b408161276c565b611b7f576040517f08c379a0000000000000000000000000000000000000000000000000000000008152600401611b7690613a1c565b60405180910390fd5b50565b600033905090565b816004600083815260200190815260200160002060006101000a81548173ffffffffffffffffffffffffffffffffffffffff021916908373ffffffffffffffffffffffffffffffffffffffff160217905550808273ffffffffffffffffffffffffffffffffffffffff16611bfd83611175565b73ffffffffffffffffffffffffffffffffffffffff167f8c5be1e5ebec7d5bd14f71427d1e84f3dd0314c0f7b2291e5b200ac8c7c3b92560405160405180910390a45050565b600081600001549050919050565b600080611c5d83611175565b90508073ffffffffffffffffffffffffffffffffffffffff168473ffffffffffffffffffffffffffffffffffffffff161480611c9f5750611c9e8185611a39565b5b80611cdd57508373ffffffffffffffffffffffffffffffffffffffff16611cc584610664565b73ffffffffffffffffffffffffffffffffffffffff16145b91505092915050565b8273ffffffffffffffffffffffffffffffffffffffff16611d0682611175565b73ffffffffffffffffffffffffffffffffffffffff1614611d5c576040517f08c379a0000000000000000000000000000000000000000000000000000000008152600401611d53906138fc565b60405180910390fd5b600073ffffffffffffffffffffffffffffffffffffffff168273ffffffffffffffffffffffffffffffffffffffff161415611dcc576040517f08c379a0000000000000000000000000000000000000000000000000000000008152600401611dc39061393c565b60405180910390fd5b611dd983838360016127ad565b8273ffffffffffffffffffffffffffffffffffffffff16611df982611175565b73ffffffffffffffffffffffffffffffffffffffff1614611e4f576040517f08c379a0000000000000000000000000000000000000000000000000000000008152600401611e46906138fc565b60405180910390fd5b6004600082815260200190815260200160002060006101000a81549073ffffffffffffffffffffffffffffffffffffffff02191690556001600360008573ffffffffffffffffffffffffffffffffffffffff1673ffffffffffffffffffffffffffffffffffffffff168152602001908152602001600020600082825403925050819055506001600360008473ffffffffffffffffffffffffffffffffffffffff1673ffffffffffffffffffffffffffffffffffffffff16815260200190815260200160002060008282540192505081905550816002600083815260200190815260200160002060006101000a81548173ffffffffffffffffffffffffffffffffffffffff021916908373ffffffffffffffffffffffffffffffffffffffff160217905550808273ffffffffffffffffffffffffffffffffffffffff168473ffffffffffffffffffffffffffffffffffffffff167fddf252ad1be2c89b69c2b068fc378daa952ba7f163c4a11628f55a4df523b3ef60405160405180910390a4611fdb83838360016128d3565b505050565b60006002600083815260200190815260200160002060009054906101000a900473ffffffffffffffffffffffffffffffffffffffff169050919050565b6001816000016000828254019250508190555050565b600073ffffffffffffffffffffffffffffffffffffffff168273ffffffffffffffffffffffffffffffffffffffff1614156120a3576040517f08c379a000000000000000000000000000000000000000000000000000000000815260040161209a906139dc565b60405180910390fd5b6120ac8161276c565b156120ec576040517f08c379a00000000000000000000000000000000000000000000000000000000081526004016120e39061391c565b60405180910390fd5b6120fa6000838360016127ad565b6121038161276c565b15612143576040517f08c379a000000000000000000000000000000000000000000000000000000000815260040161213a9061391c565b60405180910390fd5b6001600360008473ffffffffffffffffffffffffffffffffffffffff1673ffffffffffffffffffffffffffffffffffffffff16815260200190815260200160002060008282540192505081905550816002600083815260200190815260200160002060006101000a81548173ffffffffffffffffffffffffffffffffffffffff021916908373ffffffffffffffffffffffffffffffffffffffff160217905550808273ffffffffffffffffffffffffffffffffffffffff16600073ffffffffffffffffffffffffffffffffffffffff167fddf252ad1be2c89b69c2b068fc378daa952ba7f163c4a11628f55a4df523b3ef60405160405180910390a461224d6000838360016128d3565b5050565b61225a8261276c565b612299576040517f08c379a00000000000000000000000000000000000000000000000000000000081526004016122909061399c565b60405180910390fd5b806006600084815260200190815260200160002090805190602001906122c0929190612e4b565b505050565b60008111612308576040517f08c379a00000000000000000000000000000000000000000000000000000000081526004016122ff90613abc565b60405180910390fd5b600954341461234c576040517f08c379a000000000000000000000000000000000000000000000000000000000815260040161234390613a5c565b60405180910390fd5b6040518060a001604052808381526020013373ffffffffffffffffffffffffffffffffffffffff1681526020013073ffffffffffffffffffffffffffffffffffffffff16815260200182815260200160001515815250600b60008481526020019081526020016000206000820151816000015560208201518160010160006101000a81548173ffffffffffffffffffffffffffffffffffffffff021916908373ffffffffffffffffffffffffffffffffffffffff16021790555060408201518160020160006101000a81548173ffffffffffffffffffffffffffffffffffffffff021916908373ffffffffffffffffffffffffffffffffffffffff1602179055506060820151816003015560808201518160040160006101000a81548160ff021916908315150217905550905050612485306001611388565b817fb640004f1d14576d0c209e240cad0410e0d8c0c33a09375861fbadae2588a98d33308460006040516124bc949392919061378c565b60405180910390a25050565b8173ffffffffffffffffffffffffffffffffffffffff168373ffffffffffffffffffffffffffffffffffffffff161415612537576040517f08c379a000000000000000000000000000000000000000000000000000000000815260040161252e9061395c565b60405180910390fd5b80600560008573ffffffffffffffffffffffffffffffffffffffff1673ffffffffffffffffffffffffffffffffffffffff16815260200190815260200160002060008473ffffffffffffffffffffffffffffffffffffffff1673ffffffffffffffffffffffffffffffffffffffff16815260200190815260200160002060006101000a81548160ff0219169083151502179055508173ffffffffffffffffffffffffffffffffffffffff168373ffffffffffffffffffffffffffffffffffffffff167f17307eab39ab6107e8899845ad3d59bd9653f200f220920489ca2b5937696c3183604051612628919061383f565b60405180910390a3505050565b612640848484611ce6565b61264c848484846128d9565b61268b576040517f08c379a0000000000000000000000000000000000000000000000000000000008152600401612682906138dc565b60405180910390fd5b50505050565b606060405180602001604052806000815250905090565b60606126b382611b37565b60006126bd612691565b905060008151116126dd5760405180602001604052806000815250612708565b806126e784612a70565b6040516020016126f892919061374d565b6040516020818303038152906040525b915050919050565b6000816000015490506000811161275c576040517f08c379a0000000000000000000000000000000000000000000000000000000008152600401612753906138bc565b60405180910390fd5b6001810382600001819055505050565b60008073ffffffffffffffffffffffffffffffffffffffff1661278e83611fe0565b73ffffffffffffffffffffffffffffffffffffffff1614159050919050565b60018111156128cd57600073ffffffffffffffffffffffffffffffffffffffff168473ffffffffffffffffffffffffffffffffffffffff16146128415780600360008673ffffffffffffffffffffffffffffffffffffffff1673ffffffffffffffffffffffffffffffffffffffff16815260200190815260200160002060008282546128399190613c50565b925050819055505b600073ffffffffffffffffffffffffffffffffffffffff168373ffffffffffffffffffffffffffffffffffffffff16146128cc5780600360008573ffffffffffffffffffffffffffffffffffffffff1673ffffffffffffffffffffffffffffffffffffffff16815260200190815260200160002060008282546128c49190613bfa565b925050819055505b5b50505050565b50505050565b60006128fa8473ffffffffffffffffffffffffffffffffffffffff16612b94565b15612a63578373ffffffffffffffffffffffffffffffffffffffff1663150b7a02612923611b82565b8786866040518563ffffffff1660e01b815260040161294594939291906137d1565b602060405180830381600087803b15801561295f57600080fd5b505af192505050801561299057506040513d601f19601f8201168201806040525081019061298d91906131f7565b60015b612a13573d80600081146129c0576040519150601f19603f3d011682016040523d82523d6000602084013e6129c5565b606091505b50600081511415612a0b576040517f08c379a0000000000000000000000000000000000000000000000000000000008152600401612a02906138dc565b60405180910390fd5b805181602001fd5b63150b7a0260e01b7bffffffffffffffffffffffffffffffffffffffffffffffffffffffff1916817bffffffffffffffffffffffffffffffffffffffffffffffffffffffff191614915050612a68565b600190505b949350505050565b606060006001612a7f84612bb7565b01905060008167ffffffffffffffff811115612ac4577f4e487b7100000000000000000000000000000000000000000000000000000000600052604160045260246000fd5b6040519080825280601f01601f191660200182016040528015612af65781602001600182028036833780820191505090505b509050600082602001820190505b600115612b89578080600190039150507f3031323334353637383961626364656600000000000000000000000000000000600a86061a8153600a8581612b73577f4e487b7100000000000000000000000000000000000000000000000000000000600052601260045260246000fd5b0494506000851415612b8457612b89565b612b04565b819350505050919050565b6000808273ffffffffffffffffffffffffffffffffffffffff163b119050919050565b600080600090507a184f03e93ff9f4daa797ed6e38ed64bf6a1f0100000000000000008310612c3b577a184f03e93ff9f4daa797ed6e38ed64bf6a1f0100000000000000008381612c31577f4e487b7100000000000000000000000000000000000000000000000000000000600052601260045260246000fd5b0492506040810190505b6d04ee2d6d415b85acef81000000008310612c9e576d04ee2d6d415b85acef81000000008381612c94577f4e487b7100000000000000000000000000000000000000000000000000000000600052601260045260246000fd5b0492506020810190505b662386f26fc100008310612cf357662386f26fc100008381612ce9577f4e487b7100000000000000000000000000000000000000000000000000000000600052601260045260246000fd5b0492506010810190505b6305f5e1008310612d42576305f5e1008381612d38577f4e487b7100000000000000000000000000000000000000000000000000000000600052601260045260246000fd5b0492506008810190505b6127108310612d8d576127108381612d83577f4e487b7100000000000000000000000000000000000000000000000000000000600052601260045260246000fd5b0492506004810190505b60648310612dd65760648381612dcc577f4e487b7100000000000000000000000000000000000000000000000000000000600052601260045260246000fd5b0492506002810190505b600a8310612de5576001810190505b80915050919050565b6040518060a0016040528060008152602001600073ffffffffffffffffffffffffffffffffffffffff168152602001600073ffffffffffffffffffffffffffffffffffffffff168152602001600081526020016000151581525090565b828054612e5790613d4c565b90600052602060002090601f016020900481019282612e795760008555612ec0565b82601f10612e9257805160ff1916838001178555612ec0565b82800160010185558215612ec0579182015b82811115612ebf578251825591602001919060010190612ea4565b5b509050612ecd9190612ed1565b5090565b5b80821115612eea576000816000905550600101612ed2565b5090565b6000612f01612efc84613b1c565b613af7565b905082815260208101848484011115612f1957600080fd5b612f24848285613d0a565b509392505050565b6000612f3f612f3a84613b4d565b613af7565b905082815260208101848484011115612f5757600080fd5b612f62848285613d0a565b509392505050565b600081359050612f798161438f565b92915050565b600081359050612f8e816143a6565b92915050565b600081359050612fa3816143bd565b92915050565b600081519050612fb8816143bd565b92915050565b600082601f830112612fcf57600080fd5b8135612fdf848260208601612eee565b91505092915050565b600082601f830112612ff957600080fd5b8135613009848260208601612f2c565b91505092915050565b600081359050613021816143d4565b92915050565b60006020828403121561303957600080fd5b600061304784828501612f6a565b91505092915050565b6000806040838503121561306357600080fd5b600061307185828601612f6a565b925050602061308285828601612f6a565b9150509250929050565b6000806000606084860312156130a157600080fd5b60006130af86828701612f6a565b93505060206130c086828701612f6a565b92505060406130d186828701613012565b9150509250925092565b600080600080608085870312156130f157600080fd5b60006130ff87828801612f6a565b945050602061311087828801612f6a565b935050604061312187828801613012565b925050606085013567ffffffffffffffff81111561313e57600080fd5b61314a87828801612fbe565b91505092959194509250565b6000806040838503121561316957600080fd5b600061317785828601612f6a565b925050602061318885828601612f7f565b9150509250929050565b600080604083850312156131a557600080fd5b60006131b385828601612f6a565b92505060206131c485828601613012565b9150509250929050565b6000602082840312156131e057600080fd5b60006131ee84828501612f94565b91505092915050565b60006020828403121561320957600080fd5b600061321784828501612fa9565b91505092915050565b6000806040838503121561323357600080fd5b600083013567ffffffffffffffff81111561324d57600080fd5b61325985828601612fe8565b925050602061326a85828601613012565b9150509250929050565b60006020828403121561328657600080fd5b600061329484828501613012565b91505092915050565b600080604083850312156132b057600080fd5b60006132be85828601613012565b92505060206132cf85828601613012565b9150509250929050565b60006132e583836136c7565b60a08301905092915050565b6132fa81613c96565b82525050565b61330981613c84565b82525050565b600061331a82613b8e565b6133248185613bbc565b935061332f83613b7e565b8060005b8381101561336057815161334788826132d9565b975061335283613baf565b925050600181019050613333565b5085935050505092915050565b61337681613ca8565b82525050565b61338581613ca8565b82525050565b600061339682613b99565b6133a08185613bcd565b93506133b0818560208601613d19565b6133b981613e85565b840191505092915050565b60006133cf82613ba4565b6133d98185613bde565b93506133e9818560208601613d19565b6133f281613e85565b840191505092915050565b600061340882613ba4565b6134128185613bef565b9350613422818560208601613d19565b80840191505092915050565b600061343b602d83613bde565b915061344682613e96565b604082019050919050565b600061345e602f83613bde565b915061346982613ee5565b604082019050919050565b6000613481601b83613bde565b915061348c82613f34565b602082019050919050565b60006134a4603283613bde565b91506134af82613f5d565b604082019050919050565b60006134c7602583613bde565b91506134d282613fac565b604082019050919050565b60006134ea601c83613bde565b91506134f582613ffb565b602082019050919050565b600061350d602483613bde565b915061351882614024565b604082019050919050565b6000613530601983613bde565b915061353b82614073565b602082019050919050565b6000613553602983613bde565b915061355e8261409c565b604082019050919050565b6000613576602e83613bde565b9150613581826140eb565b604082019050919050565b6000613599604083613bde565b91506135a48261413a565b604082019050919050565b60006135bc602083613bde565b91506135c782614189565b602082019050919050565b60006135df602a83613bde565b91506135ea826141b2565b604082019050919050565b6000613602601883613bde565b915061360d82614201565b602082019050919050565b6000613625602183613bde565b91506136308261422a565b604082019050919050565b6000613648602483613bde565b915061365382614279565b604082019050919050565b600061366b603d83613bde565b9150613676826142c8565b604082019050919050565b600061368e603083613bde565b915061369982614317565b604082019050919050565b60006136b1601c83613bde565b91506136bc82614366565b602082019050919050565b60a0820160008201516136dd600085018261372f565b5060208201516136f060208501826132f1565b50604082015161370360408501826132f1565b506060820151613716606085018261372f565b506080820151613729608085018261336d565b50505050565b61373881613d00565b82525050565b61374781613d00565b82525050565b600061375982856133fd565b915061376582846133fd565b91508190509392505050565b60006020820190506137866000830184613300565b92915050565b60006080820190506137a16000830187613300565b6137ae6020830186613300565b6137bb604083018561373e565b6137c8606083018461337c565b95945050505050565b60006080820190506137e66000830187613300565b6137f36020830186613300565b613800604083018561373e565b8181036060830152613812818461338b565b905095945050505050565b60006020820190508181036000830152613837818461330f565b905092915050565b6000602082019050613854600083018461337c565b92915050565b6000602082019050818103600083015261387481846133c4565b905092915050565b600060208201905081810360008301526138958161342e565b9050919050565b600060208201905081810360008301526138b581613451565b9050919050565b600060208201905081810360008301526138d581613474565b9050919050565b600060208201905081810360008301526138f581613497565b9050919050565b60006020820190508181036000830152613915816134ba565b9050919050565b60006020820190508181036000830152613935816134dd565b9050919050565b6000602082019050818103600083015261395581613500565b9050919050565b6000602082019050818103600083015261397581613523565b9050919050565b6000602082019050818103600083015261399581613546565b9050919050565b600060208201905081810360008301526139b581613569565b9050919050565b600060208201905081810360008301526139d58161358c565b9050919050565b600060208201905081810360008301526139f5816135af565b9050919050565b60006020820190508181036000830152613a15816135d2565b9050919050565b60006020820190508181036000830152613a35816135f5565b9050919050565b60006020820190508181036000830152613a5581613618565b9050919050565b60006020820190508181036000830152613a758161363b565b9050919050565b60006020820190508181036000830152613a958161365e565b9050919050565b60006020820190508181036000830152613ab581613681565b9050919050565b60006020820190508181036000830152613ad5816136a4565b9050919050565b6000602082019050613af1600083018461373e565b92915050565b6000613b01613b12565b9050613b0d8282613d7e565b919050565b6000604051905090565b600067ffffffffffffffff821115613b3757613b36613e56565b5b613b4082613e85565b9050602081019050919050565b600067ffffffffffffffff821115613b6857613b67613e56565b5b613b7182613e85565b9050602081019050919050565b6000819050602082019050919050565b600081519050919050565b600081519050919050565b600081519050919050565b6000602082019050919050565b600082825260208201905092915050565b600082825260208201905092915050565b600082825260208201905092915050565b600081905092915050565b6000613c0582613d00565b9150613c1083613d00565b9250827fffffffffffffffffffffffffffffffffffffffffffffffffffffffffffffffff03821115613c4557613c44613df8565b5b828201905092915050565b6000613c5b82613d00565b9150613c6683613d00565b925082821015613c7957613c78613df8565b5b828203905092915050565b6000613c8f82613ce0565b9050919050565b6000613ca182613ce0565b9050919050565b60008115159050919050565b60007fffffffff0000000000000000000000000000000000000000000000000000000082169050919050565b600073ffffffffffffffffffffffffffffffffffffffff82169050919050565b6000819050919050565b82818337600083830152505050565b60005b83811015613d37578082015181840152602081019050613d1c565b83811115613d46576000848401525b50505050565b60006002820490506001821680613d6457607f821691505b60208210811415613d7857613d77613e27565b5b50919050565b613d8782613e85565b810181811067ffffffffffffffff82111715613da657613da5613e56565b5b80604052505050565b6000613dba82613d00565b91507fffffffffffffffffffffffffffffffffffffffffffffffffffffffffffffffff821415613ded57613dec613df8565b5b600182019050919050565b7f4e487b7100000000000000000000000000000000000000000000000000000000600052601160045260246000fd5b7f4e487b7100000000000000000000000000000000000000000000000000000000600052602260045260246000fd5b7f4e487b7100000000000000000000000000000000000000000000000000000000600052604160045260246000fd5b6000601f19601f8301169050919050565b7f4552433732313a2063616c6c6572206973206e6f7420746f6b656e206f776e6560008201527f72206f7220617070726f76656400000000000000000000000000000000000000602082015250565b7f546865206f776e657220686173206e6f7420617070726f76656420746865207460008201527f6f6b656e20696420746f2073656c6c0000000000000000000000000000000000602082015250565b7f436f756e7465723a2064656372656d656e74206f766572666c6f770000000000600082015250565b7f4552433732313a207472616e7366657220746f206e6f6e20455243373231526560008201527f63656976657220696d706c656d656e7465720000000000000000000000000000602082015250565b7f4552433732313a207472616e736665722066726f6d20696e636f72726563742060008201527f6f776e6572000000000000000000000000000000000000000000000000000000602082015250565b7f4552433732313a20746f6b656e20616c7265616479206d696e74656400000000600082015250565b7f4552433732313a207472616e7366657220746f20746865207a65726f2061646460008201527f7265737300000000000000000000000000000000000000000000000000000000602082015250565b7f4552433732313a20617070726f766520746f2063616c6c657200000000000000600082015250565b7f4552433732313a2061646472657373207a65726f206973206e6f74206120766160008201527f6c6964206f776e65720000000000000000000000000000000000000000000000602082015250565b7f45524337323155524953746f726167653a2055524920736574206f66206e6f6e60008201527f6578697374656e7420746f6b656e000000000000000000000000000000000000602082015250565b7f506c65617365207375626d6974207468652061736b696e67207072696365206960008201527f6e206f7264657220746f20636f6d706c65746520746865207075726368617365602082015250565b7f4552433732313a206d696e7420746f20746865207a65726f2061646472657373600082015250565b7f4f6e6c79206974656d206f776e65722063616e20706572666f726d207468697360008201527f206f7065726174696f6e00000000000000000000000000000000000000000000602082015250565b7f4552433732313a20696e76616c696420746f6b656e2049440000000000000000600082015250565b7f4552433732313a20617070726f76616c20746f2063757272656e74206f776e6560008201527f7200000000000000000000000000000000000000000000000000000000000000602082015250565b7f5072696365206d75737420626520657175616c20746f206c697374696e67207060008201527f7269636500000000000000000000000000000000000000000000000000000000602082015250565b7f4552433732313a20617070726f76652063616c6c6572206973206e6f7420746f60008201527f6b656e206f776e6572206f7220617070726f76656420666f7220616c6c000000602082015250565b7f4f6e6c79206d61726b6574706c616365206f776e65722063616e20757064617460008201527f65206c697374696e672070726963652e00000000000000000000000000000000602082015250565b7f5072696365206d757374206265206174206c6561737420312077656900000000600082015250565b61439881613c84565b81146143a357600080fd5b50565b6143af81613ca8565b81146143ba57600080fd5b50565b6143c681613cb4565b81146143d157600080fd5b50565b6143dd81613d00565b81146143e857600080fd5b5056fea2646970667358221220e49c8b5ad1f7191a7e85c1256c807052cefe85293b71a4919b19afda8ea4a0c664736f6c63430008040033",
  "linkReferences": {},
  "deployedLinkReferences": {}
}