{
  "_format": "hh-sol-artifact-1",
  "contractName": "NFTMarketplace",
  "sourceName": "contracts/NFTMarketplace.sol",
  "abi": [
    {
      "inputs": [],
      "stateMutability": "nonpayable",
      "type": "constructor"
    },
    {
      "anonymous": false,
      "inputs": [
        {
          "indexed": true,
          "internalType": "address",
          "name": "owner",
          "type": "address"
        },
        {
          "indexed": true,
          "internalType": "address",
          "name": "approved",
          "type": "address"
        },
        {
          "indexed": true,
          "internalType": "uint256",
          "name": "tokenId",
          "type": "uint256"
        }
      ],
      "name": "Approval",
      "type": "event"
    },
    {
      "anonymous": false,
      "inputs": [
        {
          "indexed": true,
          "internalType": "address",
          "name": "owner",
          "type": "address"
        },
        {
          "indexed": true,
          "internalType": "address",
          "name": "operator",
          "type": "address"
        },
        {
          "indexed": false,
          "internalType": "bool",
          "name": "approved",
          "type": "bool"
        }
      ],
      "name": "ApprovalForAll",
      "type": "event"
    },
    {
      "anonymous": false,
      "inputs": [
        {
          "indexed": true,
          "internalType": "uint256",
          "name": "tokenId",
          "type": "uint256"
        },
        {
          "indexed": false,
          "internalType": "address",
          "name": "seller",
          "type": "address"
        },
        {
          "indexed": false,
          "internalType": "address",
          "name": "owner",
          "type": "address"
        },
        {
          "indexed": false,
          "internalType": "uint256",
          "name": "price",
          "type": "uint256"
        },
        {
          "indexed": false,
          "internalType": "bool",
          "name": "sold",
          "type": "bool"
        }
      ],
      "name": "MarketItemCreated",
      "type": "event"
    },
    {
      "anonymous": false,
      "inputs": [
        {
          "indexed": false,
          "internalType": "address",
          "name": "tokenContract",
          "type": "address"
        },
        {
          "indexed": false,
          "internalType": "uint256",
          "name": "amount",
          "type": "uint256"
        }
      ],
      "name": "TokenWithdrawn",
      "type": "event"
    },
    {
      "anonymous": false,
      "inputs": [
        {
          "indexed": true,
          "internalType": "address",
          "name": "from",
          "type": "address"
        },
        {
          "indexed": true,
          "internalType": "address",
          "name": "to",
          "type": "address"
        },
        {
          "indexed": true,
          "internalType": "uint256",
          "name": "tokenId",
          "type": "uint256"
        }
      ],
      "name": "Transfer",
      "type": "event"
    },
    {
      "inputs": [
        {
          "internalType": "address",
          "name": "to",
          "type": "address"
        },
        {
          "internalType": "uint256",
          "name": "tokenId",
          "type": "uint256"
        }
      ],
      "name": "approve",
      "outputs": [],
      "stateMutability": "nonpayable",
      "type": "function"
    },
    {
      "inputs": [
        {
          "internalType": "address",
          "name": "owner",
          "type": "address"
        }
      ],
      "name": "balanceOf",
      "outputs": [
        {
          "internalType": "uint256",
          "name": "",
          "type": "uint256"
        }
      ],
      "stateMutability": "view",
      "type": "function"
    },
    {
      "inputs": [
        {
          "internalType": "uint256",
          "name": "tokenId",
          "type": "uint256"
        }
      ],
      "name": "createMarketSale",
      "outputs": [],
      "stateMutability": "payable",
      "type": "function"
    },
    {
      "inputs": [
        {
          "internalType": "string",
          "name": "tokenURI",
          "type": "string"
        },
        {
          "internalType": "uint256",
          "name": "price",
          "type": "uint256"
        }
      ],
      "name": "createToken",
      "outputs": [
        {
          "internalType": "uint256",
          "name": "",
          "type": "uint256"
        }
      ],
      "stateMutability": "payable",
      "type": "function"
    },
    {
      "inputs": [],
      "name": "fetchItemsListed",
      "outputs": [
        {
          "components": [
            {
              "internalType": "uint256",
              "name": "tokenId",
              "type": "uint256"
            },
            {
              "internalType": "address payable",
              "name": "seller",
              "type": "address"
            },
            {
              "internalType": "address payable",
              "name": "owner",
              "type": "address"
            },
            {
              "internalType": "uint256",
              "name": "price",
              "type": "uint256"
            },
            {
              "internalType": "bool",
              "name": "sold",
              "type": "bool"
            }
          ],
          "internalType": "struct NFTMarketplace.MarketItem[]",
          "name": "",
          "type": "tuple[]"
        }
      ],
      "stateMutability": "view",
      "type": "function"
    },
    {
      "inputs": [],
      "name": "fetchMarketItems",
      "outputs": [
        {
          "components": [
            {
              "internalType": "uint256",
              "name": "tokenId",
              "type": "uint256"
            },
            {
              "internalType": "address payable",
              "name": "seller",
              "type": "address"
            },
            {
              "internalType": "address payable",
              "name": "owner",
              "type": "address"
            },
            {
              "internalType": "uint256",
              "name": "price",
              "type": "uint256"
            },
            {
              "internalType": "bool",
              "name": "sold",
              "type": "bool"
            }
          ],
          "internalType": "struct NFTMarketplace.MarketItem[]",
          "name": "",
          "type": "tuple[]"
        }
      ],
      "stateMutability": "view",
      "type": "function"
    },
    {
      "inputs": [],
      "name": "fetchMyNFTs",
      "outputs": [
        {
          "components": [
            {
              "internalType": "uint256",
              "name": "tokenId",
              "type": "uint256"
            },
            {
              "internalType": "address payable",
              "name": "seller",
              "type": "address"
            },
            {
              "internalType": "address payable",
              "name": "owner",
              "type": "address"
            },
            {
              "internalType": "uint256",
              "name": "price",
              "type": "uint256"
            },
            {
              "internalType": "bool",
              "name": "sold",
              "type": "bool"
            }
          ],
          "internalType": "struct NFTMarketplace.MarketItem[]",
          "name": "",
          "type": "tuple[]"
        }
      ],
      "stateMutability": "view",
      "type": "function"
    },
    {
      "inputs": [
        {
          "internalType": "uint256",
          "name": "tokenId",
          "type": "uint256"
        }
      ],
      "name": "getApproved",
      "outputs": [
        {
          "internalType": "address",
          "name": "",
          "type": "address"
        }
      ],
      "stateMutability": "view",
      "type": "function"
    },
    {
      "inputs": [],
      "name": "getListingPrice",
      "outputs": [
        {
          "internalType": "uint256",
          "name": "",
          "type": "uint256"
        }
      ],
      "stateMutability": "view",
      "type": "function"
    },
    {
      "inputs": [
        {
          "internalType": "address",
          "name": "owner",
          "type": "address"
        },
        {
          "internalType": "address",
          "name": "operator",
          "type": "address"
        }
      ],
      "name": "isApprovedForAll",
      "outputs": [
        {
          "internalType": "bool",
          "name": "",
          "type": "bool"
        }
      ],
      "stateMutability": "view",
      "type": "function"
    },
    {
      "inputs": [],
      "name": "name",
      "outputs": [
        {
          "internalType": "string",
          "name": "",
          "type": "string"
        }
      ],
      "stateMutability": "view",
      "type": "function"
    },
    {
      "inputs": [
        {
          "internalType": "uint256",
          "name": "tokenId",
          "type": "uint256"
        }
      ],
      "name": "ownerOf",
      "outputs": [
        {
          "internalType": "address",
          "name": "",
          "type": "address"
        }
      ],
      "stateMutability": "view",
      "type": "function"
    },
    {
      "inputs": [
        {
          "internalType": "string",
          "name": "",
          "type": "string"
        }
      ],
      "name": "purchaseInfo",
      "outputs": [
        {
          "internalType": "string",
          "name": "",
          "type": "string"
        }
      ],
      "stateMutability": "view",
      "type": "function"
    },
    {
      "inputs": [
        {
          "internalType": "address",
          "name": "receiveToken",
          "type": "address"
        },
        {
          "internalType": "uint256",
          "name": "amount",
          "type": "uint256"
        },
        {
          "internalType": "string",
          "name": "paymentId",
          "type": "string"
        },
        {
          "internalType": "string",
          "name": "optional",
          "type": "string"
        }
      ],
      "name": "receivePayment",
      "outputs": [],
      "stateMutability": "payable",
      "type": "function"
    },
    {
      "inputs": [
        {
          "internalType": "uint256",
          "name": "tokenId",
          "type": "uint256"
        },
        {
          "internalType": "uint256",
          "name": "price",
          "type": "uint256"
        }
      ],
      "name": "resellToken",
      "outputs": [],
      "stateMutability": "payable",
      "type": "function"
    },
    {
      "inputs": [
        {
          "internalType": "address",
          "name": "from",
          "type": "address"
        },
        {
          "internalType": "address",
          "name": "to",
          "type": "address"
        },
        {
          "internalType": "uint256",
          "name": "tokenId",
          "type": "uint256"
        }
      ],
      "name": "safeTransferFrom",
      "outputs": [],
      "stateMutability": "nonpayable",
      "type": "function"
    },
    {
      "inputs": [
        {
          "internalType": "address",
          "name": "from",
          "type": "address"
        },
        {
          "internalType": "address",
          "name": "to",
          "type": "address"
        },
        {
          "internalType": "uint256",
          "name": "tokenId",
          "type": "uint256"
        },
        {
          "internalType": "bytes",
          "name": "data",
          "type": "bytes"
        }
      ],
      "name": "safeTransferFrom",
      "outputs": [],
      "stateMutability": "nonpayable",
      "type": "function"
    },
    {
      "inputs": [
        {
          "internalType": "address",
          "name": "operator",
          "type": "address"
        },
        {
          "internalType": "bool",
          "name": "approved",
          "type": "bool"
        }
      ],
      "name": "setApprovalForAll",
      "outputs": [],
      "stateMutability": "nonpayable",
      "type": "function"
    },
    {
      "inputs": [],
      "name": "supportSlashExtensionInterface",
      "outputs": [
        {
          "internalType": "bool",
          "name": "",
          "type": "bool"
        }
      ],
      "stateMutability": "pure",
      "type": "function"
    },
    {
      "inputs": [
        {
          "internalType": "bytes4",
          "name": "interfaceId",
          "type": "bytes4"
        }
      ],
      "name": "supportsInterface",
      "outputs": [
        {
          "internalType": "bool",
          "name": "",
          "type": "bool"
        }
      ],
      "stateMutability": "view",
      "type": "function"
    },
    {
      "inputs": [],
      "name": "symbol",
      "outputs": [
        {
          "internalType": "string",
          "name": "",
          "type": "string"
        }
      ],
      "stateMutability": "view",
      "type": "function"
    },
    {
      "inputs": [
        {
          "internalType": "uint256",
          "name": "tokenId",
          "type": "uint256"
        }
      ],
      "name": "tokenURI",
      "outputs": [
        {
          "internalType": "string",
          "name": "",
          "type": "string"
        }
      ],
      "stateMutability": "view",
      "type": "function"
    },
    {
      "inputs": [
        {
          "internalType": "address",
          "name": "from",
          "type": "address"
        },
        {
          "internalType": "address",
          "name": "to",
          "type": "address"
        },
        {
          "internalType": "uint256",
          "name": "tokenId",
          "type": "uint256"
        }
      ],
      "name": "transferFrom",
      "outputs": [],
      "stateMutability": "nonpayable",
      "type": "function"
    },
    {
      "inputs": [
        {
          "internalType": "uint256",
          "name": "_listingPrice",
          "type": "uint256"
        }
      ],
      "name": "updateListingPrice",
      "outputs": [],
      "stateMutability": "payable",
      "type": "function"
    },
    {
      "inputs": [
        {
          "internalType": "address",
          "name": "tokenAddress",
          "type": "address"
        }
      ],
      "name": "withdrawToken",
      "outputs": [],
      "stateMutability": "nonpayable",
      "type": "function"
    }
  ],
  "bytecode": "0x60806040526658d15e176280006009553480156200001c57600080fd5b506040518060400160405280600c81526020017f5368617065204d61726b657400000000000000000000000000000000000000008152506040518060400160405280600381526020017f53485000000000000000000000000000000000000000000000000000000000008152508160009080519060200190620000a192919062000104565b508060019080519060200190620000ba92919062000104565b50505033600a60006101000a81548173ffffffffffffffffffffffffffffffffffffffff021916908373ffffffffffffffffffffffffffffffffffffffff16021790555062000219565b8280546200011290620001b4565b90600052602060002090601f01602090048101928262000136576000855562000182565b82601f106200015157805160ff191683800117855562000182565b8280016001018555821562000182579182015b828111156200018157825182559160200191906001019062000164565b5b50905062000191919062000195565b5090565b5b80821115620001b057600081600090555060010162000196565b5090565b60006002820490506001821680620001cd57607f821691505b60208210811415620001e457620001e3620001ea565b5b50919050565b7f4e487b7100000000000000000000000000000000000000000000000000000000600052602260045260246000fd5b6154fe80620002296000396000f3fe6080604052600436106101665760003560e01c806370a08231116100d1578063ae677aa31161008a578063c87b56dd11610064578063c87b56dd14610527578063cfd8864c14610564578063e219fc7514610580578063e985e9c51461059c57610166565b8063ae677aa3146104c6578063b88d4fde146104e2578063be9af5361461050b57610166565b806370a08231146103b157806372b3b620146103ee578063894760691461041e5780638ab431421461044757806395d89b4114610472578063a22cb4651461049d57610166565b8063202e374011610123578063202e37401461028f57806323b872dd146102ba5780633ab4dcd5146102e357806342842e0e1461032057806345f8fa80146103495780636352211e1461037457610166565b806301ffc9a71461016b57806306fdde03146101a8578063081812fc146101d3578063095ea7b3146102105780630f08efe01461023957806312e8558514610264575b600080fd5b34801561017757600080fd5b50610192600480360381019061018d9190613e37565b6105d9565b60405161019f91906146c6565b60405180910390f35b3480156101b457600080fd5b506101bd6106bb565b6040516101ca91906146e1565b60405180910390f35b3480156101df57600080fd5b506101fa60048036038101906101f59190613f1e565b61074d565b6040516102079190614598565b60405180910390f35b34801561021c57600080fd5b5061023760048036038101906102329190613d3f565b610793565b005b34801561024557600080fd5b5061024e6108ab565b60405161025b91906146a4565b60405180910390f35b34801561027057600080fd5b50610279610b60565b6040516102869190614a43565b60405180910390f35b34801561029b57600080fd5b506102a4610b6a565b6040516102b191906146a4565b60405180910390f35b3480156102c657600080fd5b506102e160048036038101906102dc9190613c39565b610ea4565b005b3480156102ef57600080fd5b5061030a60048036038101906103059190613e89565b610f04565b60405161031791906146e1565b60405180910390f35b34801561032c57600080fd5b5061034760048036038101906103429190613c39565b610fba565b005b34801561035557600080fd5b5061035e610fda565b60405161036b91906146a4565b60405180910390f35b34801561038057600080fd5b5061039b60048036038101906103969190613f1e565b611314565b6040516103a89190614598565b60405180910390f35b3480156103bd57600080fd5b506103d860048036038101906103d39190613bd4565b61139b565b6040516103e59190614a43565b60405180910390f35b61040860048036038101906104039190613eca565b611453565b6040516104159190614a43565b60405180910390f35b34801561042a57600080fd5b5061044560048036038101906104409190613bd4565b611495565b005b34801561045357600080fd5b5061045c611648565b60405161046991906146c6565b60405180910390f35b34801561047e57600080fd5b50610487611651565b60405161049491906146e1565b60405180910390f35b3480156104a957600080fd5b506104c460048036038101906104bf9190613d03565b6116e3565b005b6104e060048036038101906104db9190613f1e565b6116f9565b005b3480156104ee57600080fd5b5061050960048036038101906105049190613c88565b611793565b005b61052560048036038101906105209190613f1e565b6117f5565b005b34801561053357600080fd5b5061054e60048036038101906105499190613f1e565b611a4a565b60405161055b91906146e1565b60405180910390f35b61057e60048036038101906105799190613d7b565b611b5d565b005b61059a60048036038101906105959190613f70565b611c98565b005b3480156105a857600080fd5b506105c360048036038101906105be9190613bfd565b611e8d565b6040516105d091906146c6565b60405180910390f35b60007f80ac58cd000000000000000000000000000000000000000000000000000000007bffffffffffffffffffffffffffffffffffffffffffffffffffffffff1916827bffffffffffffffffffffffffffffffffffffffffffffffffffffffff191614806106a457507f5b5e139f000000000000000000000000000000000000000000000000000000007bffffffffffffffffffffffffffffffffffffffffffffffffffffffff1916827bffffffffffffffffffffffffffffffffffffffffffffffffffffffff1916145b806106b457506106b382611f21565b5b9050919050565b6060600080546106ca90614cbe565b80601f01602080910402602001604051908101604052809291908181526020018280546106f690614cbe565b80156107435780601f1061071857610100808354040283529160200191610743565b820191906000526020600020905b81548152906001019060200180831161072657829003601f168201915b5050505050905090565b600061075882611f8b565b6004600083815260200190815260200160002060009054906101000a900473ffffffffffffffffffffffffffffffffffffffff169050919050565b600061079e82611314565b90508073ffffffffffffffffffffffffffffffffffffffff168373ffffffffffffffffffffffffffffffffffffffff16141561080f576040517f08c379a000000000000000000000000000000000000000000000000000000000815260040161080690614963565b60405180910390fd5b8073ffffffffffffffffffffffffffffffffffffffff1661082e611fd6565b73ffffffffffffffffffffffffffffffffffffffff16148061085d575061085c81610857611fd6565b611e8d565b5b61089c576040517f08c379a0000000000000000000000000000000000000000000000000000000008152600401610893906149a3565b60405180910390fd5b6108a68383611fde565b505050565b606060006108b96007612097565b905060006108c76008612097565b6108d16007612097565b6108db9190614bc2565b90506000808267ffffffffffffffff811115610920577f4e487b7100000000000000000000000000000000000000000000000000000000600052604160045260246000fd5b60405190808252806020026020018201604052801561095957816020015b610946613971565b81526020019060019003908161093e5790505b50905060005b84811015610b55573073ffffffffffffffffffffffffffffffffffffffff16600b600060018461098f9190614b6c565b815260200190815260200160002060020160009054906101000a900473ffffffffffffffffffffffffffffffffffffffff1673ffffffffffffffffffffffffffffffffffffffff161415610b425760006001826109ec9190614b6c565b90506000600b60008381526020019081526020016000209050806040518060a0016040529081600082015481526020016001820160009054906101000a900473ffffffffffffffffffffffffffffffffffffffff1673ffffffffffffffffffffffffffffffffffffffff1673ffffffffffffffffffffffffffffffffffffffff1681526020016002820160009054906101000a900473ffffffffffffffffffffffffffffffffffffffff1673ffffffffffffffffffffffffffffffffffffffff1673ffffffffffffffffffffffffffffffffffffffff168152602001600382015481526020016004820160009054906101000a900460ff161515151581525050848681518110610b25577f4e487b7100000000000000000000000000000000000000000000000000000000600052603260045260246000fd5b6020026020010181905250600185610b3d9190614b6c565b945050505b8080610b4d90614d21565b91505061095f565b508094505050505090565b6000600954905090565b60606000610b786007612097565b905060008060005b83811015610c21573373ffffffffffffffffffffffffffffffffffffffff16600b6000600184610bb09190614b6c565b815260200190815260200160002060020160009054906101000a900473ffffffffffffffffffffffffffffffffffffffff1673ffffffffffffffffffffffffffffffffffffffff161415610c0e57600183610c0b9190614b6c565b92505b8080610c1990614d21565b915050610b80565b5060008267ffffffffffffffff811115610c64577f4e487b7100000000000000000000000000000000000000000000000000000000600052604160045260246000fd5b604051908082528060200260200182016040528015610c9d57816020015b610c8a613971565b815260200190600190039081610c825790505b50905060005b84811015610e99573373ffffffffffffffffffffffffffffffffffffffff16600b6000600184610cd39190614b6c565b815260200190815260200160002060020160009054906101000a900473ffffffffffffffffffffffffffffffffffffffff1673ffffffffffffffffffffffffffffffffffffffff161415610e86576000600182610d309190614b6c565b90506000600b60008381526020019081526020016000209050806040518060a0016040529081600082015481526020016001820160009054906101000a900473ffffffffffffffffffffffffffffffffffffffff1673ffffffffffffffffffffffffffffffffffffffff1673ffffffffffffffffffffffffffffffffffffffff1681526020016002820160009054906101000a900473ffffffffffffffffffffffffffffffffffffffff1673ffffffffffffffffffffffffffffffffffffffff1673ffffffffffffffffffffffffffffffffffffffff168152602001600382015481526020016004820160009054906101000a900460ff161515151581525050848681518110610e69577f4e487b7100000000000000000000000000000000000000000000000000000000600052603260045260246000fd5b6020026020010181905250600185610e819190614b6c565b945050505b8080610e9190614d21565b915050610ca3565b508094505050505090565b610eb5610eaf611fd6565b826120a5565b610ef4576040517f08c379a0000000000000000000000000000000000000000000000000000000008152600401610eeb90614703565b60405180910390fd5b610eff83838361213a565b505050565b600c818051602081018201805184825260208301602085012081835280955050505050506000915090508054610f3990614cbe565b80601f0160208091040260200160405190810160405280929190818152602001828054610f6590614cbe565b8015610fb25780601f10610f8757610100808354040283529160200191610fb2565b820191906000526020600020905b815481529060010190602001808311610f9557829003601f168201915b505050505081565b610fd583838360405180602001604052806000815250611793565b505050565b60606000610fe86007612097565b905060008060005b83811015611091573373ffffffffffffffffffffffffffffffffffffffff16600b60006001846110209190614b6c565b815260200190815260200160002060010160009054906101000a900473ffffffffffffffffffffffffffffffffffffffff1673ffffffffffffffffffffffffffffffffffffffff16141561107e5760018361107b9190614b6c565b92505b808061108990614d21565b915050610ff0565b5060008267ffffffffffffffff8111156110d4577f4e487b7100000000000000000000000000000000000000000000000000000000600052604160045260246000fd5b60405190808252806020026020018201604052801561110d57816020015b6110fa613971565b8152602001906001900390816110f25790505b50905060005b84811015611309573373ffffffffffffffffffffffffffffffffffffffff16600b60006001846111439190614b6c565b815260200190815260200160002060010160009054906101000a900473ffffffffffffffffffffffffffffffffffffffff1673ffffffffffffffffffffffffffffffffffffffff1614156112f65760006001826111a09190614b6c565b90506000600b60008381526020019081526020016000209050806040518060a0016040529081600082015481526020016001820160009054906101000a900473ffffffffffffffffffffffffffffffffffffffff1673ffffffffffffffffffffffffffffffffffffffff1673ffffffffffffffffffffffffffffffffffffffff1681526020016002820160009054906101000a900473ffffffffffffffffffffffffffffffffffffffff1673ffffffffffffffffffffffffffffffffffffffff1673ffffffffffffffffffffffffffffffffffffffff168152602001600382015481526020016004820160009054906101000a900460ff1615151515815250508486815181106112d9577f4e487b7100000000000000000000000000000000000000000000000000000000600052603260045260246000fd5b60200260200101819052506001856112f19190614b6c565b945050505b808061130190614d21565b915050611113565b508094505050505090565b60008061132083612434565b9050600073ffffffffffffffffffffffffffffffffffffffff168173ffffffffffffffffffffffffffffffffffffffff161415611392576040517f08c379a000000000000000000000000000000000000000000000000000000000815260040161138990614943565b60405180910390fd5b80915050919050565b60008073ffffffffffffffffffffffffffffffffffffffff168273ffffffffffffffffffffffffffffffffffffffff16141561140c576040517f08c379a000000000000000000000000000000000000000000000000000000000815260040161140390614883565b60405180910390fd5b600360008373ffffffffffffffffffffffffffffffffffffffff1673ffffffffffffffffffffffffffffffffffffffff168152602001908152602001600020549050919050565b600061145f6007612471565b600061146b6007612097565b90506114773382612487565b61148181856126a5565b61148b8184612719565b8091505092915050565b60006114c0308373ffffffffffffffffffffffffffffffffffffffff1661291c90919063ffffffff16565b11611500576040517f08c379a00000000000000000000000000000000000000000000000000000000081526004016114f790614783565b60405180910390fd5b600a60009054906101000a900473ffffffffffffffffffffffffffffffffffffffff1673ffffffffffffffffffffffffffffffffffffffff163373ffffffffffffffffffffffffffffffffffffffff1614611590576040517f08c379a000000000000000000000000000000000000000000000000000000000815260040161158790614863565b60405180910390fd5b6115e3336115bd308473ffffffffffffffffffffffffffffffffffffffff1661291c90919063ffffffff16565b8373ffffffffffffffffffffffffffffffffffffffff166129dd9092919063ffffffff16565b507fa2bd9fcfcdba69f52bcd9a520846ad4bd685b187483f53efc42d035b2ddebff08161162f308473ffffffffffffffffffffffffffffffffffffffff1661291c90919063ffffffff16565b60405161163d92919061467b565b60405180910390a150565b60006001905090565b60606001805461166090614cbe565b80601f016020809104026020016040519081016040528092919081815260200182805461168c90614cbe565b80156116d95780601f106116ae576101008083540402835291602001916116d9565b820191906000526020600020905b8154815290600101906020018083116116bc57829003601f168201915b5050505050905090565b6116f56116ee611fd6565b8383612a85565b5050565b3373ffffffffffffffffffffffffffffffffffffffff16600a60009054906101000a900473ffffffffffffffffffffffffffffffffffffffff1673ffffffffffffffffffffffffffffffffffffffff1614611789576040517f08c379a0000000000000000000000000000000000000000000000000000000008152600401611780906149e3565b60405180910390fd5b8060098190555050565b6117a461179e611fd6565b836120a5565b6117e3576040517f08c379a00000000000000000000000000000000000000000000000000000000081526004016117da90614703565b60405180910390fd5b6117ef84848484612bf2565b50505050565b6000600b600083815260200190815260200160002060030154905061182261181c83611314565b30611e8d565b611861576040517f08c379a000000000000000000000000000000000000000000000000000000000815260040161185890614723565b60405180910390fd5b600061186c83611314565b905033600b600085815260200190815260200160002060020160006101000a81548173ffffffffffffffffffffffffffffffffffffffff021916908373ffffffffffffffffffffffffffffffffffffffff1602179055506001600b600085815260200190815260200160002060040160006101000a81548160ff0219169083151502179055506000600b600085815260200190815260200160002060010160006101000a81548173ffffffffffffffffffffffffffffffffffffffff021916908373ffffffffffffffffffffffffffffffffffffffff1602179055506119526008612471565b61195d81338561213a565b600a60009054906101000a900473ffffffffffffffffffffffffffffffffffffffff1673ffffffffffffffffffffffffffffffffffffffff166108fc6009549081150290604051600060405180830381858888f193505050501580156119c7573d6000803e3d6000fd5b50600b600084815260200190815260200160002060010160009054906101000a900473ffffffffffffffffffffffffffffffffffffffff1673ffffffffffffffffffffffffffffffffffffffff166108fc349081150290604051600060405180830381858888f19350505050158015611a44573d6000803e3d6000fd5b50505050565b6060611a5582611f8b565b6000600660008481526020019081526020016000208054611a7590614cbe565b80601f0160208091040260200160405190810160405280929190818152602001828054611aa190614cbe565b8015611aee5780601f10611ac357610100808354040283529160200191611aee565b820191906000526020600020905b815481529060010190602001808311611ad157829003601f168201915b505050505090506000611aff612c4e565b9050600081511415611b15578192505050611b58565b600082511115611b4a578082604051602001611b32929190614574565b60405160208183030381529060405292505050611b58565b611b5384612c65565b925050505b919050565b60008311611ba0576040517f08c379a0000000000000000000000000000000000000000000000000000000008152600401611b97906147e3565b60405180910390fd5b600073ffffffffffffffffffffffffffffffffffffffff168473ffffffffffffffffffffffffffffffffffffffff161415611c10576040517f08c379a0000000000000000000000000000000000000000000000000000000008152600401611c0790614923565b60405180910390fd5b611c5f33600a60009054906101000a900473ffffffffffffffffffffffffffffffffffffffff16858773ffffffffffffffffffffffffffffffffffffffff16612ccd909392919063ffffffff16565b80600c83604051611c70919061455d565b90815260200160405180910390209080519060200190611c919291906139ce565b5050505050565b3373ffffffffffffffffffffffffffffffffffffffff16600b600084815260200190815260200160002060020160009054906101000a900473ffffffffffffffffffffffffffffffffffffffff1673ffffffffffffffffffffffffffffffffffffffff1614611d3c576040517f08c379a0000000000000000000000000000000000000000000000000000000008152600401611d3390614903565b60405180910390fd5b6009543414611d80576040517f08c379a0000000000000000000000000000000000000000000000000000000008152600401611d7790614983565b60405180910390fd5b6000600b600084815260200190815260200160002060040160006101000a81548160ff02191690831515021790555080600b60008481526020019081526020016000206003018190555033600b600084815260200190815260200160002060010160006101000a81548173ffffffffffffffffffffffffffffffffffffffff021916908373ffffffffffffffffffffffffffffffffffffffff16021790555030600b600084815260200190815260200160002060020160006101000a81548173ffffffffffffffffffffffffffffffffffffffff021916908373ffffffffffffffffffffffffffffffffffffffff160217905550611e7e6008612e7a565b611e893060016116e3565b5050565b6000600560008473ffffffffffffffffffffffffffffffffffffffff1673ffffffffffffffffffffffffffffffffffffffff16815260200190815260200160002060008373ffffffffffffffffffffffffffffffffffffffff1673ffffffffffffffffffffffffffffffffffffffff16815260200190815260200160002060009054906101000a900460ff16905092915050565b60007f01ffc9a7000000000000000000000000000000000000000000000000000000007bffffffffffffffffffffffffffffffffffffffffffffffffffffffff1916827bffffffffffffffffffffffffffffffffffffffffffffffffffffffff1916149050919050565b611f9481612ed6565b611fd3576040517f08c379a0000000000000000000000000000000000000000000000000000000008152600401611fca90614943565b60405180910390fd5b50565b600033905090565b816004600083815260200190815260200160002060006101000a81548173ffffffffffffffffffffffffffffffffffffffff021916908373ffffffffffffffffffffffffffffffffffffffff160217905550808273ffffffffffffffffffffffffffffffffffffffff1661205183611314565b73ffffffffffffffffffffffffffffffffffffffff167f8c5be1e5ebec7d5bd14f71427d1e84f3dd0314c0f7b2291e5b200ac8c7c3b92560405160405180910390a45050565b600081600001549050919050565b6000806120b183611314565b90508073ffffffffffffffffffffffffffffffffffffffff168473ffffffffffffffffffffffffffffffffffffffff1614806120f357506120f28185611e8d565b5b8061213157508373ffffffffffffffffffffffffffffffffffffffff166121198461074d565b73ffffffffffffffffffffffffffffffffffffffff16145b91505092915050565b8273ffffffffffffffffffffffffffffffffffffffff1661215a82611314565b73ffffffffffffffffffffffffffffffffffffffff16146121b0576040517f08c379a00000000000000000000000000000000000000000000000000000000081526004016121a7906147a3565b60405180910390fd5b600073ffffffffffffffffffffffffffffffffffffffff168273ffffffffffffffffffffffffffffffffffffffff161415612220576040517f08c379a000000000000000000000000000000000000000000000000000000000815260040161221790614803565b60405180910390fd5b61222d8383836001612f17565b8273ffffffffffffffffffffffffffffffffffffffff1661224d82611314565b73ffffffffffffffffffffffffffffffffffffffff16146122a3576040517f08c379a000000000000000000000000000000000000000000000000000000000815260040161229a906147a3565b60405180910390fd5b6004600082815260200190815260200160002060006101000a81549073ffffffffffffffffffffffffffffffffffffffff02191690556001600360008573ffffffffffffffffffffffffffffffffffffffff1673ffffffffffffffffffffffffffffffffffffffff168152602001908152602001600020600082825403925050819055506001600360008473ffffffffffffffffffffffffffffffffffffffff1673ffffffffffffffffffffffffffffffffffffffff16815260200190815260200160002060008282540192505081905550816002600083815260200190815260200160002060006101000a81548173ffffffffffffffffffffffffffffffffffffffff021916908373ffffffffffffffffffffffffffffffffffffffff160217905550808273ffffffffffffffffffffffffffffffffffffffff168473ffffffffffffffffffffffffffffffffffffffff167fddf252ad1be2c89b69c2b068fc378daa952ba7f163c4a11628f55a4df523b3ef60405160405180910390a461242f838383600161303d565b505050565b60006002600083815260200190815260200160002060009054906101000a900473ffffffffffffffffffffffffffffffffffffffff169050919050565b6001816000016000828254019250508190555050565b600073ffffffffffffffffffffffffffffffffffffffff168273ffffffffffffffffffffffffffffffffffffffff1614156124f7576040517f08c379a00000000000000000000000000000000000000000000000000000000081526004016124ee906148e3565b60405180910390fd5b61250081612ed6565b15612540576040517f08c379a0000000000000000000000000000000000000000000000000000000008152600401612537906147c3565b60405180910390fd5b61254e600083836001612f17565b61255781612ed6565b15612597576040517f08c379a000000000000000000000000000000000000000000000000000000000815260040161258e906147c3565b60405180910390fd5b6001600360008473ffffffffffffffffffffffffffffffffffffffff1673ffffffffffffffffffffffffffffffffffffffff16815260200190815260200160002060008282540192505081905550816002600083815260200190815260200160002060006101000a81548173ffffffffffffffffffffffffffffffffffffffff021916908373ffffffffffffffffffffffffffffffffffffffff160217905550808273ffffffffffffffffffffffffffffffffffffffff16600073ffffffffffffffffffffffffffffffffffffffff167fddf252ad1be2c89b69c2b068fc378daa952ba7f163c4a11628f55a4df523b3ef60405160405180910390a46126a160008383600161303d565b5050565b6126ae82612ed6565b6126ed576040517f08c379a00000000000000000000000000000000000000000000000000000000081526004016126e4906148c3565b60405180910390fd5b806006600084815260200190815260200160002090805190602001906127149291906139ce565b505050565b6000811161275c576040517f08c379a000000000000000000000000000000000000000000000000000000000815260040161275390614a23565b60405180910390fd5b60095434146127a0576040517f08c379a000000000000000000000000000000000000000000000000000000000815260040161279790614983565b60405180910390fd5b6040518060a001604052808381526020013373ffffffffffffffffffffffffffffffffffffffff1681526020013073ffffffffffffffffffffffffffffffffffffffff16815260200182815260200160001515815250600b60008481526020019081526020016000206000820151816000015560208201518160010160006101000a81548173ffffffffffffffffffffffffffffffffffffffff021916908373ffffffffffffffffffffffffffffffffffffffff16021790555060408201518160020160006101000a81548173ffffffffffffffffffffffffffffffffffffffff021916908373ffffffffffffffffffffffffffffffffffffffff1602179055506060820151816003015560808201518160040160006101000a81548160ff0219169083151502179055509050506128d93060016116e3565b817fb640004f1d14576d0c209e240cad0410e0d8c0c33a09375861fbadae2588a98d333084600060405161291094939291906145ea565b60405180910390a25050565b600061292783613043565b1561294b578173ffffffffffffffffffffffffffffffffffffffff163190506129d7565b8273ffffffffffffffffffffffffffffffffffffffff166370a08231836040518263ffffffff1660e01b81526004016129849190614598565b60206040518083038186803b15801561299c57600080fd5b505afa1580156129b0573d6000803e3d6000fd5b505050506040513d601f19601f820116820180604052508101906129d49190613f47565b90505b92915050565b6000808214156129f05760019050612a7e565b6129f984613043565b15612a4e578273ffffffffffffffffffffffffffffffffffffffff166108fc839081150290604051600060405180830381858888f19350505050158015612a44573d6000803e3d6000fd5b5060019050612a7e565b612a7983838673ffffffffffffffffffffffffffffffffffffffff166130c59092919063ffffffff16565b600190505b9392505050565b8173ffffffffffffffffffffffffffffffffffffffff168373ffffffffffffffffffffffffffffffffffffffff161415612af4576040517f08c379a0000000000000000000000000000000000000000000000000000000008152600401612aeb90614823565b60405180910390fd5b80600560008573ffffffffffffffffffffffffffffffffffffffff1673ffffffffffffffffffffffffffffffffffffffff16815260200190815260200160002060008473ffffffffffffffffffffffffffffffffffffffff1673ffffffffffffffffffffffffffffffffffffffff16815260200190815260200160002060006101000a81548160ff0219169083151502179055508173ffffffffffffffffffffffffffffffffffffffff168373ffffffffffffffffffffffffffffffffffffffff167f17307eab39ab6107e8899845ad3d59bd9653f200f220920489ca2b5937696c3183604051612be591906146c6565b60405180910390a3505050565b612bfd84848461213a565b612c098484848461314b565b612c48576040517f08c379a0000000000000000000000000000000000000000000000000000000008152600401612c3f90614763565b60405180910390fd5b50505050565b606060405180602001604052806000815250905090565b6060612c7082611f8b565b6000612c7a612c4e565b90506000815111612c9a5760405180602001604052806000815250612cc5565b80612ca4846132e2565b604051602001612cb5929190614574565b6040516020818303038152906040525b915050919050565b6000811415612cdb57612e74565b612ce484613043565b15612e45573373ffffffffffffffffffffffffffffffffffffffff168373ffffffffffffffffffffffffffffffffffffffff16148015612d245750803410155b612d63576040517f08c379a0000000000000000000000000000000000000000000000000000000008152600401612d5a906148a3565b60405180910390fd5b3073ffffffffffffffffffffffffffffffffffffffff168273ffffffffffffffffffffffffffffffffffffffff1614612dde578173ffffffffffffffffffffffffffffffffffffffff166108fc829081150290604051600060405180830381858888f19350505050158015612ddc573d6000803e3d6000fd5b505b80341115612e40573373ffffffffffffffffffffffffffffffffffffffff166108fc612e13833461340690919063ffffffff16565b9081150290604051600060405180830381858888f19350505050158015612e3e573d6000803e3d6000fd5b505b612e73565b612e728383838773ffffffffffffffffffffffffffffffffffffffff1661341c909392919063ffffffff16565b5b5b50505050565b60008160000154905060008111612ec6576040517f08c379a0000000000000000000000000000000000000000000000000000000008152600401612ebd90614743565b60405180910390fd5b6001810382600001819055505050565b60008073ffffffffffffffffffffffffffffffffffffffff16612ef883612434565b73ffffffffffffffffffffffffffffffffffffffff1614159050919050565b600181111561303757600073ffffffffffffffffffffffffffffffffffffffff168473ffffffffffffffffffffffffffffffffffffffff1614612fab5780600360008673ffffffffffffffffffffffffffffffffffffffff1673ffffffffffffffffffffffffffffffffffffffff1681526020019081526020016000206000828254612fa39190614bc2565b925050819055505b600073ffffffffffffffffffffffffffffffffffffffff168373ffffffffffffffffffffffffffffffffffffffff16146130365780600360008573ffffffffffffffffffffffffffffffffffffffff1673ffffffffffffffffffffffffffffffffffffffff168152602001908152602001600020600082825461302e9190614b6c565b925050819055505b5b50505050565b50505050565b60008073ffffffffffffffffffffffffffffffffffffffff168273ffffffffffffffffffffffffffffffffffffffff1614806130be575073eeeeeeeeeeeeeeeeeeeeeeeeeeeeeeeeeeeeeeee73ffffffffffffffffffffffffffffffffffffffff168273ffffffffffffffffffffffffffffffffffffffff16145b9050919050565b6131468363a9059cbb60e01b84846040516024016130e492919061467b565b604051602081830303815290604052907bffffffffffffffffffffffffffffffffffffffffffffffffffffffff19166020820180517bffffffffffffffffffffffffffffffffffffffffffffffffffffffff83818316178352505050506134a5565b505050565b600061316c8473ffffffffffffffffffffffffffffffffffffffff1661356c565b156132d5578373ffffffffffffffffffffffffffffffffffffffff1663150b7a02613195611fd6565b8786866040518563ffffffff1660e01b81526004016131b7949392919061462f565b602060405180830381600087803b1580156131d157600080fd5b505af192505050801561320257506040513d601f19601f820116820180604052508101906131ff9190613e60565b60015b613285573d8060008114613232576040519150601f19603f3d011682016040523d82523d6000602084013e613237565b606091505b5060008151141561327d576040517f08c379a000000000000000000000000000000000000000000000000000000000815260040161327490614763565b60405180910390fd5b805181602001fd5b63150b7a0260e01b7bffffffffffffffffffffffffffffffffffffffffffffffffffffffff1916817bffffffffffffffffffffffffffffffffffffffffffffffffffffffff1916149150506132da565b600190505b949350505050565b6060600060016132f18461358f565b01905060008167ffffffffffffffff811115613336577f4e487b7100000000000000000000000000000000000000000000000000000000600052604160045260246000fd5b6040519080825280601f01601f1916602001820160405280156133685781602001600182028036833780820191505090505b509050600082602001820190505b6001156133fb578080600190039150507f3031323334353637383961626364656600000000000000000000000000000000600a86061a8153600a85816133e5577f4e487b7100000000000000000000000000000000000000000000000000000000600052601260045260246000fd5b04945060008514156133f6576133fb565b613376565b819350505050919050565b600081836134149190614bc2565b905092915050565b61349f846323b872dd60e01b85858560405160240161343d939291906145b3565b604051602081830303815290604052907bffffffffffffffffffffffffffffffffffffffffffffffffffffffff19166020820180517bffffffffffffffffffffffffffffffffffffffffffffffffffffffff83818316178352505050506134a5565b50505050565b6000613507826040518060400160405280602081526020017f5361666545524332303a206c6f772d6c6576656c2063616c6c206661696c65648152508573ffffffffffffffffffffffffffffffffffffffff166137c69092919063ffffffff16565b905060008151111561356757808060200190518101906135279190613e0e565b613566576040517f08c379a000000000000000000000000000000000000000000000000000000000815260040161355d90614a03565b60405180910390fd5b5b505050565b6000808273ffffffffffffffffffffffffffffffffffffffff163b119050919050565b600080600090507a184f03e93ff9f4daa797ed6e38ed64bf6a1f0100000000000000008310613613577a184f03e93ff9f4daa797ed6e38ed64bf6a1f0100000000000000008381613609577f4e487b7100000000000000000000000000000000000000000000000000000000600052601260045260246000fd5b0492506040810190505b6d04ee2d6d415b85acef81000000008310613676576d04ee2d6d415b85acef8100000000838161366c577f4e487b7100000000000000000000000000000000000000000000000000000000600052601260045260246000fd5b0492506020810190505b662386f26fc1000083106136cb57662386f26fc1000083816136c1577f4e487b7100000000000000000000000000000000000000000000000000000000600052601260045260246000fd5b0492506010810190505b6305f5e100831061371a576305f5e1008381613710577f4e487b7100000000000000000000000000000000000000000000000000000000600052601260045260246000fd5b0492506008810190505b612710831061376557612710838161375b577f4e487b7100000000000000000000000000000000000000000000000000000000600052601260045260246000fd5b0492506004810190505b606483106137ae57606483816137a4577f4e487b7100000000000000000000000000000000000000000000000000000000600052601260045260246000fd5b0492506002810190505b600a83106137bd576001810190505b80915050919050565b60606137d584846000856137de565b90509392505050565b606082471015613823576040517f08c379a000000000000000000000000000000000000000000000000000000000815260040161381a90614843565b60405180910390fd5b6000808673ffffffffffffffffffffffffffffffffffffffff16858760405161384c9190614546565b60006040518083038185875af1925050503d8060008114613889576040519150601f19603f3d011682016040523d82523d6000602084013e61388e565b606091505b509150915061389f878383876138ab565b92505050949350505050565b6060831561390e57600083511415613906576138c68561356c565b613905576040517f08c379a00000000000000000000000000000000000000000000000000000000081526004016138fc906149c3565b60405180910390fd5b5b829050613919565b6139188383613921565b5b949350505050565b6000825111156139345781518083602001fd5b806040517f08c379a000000000000000000000000000000000000000000000000000000000815260040161396891906146e1565b60405180910390fd5b6040518060a0016040528060008152602001600073ffffffffffffffffffffffffffffffffffffffff168152602001600073ffffffffffffffffffffffffffffffffffffffff168152602001600081526020016000151581525090565b8280546139da90614cbe565b90600052602060002090601f0160209004810192826139fc5760008555613a43565b82601f10613a1557805160ff1916838001178555613a43565b82800160010185558215613a43579182015b82811115613a42578251825591602001919060010190613a27565b5b509050613a509190613a54565b5090565b5b80821115613a6d576000816000905550600101613a55565b5090565b6000613a84613a7f84614a83565b614a5e565b905082815260208101848484011115613a9c57600080fd5b613aa7848285614c7c565b509392505050565b6000613ac2613abd84614ab4565b614a5e565b905082815260208101848484011115613ada57600080fd5b613ae5848285614c7c565b509392505050565b600081359050613afc8161546c565b92915050565b600081359050613b1181615483565b92915050565b600081519050613b2681615483565b92915050565b600081359050613b3b8161549a565b92915050565b600081519050613b508161549a565b92915050565b600082601f830112613b6757600080fd5b8135613b77848260208601613a71565b91505092915050565b600082601f830112613b9157600080fd5b8135613ba1848260208601613aaf565b91505092915050565b600081359050613bb9816154b1565b92915050565b600081519050613bce816154b1565b92915050565b600060208284031215613be657600080fd5b6000613bf484828501613aed565b91505092915050565b60008060408385031215613c1057600080fd5b6000613c1e85828601613aed565b9250506020613c2f85828601613aed565b9150509250929050565b600080600060608486031215613c4e57600080fd5b6000613c5c86828701613aed565b9350506020613c6d86828701613aed565b9250506040613c7e86828701613baa565b9150509250925092565b60008060008060808587031215613c9e57600080fd5b6000613cac87828801613aed565b9450506020613cbd87828801613aed565b9350506040613cce87828801613baa565b925050606085013567ffffffffffffffff811115613ceb57600080fd5b613cf787828801613b56565b91505092959194509250565b60008060408385031215613d1657600080fd5b6000613d2485828601613aed565b9250506020613d3585828601613b02565b9150509250929050565b60008060408385031215613d5257600080fd5b6000613d6085828601613aed565b9250506020613d7185828601613baa565b9150509250929050565b60008060008060808587031215613d9157600080fd5b6000613d9f87828801613aed565b9450506020613db087828801613baa565b935050604085013567ffffffffffffffff811115613dcd57600080fd5b613dd987828801613b80565b925050606085013567ffffffffffffffff811115613df657600080fd5b613e0287828801613b80565b91505092959194509250565b600060208284031215613e2057600080fd5b6000613e2e84828501613b17565b91505092915050565b600060208284031215613e4957600080fd5b6000613e5784828501613b2c565b91505092915050565b600060208284031215613e7257600080fd5b6000613e8084828501613b41565b91505092915050565b600060208284031215613e9b57600080fd5b600082013567ffffffffffffffff811115613eb557600080fd5b613ec184828501613b80565b91505092915050565b60008060408385031215613edd57600080fd5b600083013567ffffffffffffffff811115613ef757600080fd5b613f0385828601613b80565b9250506020613f1485828601613baa565b9150509250929050565b600060208284031215613f3057600080fd5b6000613f3e84828501613baa565b91505092915050565b600060208284031215613f5957600080fd5b6000613f6784828501613bbf565b91505092915050565b60008060408385031215613f8357600080fd5b6000613f9185828601613baa565b9250506020613fa285828601613baa565b9150509250929050565b6000613fb883836144c0565b60a08301905092915050565b613fcd81614c08565b82525050565b613fdc81614bf6565b82525050565b6000613fed82614af5565b613ff78185614b23565b935061400283614ae5565b8060005b8381101561403357815161401a8882613fac565b975061402583614b16565b925050600181019050614006565b5085935050505092915050565b61404981614c1a565b82525050565b61405881614c1a565b82525050565b600061406982614b00565b6140738185614b34565b9350614083818560208601614c8b565b61408c81614df7565b840191505092915050565b60006140a282614b00565b6140ac8185614b45565b93506140bc818560208601614c8b565b80840191505092915050565b60006140d382614b0b565b6140dd8185614b50565b93506140ed818560208601614c8b565b6140f681614df7565b840191505092915050565b600061410c82614b0b565b6141168185614b61565b9350614126818560208601614c8b565b80840191505092915050565b600061413f602d83614b50565b915061414a82614e08565b604082019050919050565b6000614162602f83614b50565b915061416d82614e57565b604082019050919050565b6000614185601b83614b50565b915061419082614ea6565b602082019050919050565b60006141a8603283614b50565b91506141b382614ecf565b604082019050919050565b60006141cb600f83614b50565b91506141d682614f1e565b602082019050919050565b60006141ee602583614b50565b91506141f982614f47565b604082019050919050565b6000614211601c83614b50565b915061421c82614f96565b602082019050919050565b6000614234600e83614b50565b915061423f82614fbf565b602082019050919050565b6000614257602483614b50565b915061426282614fe8565b604082019050919050565b600061427a601983614b50565b915061428582615037565b602082019050919050565b600061429d602683614b50565b91506142a882615060565b604082019050919050565b60006142c0602083614b50565b91506142cb826150af565b602082019050919050565b60006142e3602983614b50565b91506142ee826150d8565b604082019050919050565b6000614306602b83614b50565b915061431182615127565b604082019050919050565b6000614329602e83614b50565b915061433482615176565b604082019050919050565b600061434c602083614b50565b9150614357826151c5565b602082019050919050565b600061436f602a83614b50565b915061437a826151ee565b604082019050919050565b6000614392600d83614b50565b915061439d8261523d565b602082019050919050565b60006143b5601883614b50565b91506143c082615266565b602082019050919050565b60006143d8602183614b50565b91506143e38261528f565b604082019050919050565b60006143fb602483614b50565b9150614406826152de565b604082019050919050565b600061441e603d83614b50565b91506144298261532d565b604082019050919050565b6000614441601d83614b50565b915061444c8261537c565b602082019050919050565b6000614464603083614b50565b915061446f826153a5565b604082019050919050565b6000614487602a83614b50565b9150614492826153f4565b604082019050919050565b60006144aa601c83614b50565b91506144b582615443565b602082019050919050565b60a0820160008201516144d66000850182614528565b5060208201516144e96020850182613fc4565b5060408201516144fc6040850182613fc4565b50606082015161450f6060850182614528565b5060808201516145226080850182614040565b50505050565b61453181614c72565b82525050565b61454081614c72565b82525050565b60006145528284614097565b915081905092915050565b60006145698284614101565b915081905092915050565b60006145808285614101565b915061458c8284614101565b91508190509392505050565b60006020820190506145ad6000830184613fd3565b92915050565b60006060820190506145c86000830186613fd3565b6145d56020830185613fd3565b6145e26040830184614537565b949350505050565b60006080820190506145ff6000830187613fd3565b61460c6020830186613fd3565b6146196040830185614537565b614626606083018461404f565b95945050505050565b60006080820190506146446000830187613fd3565b6146516020830186613fd3565b61465e6040830185614537565b8181036060830152614670818461405e565b905095945050505050565b60006040820190506146906000830185613fd3565b61469d6020830184614537565b9392505050565b600060208201905081810360008301526146be8184613fe2565b905092915050565b60006020820190506146db600083018461404f565b92915050565b600060208201905081810360008301526146fb81846140c8565b905092915050565b6000602082019050818103600083015261471c81614132565b9050919050565b6000602082019050818103600083015261473c81614155565b9050919050565b6000602082019050818103600083015261475c81614178565b9050919050565b6000602082019050818103600083015261477c8161419b565b9050919050565b6000602082019050818103600083015261479c816141be565b9050919050565b600060208201905081810360008301526147bc816141e1565b9050919050565b600060208201905081810360008301526147dc81614204565b9050919050565b600060208201905081810360008301526147fc81614227565b9050919050565b6000602082019050818103600083015261481c8161424a565b9050919050565b6000602082019050818103600083015261483c8161426d565b9050919050565b6000602082019050818103600083015261485c81614290565b9050919050565b6000602082019050818103600083015261487c816142b3565b9050919050565b6000602082019050818103600083015261489c816142d6565b9050919050565b600060208201905081810360008301526148bc816142f9565b9050919050565b600060208201905081810360008301526148dc8161431c565b9050919050565b600060208201905081810360008301526148fc8161433f565b9050919050565b6000602082019050818103600083015261491c81614362565b9050919050565b6000602082019050818103600083015261493c81614385565b9050919050565b6000602082019050818103600083015261495c816143a8565b9050919050565b6000602082019050818103600083015261497c816143cb565b9050919050565b6000602082019050818103600083015261499c816143ee565b9050919050565b600060208201905081810360008301526149bc81614411565b9050919050565b600060208201905081810360008301526149dc81614434565b9050919050565b600060208201905081810360008301526149fc81614457565b9050919050565b60006020820190508181036000830152614a1c8161447a565b9050919050565b60006020820190508181036000830152614a3c8161449d565b9050919050565b6000602082019050614a586000830184614537565b92915050565b6000614a68614a79565b9050614a748282614cf0565b919050565b6000604051905090565b600067ffffffffffffffff821115614a9e57614a9d614dc8565b5b614aa782614df7565b9050602081019050919050565b600067ffffffffffffffff821115614acf57614ace614dc8565b5b614ad882614df7565b9050602081019050919050565b6000819050602082019050919050565b600081519050919050565b600081519050919050565b600081519050919050565b6000602082019050919050565b600082825260208201905092915050565b600082825260208201905092915050565b600081905092915050565b600082825260208201905092915050565b600081905092915050565b6000614b7782614c72565b9150614b8283614c72565b9250827fffffffffffffffffffffffffffffffffffffffffffffffffffffffffffffffff03821115614bb757614bb6614d6a565b5b828201905092915050565b6000614bcd82614c72565b9150614bd883614c72565b925082821015614beb57614bea614d6a565b5b828203905092915050565b6000614c0182614c52565b9050919050565b6000614c1382614c52565b9050919050565b60008115159050919050565b60007fffffffff0000000000000000000000000000000000000000000000000000000082169050919050565b600073ffffffffffffffffffffffffffffffffffffffff82169050919050565b6000819050919050565b82818337600083830152505050565b60005b83811015614ca9578082015181840152602081019050614c8e565b83811115614cb8576000848401525b50505050565b60006002820490506001821680614cd657607f821691505b60208210811415614cea57614ce9614d99565b5b50919050565b614cf982614df7565b810181811067ffffffffffffffff82111715614d1857614d17614dc8565b5b80604052505050565b6000614d2c82614c72565b91507fffffffffffffffffffffffffffffffffffffffffffffffffffffffffffffffff821415614d5f57614d5e614d6a565b5b600182019050919050565b7f4e487b7100000000000000000000000000000000000000000000000000000000600052601160045260246000fd5b7f4e487b7100000000000000000000000000000000000000000000000000000000600052602260045260246000fd5b7f4e487b7100000000000000000000000000000000000000000000000000000000600052604160045260246000fd5b6000601f19601f8301169050919050565b7f4552433732313a2063616c6c6572206973206e6f7420746f6b656e206f776e6560008201527f72206f7220617070726f76656400000000000000000000000000000000000000602082015250565b7f546865206f776e657220686173206e6f7420617070726f76656420746865207460008201527f6f6b656e20696420746f2073656c6c0000000000000000000000000000000000602082015250565b7f436f756e7465723a2064656372656d656e74206f766572666c6f770000000000600082015250565b7f4552433732313a207472616e7366657220746f206e6f6e20455243373231526560008201527f63656976657220696d706c656d656e7465720000000000000000000000000000602082015250565b7f62616c616e6365206973207a65726f0000000000000000000000000000000000600082015250565b7f4552433732313a207472616e736665722066726f6d20696e636f72726563742060008201527f6f776e6572000000000000000000000000000000000000000000000000000000602082015250565b7f4552433732313a20746f6b656e20616c7265616479206d696e74656400000000600082015250565b7f696e76616c696420616d6f756e74000000000000000000000000000000000000600082015250565b7f4552433732313a207472616e7366657220746f20746865207a65726f2061646460008201527f7265737300000000000000000000000000000000000000000000000000000000602082015250565b7f4552433732313a20617070726f766520746f2063616c6c657200000000000000600082015250565b7f416464726573733a20696e73756666696369656e742062616c616e636520666f60008201527f722063616c6c0000000000000000000000000000000000000000000000000000602082015250565b7f6d73672e73656e646572206d757374206265206f776e65722061646472657373600082015250565b7f4552433732313a2061646472657373207a65726f206973206e6f74206120766160008201527f6c6964206f776e65720000000000000000000000000000000000000000000000602082015250565b7f57726f6e6720757365616765206f66204554482e756e6976657273616c54726160008201527f6e7366657246726f6d2829000000000000000000000000000000000000000000602082015250565b7f45524337323155524953746f726167653a2055524920736574206f66206e6f6e60008201527f6578697374656e7420746f6b656e000000000000000000000000000000000000602082015250565b7f4552433732313a206d696e7420746f20746865207a65726f2061646472657373600082015250565b7f4f6e6c79206974656d206f776e65722063616e20706572666f726d207468697360008201527f206f7065726174696f6e00000000000000000000000000000000000000000000602082015250565b7f696e76616c696420746f6b656e00000000000000000000000000000000000000600082015250565b7f4552433732313a20696e76616c696420746f6b656e2049440000000000000000600082015250565b7f4552433732313a20617070726f76616c20746f2063757272656e74206f776e6560008201527f7200000000000000000000000000000000000000000000000000000000000000602082015250565b7f5072696365206d75737420626520657175616c20746f206c697374696e67207060008201527f7269636500000000000000000000000000000000000000000000000000000000602082015250565b7f4552433732313a20617070726f76652063616c6c6572206973206e6f7420746f60008201527f6b656e206f776e6572206f7220617070726f76656420666f7220616c6c000000602082015250565b7f416464726573733a2063616c6c20746f206e6f6e2d636f6e7472616374000000600082015250565b7f4f6e6c79206d61726b6574706c616365206f776e65722063616e20757064617460008201527f65206c697374696e672070726963652e00000000000000000000000000000000602082015250565b7f5361666545524332303a204552433230206f7065726174696f6e20646964206e60008201527f6f74207375636365656400000000000000000000000000000000000000000000602082015250565b7f5072696365206d757374206265206174206c6561737420312077656900000000600082015250565b61547581614bf6565b811461548057600080fd5b50565b61548c81614c1a565b811461549757600080fd5b50565b6154a381614c26565b81146154ae57600080fd5b50565b6154ba81614c72565b81146154c557600080fd5b5056fea26469706673582212205226d7b719bb9c09969cf6737ceedcfed8d9e4f0b637a9071f10ec611ecb659d64736f6c63430008040033",
  "linkReferences": {},
  "deployedLinkReferences": {}
}