{
  "_format": "hh-sol-artifact-1",
  "contractName": "NFTMarketplace",
  "sourceName": "contracts/NFTMarketplace.sol",
  "abi": [
    {
      "inputs": [],
      "stateMutability": "nonpayable",
      "type": "constructor"
    },
    {
      "anonymous": false,
      "inputs": [
        {
          "indexed": true,
          "internalType": "address",
          "name": "owner",
          "type": "address"
        },
        {
          "indexed": true,
          "internalType": "address",
          "name": "approved",
          "type": "address"
        },
        {
          "indexed": true,
          "internalType": "uint256",
          "name": "tokenId",
          "type": "uint256"
        }
      ],
      "name": "Approval",
      "type": "event"
    },
    {
      "anonymous": false,
      "inputs": [
        {
          "indexed": true,
          "internalType": "address",
          "name": "owner",
          "type": "address"
        },
        {
          "indexed": true,
          "internalType": "address",
          "name": "operator",
          "type": "address"
        },
        {
          "indexed": false,
          "internalType": "bool",
          "name": "approved",
          "type": "bool"
        }
      ],
      "name": "ApprovalForAll",
      "type": "event"
    },
    {
      "anonymous": false,
      "inputs": [
        {
          "indexed": true,
          "internalType": "uint256",
          "name": "tokenId",
          "type": "uint256"
        },
        {
          "indexed": false,
          "internalType": "address",
          "name": "seller",
          "type": "address"
        },
        {
          "indexed": false,
          "internalType": "address",
          "name": "owner",
          "type": "address"
        },
        {
          "indexed": false,
          "internalType": "uint256",
          "name": "price",
          "type": "uint256"
        },
        {
          "indexed": false,
          "internalType": "bool",
          "name": "sold",
          "type": "bool"
        }
      ],
      "name": "MarketItemCreated",
      "type": "event"
    },
    {
      "anonymous": false,
      "inputs": [
        {
          "indexed": true,
          "internalType": "address",
          "name": "from",
          "type": "address"
        },
        {
          "indexed": true,
          "internalType": "address",
          "name": "to",
          "type": "address"
        },
        {
          "indexed": true,
          "internalType": "uint256",
          "name": "tokenId",
          "type": "uint256"
        }
      ],
      "name": "Transfer",
      "type": "event"
    },
    {
      "inputs": [
        {
          "internalType": "address",
          "name": "to",
          "type": "address"
        },
        {
          "internalType": "uint256",
          "name": "tokenId",
          "type": "uint256"
        }
      ],
      "name": "approve",
      "outputs": [],
      "stateMutability": "nonpayable",
      "type": "function"
    },
    {
      "inputs": [
        {
          "internalType": "address",
          "name": "owner",
          "type": "address"
        }
      ],
      "name": "balanceOf",
      "outputs": [
        {
          "internalType": "uint256",
          "name": "",
          "type": "uint256"
        }
      ],
      "stateMutability": "view",
      "type": "function"
    },
    {
      "inputs": [
        {
          "internalType": "uint256",
          "name": "tokenId",
          "type": "uint256"
        }
      ],
      "name": "createMarketSale",
      "outputs": [],
      "stateMutability": "payable",
      "type": "function"
    },
    {
      "inputs": [
        {
          "internalType": "string",
          "name": "tokenURI",
          "type": "string"
        },
        {
          "internalType": "uint256",
          "name": "price",
          "type": "uint256"
        },
        {
          "internalType": "address",
          "name": "operator",
          "type": "address"
        },
        {
          "internalType": "bool",
          "name": "approved",
          "type": "bool"
        }
      ],
      "name": "createToken",
      "outputs": [
        {
          "internalType": "uint256",
          "name": "",
          "type": "uint256"
        }
      ],
      "stateMutability": "payable",
      "type": "function"
    },
    {
      "inputs": [],
      "name": "fetchItemsListed",
      "outputs": [
        {
          "components": [
            {
              "internalType": "uint256",
              "name": "tokenId",
              "type": "uint256"
            },
            {
              "internalType": "address payable",
              "name": "seller",
              "type": "address"
            },
            {
              "internalType": "address payable",
              "name": "owner",
              "type": "address"
            },
            {
              "internalType": "uint256",
              "name": "price",
              "type": "uint256"
            },
            {
              "internalType": "bool",
              "name": "sold",
              "type": "bool"
            }
          ],
          "internalType": "struct NFTMarketplace.MarketItem[]",
          "name": "",
          "type": "tuple[]"
        }
      ],
      "stateMutability": "view",
      "type": "function"
    },
    {
      "inputs": [],
      "name": "fetchMarketItems",
      "outputs": [
        {
          "components": [
            {
              "internalType": "uint256",
              "name": "tokenId",
              "type": "uint256"
            },
            {
              "internalType": "address payable",
              "name": "seller",
              "type": "address"
            },
            {
              "internalType": "address payable",
              "name": "owner",
              "type": "address"
            },
            {
              "internalType": "uint256",
              "name": "price",
              "type": "uint256"
            },
            {
              "internalType": "bool",
              "name": "sold",
              "type": "bool"
            }
          ],
          "internalType": "struct NFTMarketplace.MarketItem[]",
          "name": "",
          "type": "tuple[]"
        }
      ],
      "stateMutability": "view",
      "type": "function"
    },
    {
      "inputs": [],
      "name": "fetchMyNFTs",
      "outputs": [
        {
          "components": [
            {
              "internalType": "uint256",
              "name": "tokenId",
              "type": "uint256"
            },
            {
              "internalType": "address payable",
              "name": "seller",
              "type": "address"
            },
            {
              "internalType": "address payable",
              "name": "owner",
              "type": "address"
            },
            {
              "internalType": "uint256",
              "name": "price",
              "type": "uint256"
            },
            {
              "internalType": "bool",
              "name": "sold",
              "type": "bool"
            }
          ],
          "internalType": "struct NFTMarketplace.MarketItem[]",
          "name": "",
          "type": "tuple[]"
        }
      ],
      "stateMutability": "view",
      "type": "function"
    },
    {
      "inputs": [
        {
          "internalType": "uint256",
          "name": "tokenId",
          "type": "uint256"
        }
      ],
      "name": "getApproved",
      "outputs": [
        {
          "internalType": "address",
          "name": "",
          "type": "address"
        }
      ],
      "stateMutability": "view",
      "type": "function"
    },
    {
      "inputs": [],
      "name": "getListingPrice",
      "outputs": [
        {
          "internalType": "uint256",
          "name": "",
          "type": "uint256"
        }
      ],
      "stateMutability": "view",
      "type": "function"
    },
    {
      "inputs": [
        {
          "internalType": "address",
          "name": "owner",
          "type": "address"
        },
        {
          "internalType": "address",
          "name": "operator",
          "type": "address"
        }
      ],
      "name": "isApprovedForAll",
      "outputs": [
        {
          "internalType": "bool",
          "name": "",
          "type": "bool"
        }
      ],
      "stateMutability": "view",
      "type": "function"
    },
    {
      "inputs": [],
      "name": "name",
      "outputs": [
        {
          "internalType": "string",
          "name": "",
          "type": "string"
        }
      ],
      "stateMutability": "view",
      "type": "function"
    },
    {
      "inputs": [
        {
          "internalType": "uint256",
          "name": "tokenId",
          "type": "uint256"
        }
      ],
      "name": "ownerOf",
      "outputs": [
        {
          "internalType": "address",
          "name": "",
          "type": "address"
        }
      ],
      "stateMutability": "view",
      "type": "function"
    },
    {
      "inputs": [
        {
          "internalType": "uint256",
          "name": "tokenId",
          "type": "uint256"
        },
        {
          "internalType": "uint256",
          "name": "price",
          "type": "uint256"
        }
      ],
      "name": "resellToken",
      "outputs": [],
      "stateMutability": "payable",
      "type": "function"
    },
    {
      "inputs": [
        {
          "internalType": "address",
          "name": "from",
          "type": "address"
        },
        {
          "internalType": "address",
          "name": "to",
          "type": "address"
        },
        {
          "internalType": "uint256",
          "name": "tokenId",
          "type": "uint256"
        }
      ],
      "name": "safeTransferFrom",
      "outputs": [],
      "stateMutability": "nonpayable",
      "type": "function"
    },
    {
      "inputs": [
        {
          "internalType": "address",
          "name": "from",
          "type": "address"
        },
        {
          "internalType": "address",
          "name": "to",
          "type": "address"
        },
        {
          "internalType": "uint256",
          "name": "tokenId",
          "type": "uint256"
        },
        {
          "internalType": "bytes",
          "name": "data",
          "type": "bytes"
        }
      ],
      "name": "safeTransferFrom",
      "outputs": [],
      "stateMutability": "nonpayable",
      "type": "function"
    },
    {
      "inputs": [
        {
          "internalType": "address",
          "name": "operator",
          "type": "address"
        },
        {
          "internalType": "bool",
          "name": "approved",
          "type": "bool"
        }
      ],
      "name": "setApprovalForAll",
      "outputs": [],
      "stateMutability": "nonpayable",
      "type": "function"
    },
    {
      "inputs": [
        {
          "internalType": "bytes4",
          "name": "interfaceId",
          "type": "bytes4"
        }
      ],
      "name": "supportsInterface",
      "outputs": [
        {
          "internalType": "bool",
          "name": "",
          "type": "bool"
        }
      ],
      "stateMutability": "view",
      "type": "function"
    },
    {
      "inputs": [],
      "name": "symbol",
      "outputs": [
        {
          "internalType": "string",
          "name": "",
          "type": "string"
        }
      ],
      "stateMutability": "view",
      "type": "function"
    },
    {
      "inputs": [
        {
          "internalType": "uint256",
          "name": "tokenId",
          "type": "uint256"
        }
      ],
      "name": "tokenURI",
      "outputs": [
        {
          "internalType": "string",
          "name": "",
          "type": "string"
        }
      ],
      "stateMutability": "view",
      "type": "function"
    },
    {
      "inputs": [
        {
          "internalType": "address",
          "name": "from",
          "type": "address"
        },
        {
          "internalType": "address",
          "name": "to",
          "type": "address"
        },
        {
          "internalType": "uint256",
          "name": "tokenId",
          "type": "uint256"
        }
      ],
      "name": "transferFrom",
      "outputs": [],
      "stateMutability": "nonpayable",
      "type": "function"
    },
    {
      "inputs": [
        {
          "internalType": "uint256",
          "name": "_listingPrice",
          "type": "uint256"
        }
      ],
      "name": "updateListingPrice",
      "outputs": [],
      "stateMutability": "payable",
      "type": "function"
    }
  ],
  "bytecode": "0x60806040526658d15e176280006009553480156200001c57600080fd5b506040518060400160405280600c81526020017f5368617065204d61726b657400000000000000000000000000000000000000008152506040518060400160405280600381526020017f53485000000000000000000000000000000000000000000000000000000000008152508160009080519060200190620000a192919062000104565b508060019080519060200190620000ba92919062000104565b50505033600a60006101000a81548173ffffffffffffffffffffffffffffffffffffffff021916908373ffffffffffffffffffffffffffffffffffffffff16021790555062000219565b8280546200011290620001b4565b90600052602060002090601f01602090048101928262000136576000855562000182565b82601f106200015157805160ff191683800117855562000182565b8280016001018555821562000182579182015b828111156200018157825182559160200191906001019062000164565b5b50905062000191919062000195565b5090565b5b80821115620001b057600081600090555060010162000196565b5090565b60006002820490506001821680620001cd57607f821691505b60208210811415620001e457620001e3620001ea565b5b50919050565b7f4e487b7100000000000000000000000000000000000000000000000000000000600052602260045260246000fd5b61435c80620002296000396000f3fe60806040526004361061012a5760003560e01c806345f8fa80116100ab578063ae677aa31161006f578063ae677aa3146103f9578063b88d4fde14610415578063be9af5361461043e578063c87b56dd1461045a578063e219fc7514610497578063e985e9c5146104b35761012a565b806345f8fa80146103005780636352211e1461032b57806370a082311461036857806395d89b41146103a5578063a22cb465146103d05761012a565b806312e85585116100f257806312e855851461022857806315c9d7d514610253578063202e37401461028357806323b872dd146102ae57806342842e0e146102d75761012a565b806301ffc9a71461012f57806306fdde031461016c578063081812fc14610197578063095ea7b3146101d45780630f08efe0146101fd575b600080fd5b34801561013b57600080fd5b5061015660048036038101906101519190613174565b6104f0565b60405161016391906137e9565b60405180910390f35b34801561017857600080fd5b506101816105d2565b60405161018e9190613804565b60405180910390f35b3480156101a357600080fd5b506101be60048036038101906101b99190613241565b610664565b6040516101cb919061371b565b60405180910390f35b3480156101e057600080fd5b506101fb60048036038101906101f69190613138565b6106aa565b005b34801561020957600080fd5b506102126107c2565b60405161021f91906137c7565b60405180910390f35b34801561023457600080fd5b5061023d610a77565b60405161024a9190613a66565b60405180910390f35b61026d600480360381019061026891906131c6565b610a81565b60405161027a9190613a66565b60405180910390f35b34801561028f57600080fd5b50610298610ac7565b6040516102a591906137c7565b60405180910390f35b3480156102ba57600080fd5b506102d560048036038101906102d09190613032565b610e01565b005b3480156102e357600080fd5b506102fe60048036038101906102f99190613032565b610e61565b005b34801561030c57600080fd5b50610315610e81565b60405161032291906137c7565b60405180910390f35b34801561033757600080fd5b50610352600480360381019061034d9190613241565b6111bb565b60405161035f919061371b565b60405180910390f35b34801561037457600080fd5b5061038f600480360381019061038a9190612fcd565b611242565b60405161039c9190613a66565b60405180910390f35b3480156103b157600080fd5b506103ba6112fa565b6040516103c79190613804565b60405180910390f35b3480156103dc57600080fd5b506103f760048036038101906103f291906130fc565b61138c565b005b610413600480360381019061040e9190613241565b6113a2565b005b34801561042157600080fd5b5061043c60048036038101906104379190613081565b61143c565b005b61045860048036038101906104539190613241565b61149e565b005b34801561046657600080fd5b50610481600480360381019061047c9190613241565b6116d6565b60405161048e9190613804565b60405180910390f35b6104b160048036038101906104ac919061326a565b6117e9565b005b3480156104bf57600080fd5b506104da60048036038101906104d59190612ff6565b6119de565b6040516104e791906137e9565b60405180910390f35b60007f80ac58cd000000000000000000000000000000000000000000000000000000007bffffffffffffffffffffffffffffffffffffffffffffffffffffffff1916827bffffffffffffffffffffffffffffffffffffffffffffffffffffffff191614806105bb57507f5b5e139f000000000000000000000000000000000000000000000000000000007bffffffffffffffffffffffffffffffffffffffffffffffffffffffff1916827bffffffffffffffffffffffffffffffffffffffffffffffffffffffff1916145b806105cb57506105ca82611a72565b5b9050919050565b6060600080546105e190613cd6565b80601f016020809104026020016040519081016040528092919081815260200182805461060d90613cd6565b801561065a5780601f1061062f5761010080835404028352916020019161065a565b820191906000526020600020905b81548152906001019060200180831161063d57829003601f168201915b5050505050905090565b600061066f82611adc565b6004600083815260200190815260200160002060009054906101000a900473ffffffffffffffffffffffffffffffffffffffff169050919050565b60006106b5826111bb565b90508073ffffffffffffffffffffffffffffffffffffffff168373ffffffffffffffffffffffffffffffffffffffff161415610726576040517f08c379a000000000000000000000000000000000000000000000000000000000815260040161071d906139c6565b60405180910390fd5b8073ffffffffffffffffffffffffffffffffffffffff16610745611b27565b73ffffffffffffffffffffffffffffffffffffffff16148061077457506107738161076e611b27565b6119de565b5b6107b3576040517f08c379a00000000000000000000000000000000000000000000000000000000081526004016107aa90613a06565b60405180910390fd5b6107bd8383611b2f565b505050565b606060006107d06007611be8565b905060006107de6008611be8565b6107e86007611be8565b6107f29190613bda565b90506000808267ffffffffffffffff811115610837577f4e487b7100000000000000000000000000000000000000000000000000000000600052604160045260246000fd5b60405190808252806020026020018201604052801561087057816020015b61085d612d94565b8152602001906001900390816108555790505b50905060005b84811015610a6c573073ffffffffffffffffffffffffffffffffffffffff16600b60006001846108a69190613b84565b815260200190815260200160002060020160009054906101000a900473ffffffffffffffffffffffffffffffffffffffff1673ffffffffffffffffffffffffffffffffffffffff161415610a595760006001826109039190613b84565b90506000600b60008381526020019081526020016000209050806040518060a0016040529081600082015481526020016001820160009054906101000a900473ffffffffffffffffffffffffffffffffffffffff1673ffffffffffffffffffffffffffffffffffffffff1673ffffffffffffffffffffffffffffffffffffffff1681526020016002820160009054906101000a900473ffffffffffffffffffffffffffffffffffffffff1673ffffffffffffffffffffffffffffffffffffffff1673ffffffffffffffffffffffffffffffffffffffff168152602001600382015481526020016004820160009054906101000a900460ff161515151581525050848681518110610a3c577f4e487b7100000000000000000000000000000000000000000000000000000000600052603260045260246000fd5b6020026020010181905250600185610a549190613b84565b945050505b8080610a6490613d39565b915050610876565b508094505050505090565b6000600954905090565b6000610a8d6007611bf6565b6000610a996007611be8565b9050610aa53082611c0c565b610aaf8187611e2a565b610abb81868686611e9e565b80915050949350505050565b60606000610ad56007611be8565b905060008060005b83811015610b7e573373ffffffffffffffffffffffffffffffffffffffff16600b6000600184610b0d9190613b84565b815260200190815260200160002060020160009054906101000a900473ffffffffffffffffffffffffffffffffffffffff1673ffffffffffffffffffffffffffffffffffffffff161415610b6b57600183610b689190613b84565b92505b8080610b7690613d39565b915050610add565b5060008267ffffffffffffffff811115610bc1577f4e487b7100000000000000000000000000000000000000000000000000000000600052604160045260246000fd5b604051908082528060200260200182016040528015610bfa57816020015b610be7612d94565b815260200190600190039081610bdf5790505b50905060005b84811015610df6573373ffffffffffffffffffffffffffffffffffffffff16600b6000600184610c309190613b84565b815260200190815260200160002060020160009054906101000a900473ffffffffffffffffffffffffffffffffffffffff1673ffffffffffffffffffffffffffffffffffffffff161415610de3576000600182610c8d9190613b84565b90506000600b60008381526020019081526020016000209050806040518060a0016040529081600082015481526020016001820160009054906101000a900473ffffffffffffffffffffffffffffffffffffffff1673ffffffffffffffffffffffffffffffffffffffff1673ffffffffffffffffffffffffffffffffffffffff1681526020016002820160009054906101000a900473ffffffffffffffffffffffffffffffffffffffff1673ffffffffffffffffffffffffffffffffffffffff1673ffffffffffffffffffffffffffffffffffffffff168152602001600382015481526020016004820160009054906101000a900460ff161515151581525050848681518110610dc6577f4e487b7100000000000000000000000000000000000000000000000000000000600052603260045260246000fd5b6020026020010181905250600185610dde9190613b84565b945050505b8080610dee90613d39565b915050610c00565b508094505050505090565b610e12610e0c611b27565b826120a2565b610e51576040517f08c379a0000000000000000000000000000000000000000000000000000000008152600401610e4890613826565b60405180910390fd5b610e5c838383612137565b505050565b610e7c8383836040518060200160405280600081525061143c565b505050565b60606000610e8f6007611be8565b905060008060005b83811015610f38573373ffffffffffffffffffffffffffffffffffffffff16600b6000600184610ec79190613b84565b815260200190815260200160002060010160009054906101000a900473ffffffffffffffffffffffffffffffffffffffff1673ffffffffffffffffffffffffffffffffffffffff161415610f2557600183610f229190613b84565b92505b8080610f3090613d39565b915050610e97565b5060008267ffffffffffffffff811115610f7b577f4e487b7100000000000000000000000000000000000000000000000000000000600052604160045260246000fd5b604051908082528060200260200182016040528015610fb457816020015b610fa1612d94565b815260200190600190039081610f995790505b50905060005b848110156111b0573373ffffffffffffffffffffffffffffffffffffffff16600b6000600184610fea9190613b84565b815260200190815260200160002060010160009054906101000a900473ffffffffffffffffffffffffffffffffffffffff1673ffffffffffffffffffffffffffffffffffffffff16141561119d5760006001826110479190613b84565b90506000600b60008381526020019081526020016000209050806040518060a0016040529081600082015481526020016001820160009054906101000a900473ffffffffffffffffffffffffffffffffffffffff1673ffffffffffffffffffffffffffffffffffffffff1673ffffffffffffffffffffffffffffffffffffffff1681526020016002820160009054906101000a900473ffffffffffffffffffffffffffffffffffffffff1673ffffffffffffffffffffffffffffffffffffffff1673ffffffffffffffffffffffffffffffffffffffff168152602001600382015481526020016004820160009054906101000a900460ff161515151581525050848681518110611180577f4e487b7100000000000000000000000000000000000000000000000000000000600052603260045260246000fd5b60200260200101819052506001856111989190613b84565b945050505b80806111a890613d39565b915050610fba565b508094505050505090565b6000806111c783612431565b9050600073ffffffffffffffffffffffffffffffffffffffff168173ffffffffffffffffffffffffffffffffffffffff161415611239576040517f08c379a0000000000000000000000000000000000000000000000000000000008152600401611230906139a6565b60405180910390fd5b80915050919050565b60008073ffffffffffffffffffffffffffffffffffffffff168273ffffffffffffffffffffffffffffffffffffffff1614156112b3576040517f08c379a00000000000000000000000000000000000000000000000000000000081526004016112aa90613906565b60405180910390fd5b600360008373ffffffffffffffffffffffffffffffffffffffff1673ffffffffffffffffffffffffffffffffffffffff168152602001908152602001600020549050919050565b60606001805461130990613cd6565b80601f016020809104026020016040519081016040528092919081815260200182805461133590613cd6565b80156113825780601f1061135757610100808354040283529160200191611382565b820191906000526020600020905b81548152906001019060200180831161136557829003601f168201915b5050505050905090565b61139e611397611b27565b838361246e565b5050565b3373ffffffffffffffffffffffffffffffffffffffff16600a60009054906101000a900473ffffffffffffffffffffffffffffffffffffffff1673ffffffffffffffffffffffffffffffffffffffff1614611432576040517f08c379a000000000000000000000000000000000000000000000000000000000815260040161142990613a26565b60405180910390fd5b8060098190555050565b61144d611447611b27565b836120a2565b61148c576040517f08c379a000000000000000000000000000000000000000000000000000000000815260040161148390613826565b60405180910390fd5b611498848484846125db565b50505050565b6000600b60008381526020019081526020016000206003015490508034146114fb576040517f08c379a00000000000000000000000000000000000000000000000000000000081526004016114f290613946565b60405180910390fd5b33600b600084815260200190815260200160002060020160006101000a81548173ffffffffffffffffffffffffffffffffffffffff021916908373ffffffffffffffffffffffffffffffffffffffff1602179055506001600b600084815260200190815260200160002060040160006101000a81548160ff0219169083151502179055506000600b600084815260200190815260200160002060010160006101000a81548173ffffffffffffffffffffffffffffffffffffffff021916908373ffffffffffffffffffffffffffffffffffffffff1602179055506115df6008611bf6565b6115ea303384612137565b600a60009054906101000a900473ffffffffffffffffffffffffffffffffffffffff1673ffffffffffffffffffffffffffffffffffffffff166108fc6009549081150290604051600060405180830381858888f19350505050158015611654573d6000803e3d6000fd5b50600b600083815260200190815260200160002060010160009054906101000a900473ffffffffffffffffffffffffffffffffffffffff1673ffffffffffffffffffffffffffffffffffffffff166108fc349081150290604051600060405180830381858888f193505050501580156116d1573d6000803e3d6000fd5b505050565b60606116e182611adc565b600060066000848152602001908152602001600020805461170190613cd6565b80601f016020809104026020016040519081016040528092919081815260200182805461172d90613cd6565b801561177a5780601f1061174f5761010080835404028352916020019161177a565b820191906000526020600020905b81548152906001019060200180831161175d57829003601f168201915b50505050509050600061178b612637565b90506000815114156117a15781925050506117e4565b6000825111156117d65780826040516020016117be9291906136f7565b604051602081830303815290604052925050506117e4565b6117df8461264e565b925050505b919050565b3373ffffffffffffffffffffffffffffffffffffffff16600b600084815260200190815260200160002060020160009054906101000a900473ffffffffffffffffffffffffffffffffffffffff1673ffffffffffffffffffffffffffffffffffffffff161461188d576040517f08c379a000000000000000000000000000000000000000000000000000000000815260040161188490613986565b60405180910390fd5b60095434146118d1576040517f08c379a00000000000000000000000000000000000000000000000000000000081526004016118c8906139e6565b60405180910390fd5b6000600b600084815260200190815260200160002060040160006101000a81548160ff02191690831515021790555080600b60008481526020019081526020016000206003018190555033600b600084815260200190815260200160002060010160006101000a81548173ffffffffffffffffffffffffffffffffffffffff021916908373ffffffffffffffffffffffffffffffffffffffff16021790555030600b600084815260200190815260200160002060020160006101000a81548173ffffffffffffffffffffffffffffffffffffffff021916908373ffffffffffffffffffffffffffffffffffffffff1602179055506119cf60086126b6565b6119da333084612137565b5050565b6000600560008473ffffffffffffffffffffffffffffffffffffffff1673ffffffffffffffffffffffffffffffffffffffff16815260200190815260200160002060008373ffffffffffffffffffffffffffffffffffffffff1673ffffffffffffffffffffffffffffffffffffffff16815260200190815260200160002060009054906101000a900460ff16905092915050565b60007f01ffc9a7000000000000000000000000000000000000000000000000000000007bffffffffffffffffffffffffffffffffffffffffffffffffffffffff1916827bffffffffffffffffffffffffffffffffffffffffffffffffffffffff1916149050919050565b611ae581612712565b611b24576040517f08c379a0000000000000000000000000000000000000000000000000000000008152600401611b1b906139a6565b60405180910390fd5b50565b600033905090565b816004600083815260200190815260200160002060006101000a81548173ffffffffffffffffffffffffffffffffffffffff021916908373ffffffffffffffffffffffffffffffffffffffff160217905550808273ffffffffffffffffffffffffffffffffffffffff16611ba2836111bb565b73ffffffffffffffffffffffffffffffffffffffff167f8c5be1e5ebec7d5bd14f71427d1e84f3dd0314c0f7b2291e5b200ac8c7c3b92560405160405180910390a45050565b600081600001549050919050565b6001816000016000828254019250508190555050565b600073ffffffffffffffffffffffffffffffffffffffff168273ffffffffffffffffffffffffffffffffffffffff161415611c7c576040517f08c379a0000000000000000000000000000000000000000000000000000000008152600401611c7390613966565b60405180910390fd5b611c8581612712565b15611cc5576040517f08c379a0000000000000000000000000000000000000000000000000000000008152600401611cbc906138a6565b60405180910390fd5b611cd3600083836001612753565b611cdc81612712565b15611d1c576040517f08c379a0000000000000000000000000000000000000000000000000000000008152600401611d13906138a6565b60405180910390fd5b6001600360008473ffffffffffffffffffffffffffffffffffffffff1673ffffffffffffffffffffffffffffffffffffffff16815260200190815260200160002060008282540192505081905550816002600083815260200190815260200160002060006101000a81548173ffffffffffffffffffffffffffffffffffffffff021916908373ffffffffffffffffffffffffffffffffffffffff160217905550808273ffffffffffffffffffffffffffffffffffffffff16600073ffffffffffffffffffffffffffffffffffffffff167fddf252ad1be2c89b69c2b068fc378daa952ba7f163c4a11628f55a4df523b3ef60405160405180910390a4611e26600083836001612879565b5050565b611e3382612712565b611e72576040517f08c379a0000000000000000000000000000000000000000000000000000000008152600401611e6990613926565b60405180910390fd5b80600660008481526020019081526020016000209080519060200190611e99929190612df1565b505050565b60008311611ee1576040517f08c379a0000000000000000000000000000000000000000000000000000000008152600401611ed890613a46565b60405180910390fd5b6009543414611f25576040517f08c379a0000000000000000000000000000000000000000000000000000000008152600401611f1c906139e6565b60405180910390fd5b6040518060a001604052808581526020013373ffffffffffffffffffffffffffffffffffffffff1681526020013373ffffffffffffffffffffffffffffffffffffffff16815260200184815260200160001515815250600b60008681526020019081526020016000206000820151816000015560208201518160010160006101000a81548173ffffffffffffffffffffffffffffffffffffffff021916908373ffffffffffffffffffffffffffffffffffffffff16021790555060408201518160020160006101000a81548173ffffffffffffffffffffffffffffffffffffffff021916908373ffffffffffffffffffffffffffffffffffffffff1602179055506060820151816003015560808201518160040160006101000a81548160ff02191690831515021790555090505061205d828261138c565b837fb640004f1d14576d0c209e240cad0410e0d8c0c33a09375861fbadae2588a98d33338660006040516120949493929190613736565b60405180910390a250505050565b6000806120ae836111bb565b90508073ffffffffffffffffffffffffffffffffffffffff168473ffffffffffffffffffffffffffffffffffffffff1614806120f057506120ef81856119de565b5b8061212e57508373ffffffffffffffffffffffffffffffffffffffff1661211684610664565b73ffffffffffffffffffffffffffffffffffffffff16145b91505092915050565b8273ffffffffffffffffffffffffffffffffffffffff16612157826111bb565b73ffffffffffffffffffffffffffffffffffffffff16146121ad576040517f08c379a00000000000000000000000000000000000000000000000000000000081526004016121a490613886565b60405180910390fd5b600073ffffffffffffffffffffffffffffffffffffffff168273ffffffffffffffffffffffffffffffffffffffff16141561221d576040517f08c379a0000000000000000000000000000000000000000000000000000000008152600401612214906138c6565b60405180910390fd5b61222a8383836001612753565b8273ffffffffffffffffffffffffffffffffffffffff1661224a826111bb565b73ffffffffffffffffffffffffffffffffffffffff16146122a0576040517f08c379a000000000000000000000000000000000000000000000000000000000815260040161229790613886565b60405180910390fd5b6004600082815260200190815260200160002060006101000a81549073ffffffffffffffffffffffffffffffffffffffff02191690556001600360008573ffffffffffffffffffffffffffffffffffffffff1673ffffffffffffffffffffffffffffffffffffffff168152602001908152602001600020600082825403925050819055506001600360008473ffffffffffffffffffffffffffffffffffffffff1673ffffffffffffffffffffffffffffffffffffffff16815260200190815260200160002060008282540192505081905550816002600083815260200190815260200160002060006101000a81548173ffffffffffffffffffffffffffffffffffffffff021916908373ffffffffffffffffffffffffffffffffffffffff160217905550808273ffffffffffffffffffffffffffffffffffffffff168473ffffffffffffffffffffffffffffffffffffffff167fddf252ad1be2c89b69c2b068fc378daa952ba7f163c4a11628f55a4df523b3ef60405160405180910390a461242c8383836001612879565b505050565b60006002600083815260200190815260200160002060009054906101000a900473ffffffffffffffffffffffffffffffffffffffff169050919050565b8173ffffffffffffffffffffffffffffffffffffffff168373ffffffffffffffffffffffffffffffffffffffff1614156124dd576040517f08c379a00000000000000000000000000000000000000000000000000000000081526004016124d4906138e6565b60405180910390fd5b80600560008573ffffffffffffffffffffffffffffffffffffffff1673ffffffffffffffffffffffffffffffffffffffff16815260200190815260200160002060008473ffffffffffffffffffffffffffffffffffffffff1673ffffffffffffffffffffffffffffffffffffffff16815260200190815260200160002060006101000a81548160ff0219169083151502179055508173ffffffffffffffffffffffffffffffffffffffff168373ffffffffffffffffffffffffffffffffffffffff167f17307eab39ab6107e8899845ad3d59bd9653f200f220920489ca2b5937696c31836040516125ce91906137e9565b60405180910390a3505050565b6125e6848484612137565b6125f28484848461287f565b612631576040517f08c379a000000000000000000000000000000000000000000000000000000000815260040161262890613866565b60405180910390fd5b50505050565b606060405180602001604052806000815250905090565b606061265982611adc565b6000612663612637565b9050600081511161268357604051806020016040528060008152506126ae565b8061268d84612a16565b60405160200161269e9291906136f7565b6040516020818303038152906040525b915050919050565b60008160000154905060008111612702576040517f08c379a00000000000000000000000000000000000000000000000000000000081526004016126f990613846565b60405180910390fd5b6001810382600001819055505050565b60008073ffffffffffffffffffffffffffffffffffffffff1661273483612431565b73ffffffffffffffffffffffffffffffffffffffff1614159050919050565b600181111561287357600073ffffffffffffffffffffffffffffffffffffffff168473ffffffffffffffffffffffffffffffffffffffff16146127e75780600360008673ffffffffffffffffffffffffffffffffffffffff1673ffffffffffffffffffffffffffffffffffffffff16815260200190815260200160002060008282546127df9190613bda565b925050819055505b600073ffffffffffffffffffffffffffffffffffffffff168373ffffffffffffffffffffffffffffffffffffffff16146128725780600360008573ffffffffffffffffffffffffffffffffffffffff1673ffffffffffffffffffffffffffffffffffffffff168152602001908152602001600020600082825461286a9190613b84565b925050819055505b5b50505050565b50505050565b60006128a08473ffffffffffffffffffffffffffffffffffffffff16612b3a565b15612a09578373ffffffffffffffffffffffffffffffffffffffff1663150b7a026128c9611b27565b8786866040518563ffffffff1660e01b81526004016128eb949392919061377b565b602060405180830381600087803b15801561290557600080fd5b505af192505050801561293657506040513d601f19601f82011682018060405250810190612933919061319d565b60015b6129b9573d8060008114612966576040519150601f19603f3d011682016040523d82523d6000602084013e61296b565b606091505b506000815114156129b1576040517f08c379a00000000000000000000000000000000000000000000000000000000081526004016129a890613866565b60405180910390fd5b805181602001fd5b63150b7a0260e01b7bffffffffffffffffffffffffffffffffffffffffffffffffffffffff1916817bffffffffffffffffffffffffffffffffffffffffffffffffffffffff191614915050612a0e565b600190505b949350505050565b606060006001612a2584612b5d565b01905060008167ffffffffffffffff811115612a6a577f4e487b7100000000000000000000000000000000000000000000000000000000600052604160045260246000fd5b6040519080825280601f01601f191660200182016040528015612a9c5781602001600182028036833780820191505090505b509050600082602001820190505b600115612b2f578080600190039150507f3031323334353637383961626364656600000000000000000000000000000000600a86061a8153600a8581612b19577f4e487b7100000000000000000000000000000000000000000000000000000000600052601260045260246000fd5b0494506000851415612b2a57612b2f565b612aaa565b819350505050919050565b6000808273ffffffffffffffffffffffffffffffffffffffff163b119050919050565b600080600090507a184f03e93ff9f4daa797ed6e38ed64bf6a1f0100000000000000008310612be1577a184f03e93ff9f4daa797ed6e38ed64bf6a1f0100000000000000008381612bd7577f4e487b7100000000000000000000000000000000000000000000000000000000600052601260045260246000fd5b0492506040810190505b6d04ee2d6d415b85acef81000000008310612c44576d04ee2d6d415b85acef81000000008381612c3a577f4e487b7100000000000000000000000000000000000000000000000000000000600052601260045260246000fd5b0492506020810190505b662386f26fc100008310612c9957662386f26fc100008381612c8f577f4e487b7100000000000000000000000000000000000000000000000000000000600052601260045260246000fd5b0492506010810190505b6305f5e1008310612ce8576305f5e1008381612cde577f4e487b7100000000000000000000000000000000000000000000000000000000600052601260045260246000fd5b0492506008810190505b6127108310612d33576127108381612d29577f4e487b7100000000000000000000000000000000000000000000000000000000600052601260045260246000fd5b0492506004810190505b60648310612d7c5760648381612d72577f4e487b7100000000000000000000000000000000000000000000000000000000600052601260045260246000fd5b0492506002810190505b600a8310612d8b576001810190505b80915050919050565b6040518060a0016040528060008152602001600073ffffffffffffffffffffffffffffffffffffffff168152602001600073ffffffffffffffffffffffffffffffffffffffff168152602001600081526020016000151581525090565b828054612dfd90613cd6565b90600052602060002090601f016020900481019282612e1f5760008555612e66565b82601f10612e3857805160ff1916838001178555612e66565b82800160010185558215612e66579182015b82811115612e65578251825591602001919060010190612e4a565b5b509050612e739190612e77565b5090565b5b80821115612e90576000816000905550600101612e78565b5090565b6000612ea7612ea284613aa6565b613a81565b905082815260208101848484011115612ebf57600080fd5b612eca848285613c94565b509392505050565b6000612ee5612ee084613ad7565b613a81565b905082815260208101848484011115612efd57600080fd5b612f08848285613c94565b509392505050565b600081359050612f1f816142ca565b92915050565b600081359050612f34816142e1565b92915050565b600081359050612f49816142f8565b92915050565b600081519050612f5e816142f8565b92915050565b600082601f830112612f7557600080fd5b8135612f85848260208601612e94565b91505092915050565b600082601f830112612f9f57600080fd5b8135612faf848260208601612ed2565b91505092915050565b600081359050612fc78161430f565b92915050565b600060208284031215612fdf57600080fd5b6000612fed84828501612f10565b91505092915050565b6000806040838503121561300957600080fd5b600061301785828601612f10565b925050602061302885828601612f10565b9150509250929050565b60008060006060848603121561304757600080fd5b600061305586828701612f10565b935050602061306686828701612f10565b925050604061307786828701612fb8565b9150509250925092565b6000806000806080858703121561309757600080fd5b60006130a587828801612f10565b94505060206130b687828801612f10565b93505060406130c787828801612fb8565b925050606085013567ffffffffffffffff8111156130e457600080fd5b6130f087828801612f64565b91505092959194509250565b6000806040838503121561310f57600080fd5b600061311d85828601612f10565b925050602061312e85828601612f25565b9150509250929050565b6000806040838503121561314b57600080fd5b600061315985828601612f10565b925050602061316a85828601612fb8565b9150509250929050565b60006020828403121561318657600080fd5b600061319484828501612f3a565b91505092915050565b6000602082840312156131af57600080fd5b60006131bd84828501612f4f565b91505092915050565b600080600080608085870312156131dc57600080fd5b600085013567ffffffffffffffff8111156131f657600080fd5b61320287828801612f8e565b945050602061321387828801612fb8565b935050604061322487828801612f10565b925050606061323587828801612f25565b91505092959194509250565b60006020828403121561325357600080fd5b600061326184828501612fb8565b91505092915050565b6000806040838503121561327d57600080fd5b600061328b85828601612fb8565b925050602061329c85828601612fb8565b9150509250929050565b60006132b28383613671565b60a08301905092915050565b6132c781613c20565b82525050565b6132d681613c0e565b82525050565b60006132e782613b18565b6132f18185613b46565b93506132fc83613b08565b8060005b8381101561332d57815161331488826132a6565b975061331f83613b39565b925050600181019050613300565b5085935050505092915050565b61334381613c32565b82525050565b61335281613c32565b82525050565b600061336382613b23565b61336d8185613b57565b935061337d818560208601613ca3565b61338681613e0f565b840191505092915050565b600061339c82613b2e565b6133a68185613b68565b93506133b6818560208601613ca3565b6133bf81613e0f565b840191505092915050565b60006133d582613b2e565b6133df8185613b79565b93506133ef818560208601613ca3565b80840191505092915050565b6000613408602d83613b68565b915061341382613e20565b604082019050919050565b600061342b601b83613b68565b915061343682613e6f565b602082019050919050565b600061344e603283613b68565b915061345982613e98565b604082019050919050565b6000613471602583613b68565b915061347c82613ee7565b604082019050919050565b6000613494601c83613b68565b915061349f82613f36565b602082019050919050565b60006134b7602483613b68565b91506134c282613f5f565b604082019050919050565b60006134da601983613b68565b91506134e582613fae565b602082019050919050565b60006134fd602983613b68565b915061350882613fd7565b604082019050919050565b6000613520602e83613b68565b915061352b82614026565b604082019050919050565b6000613543604083613b68565b915061354e82614075565b604082019050919050565b6000613566602083613b68565b9150613571826140c4565b602082019050919050565b6000613589602a83613b68565b9150613594826140ed565b604082019050919050565b60006135ac601883613b68565b91506135b78261413c565b602082019050919050565b60006135cf602183613b68565b91506135da82614165565b604082019050919050565b60006135f2602483613b68565b91506135fd826141b4565b604082019050919050565b6000613615603d83613b68565b915061362082614203565b604082019050919050565b6000613638603083613b68565b915061364382614252565b604082019050919050565b600061365b601c83613b68565b9150613666826142a1565b602082019050919050565b60a08201600082015161368760008501826136d9565b50602082015161369a60208501826132be565b5060408201516136ad60408501826132be565b5060608201516136c060608501826136d9565b5060808201516136d3608085018261333a565b50505050565b6136e281613c8a565b82525050565b6136f181613c8a565b82525050565b600061370382856133ca565b915061370f82846133ca565b91508190509392505050565b600060208201905061373060008301846132cd565b92915050565b600060808201905061374b60008301876132cd565b61375860208301866132cd565b61376560408301856136e8565b6137726060830184613349565b95945050505050565b600060808201905061379060008301876132cd565b61379d60208301866132cd565b6137aa60408301856136e8565b81810360608301526137bc8184613358565b905095945050505050565b600060208201905081810360008301526137e181846132dc565b905092915050565b60006020820190506137fe6000830184613349565b92915050565b6000602082019050818103600083015261381e8184613391565b905092915050565b6000602082019050818103600083015261383f816133fb565b9050919050565b6000602082019050818103600083015261385f8161341e565b9050919050565b6000602082019050818103600083015261387f81613441565b9050919050565b6000602082019050818103600083015261389f81613464565b9050919050565b600060208201905081810360008301526138bf81613487565b9050919050565b600060208201905081810360008301526138df816134aa565b9050919050565b600060208201905081810360008301526138ff816134cd565b9050919050565b6000602082019050818103600083015261391f816134f0565b9050919050565b6000602082019050818103600083015261393f81613513565b9050919050565b6000602082019050818103600083015261395f81613536565b9050919050565b6000602082019050818103600083015261397f81613559565b9050919050565b6000602082019050818103600083015261399f8161357c565b9050919050565b600060208201905081810360008301526139bf8161359f565b9050919050565b600060208201905081810360008301526139df816135c2565b9050919050565b600060208201905081810360008301526139ff816135e5565b9050919050565b60006020820190508181036000830152613a1f81613608565b9050919050565b60006020820190508181036000830152613a3f8161362b565b9050919050565b60006020820190508181036000830152613a5f8161364e565b9050919050565b6000602082019050613a7b60008301846136e8565b92915050565b6000613a8b613a9c565b9050613a978282613d08565b919050565b6000604051905090565b600067ffffffffffffffff821115613ac157613ac0613de0565b5b613aca82613e0f565b9050602081019050919050565b600067ffffffffffffffff821115613af257613af1613de0565b5b613afb82613e0f565b9050602081019050919050565b6000819050602082019050919050565b600081519050919050565b600081519050919050565b600081519050919050565b6000602082019050919050565b600082825260208201905092915050565b600082825260208201905092915050565b600082825260208201905092915050565b600081905092915050565b6000613b8f82613c8a565b9150613b9a83613c8a565b9250827fffffffffffffffffffffffffffffffffffffffffffffffffffffffffffffffff03821115613bcf57613bce613d82565b5b828201905092915050565b6000613be582613c8a565b9150613bf083613c8a565b925082821015613c0357613c02613d82565b5b828203905092915050565b6000613c1982613c6a565b9050919050565b6000613c2b82613c6a565b9050919050565b60008115159050919050565b60007fffffffff0000000000000000000000000000000000000000000000000000000082169050919050565b600073ffffffffffffffffffffffffffffffffffffffff82169050919050565b6000819050919050565b82818337600083830152505050565b60005b83811015613cc1578082015181840152602081019050613ca6565b83811115613cd0576000848401525b50505050565b60006002820490506001821680613cee57607f821691505b60208210811415613d0257613d01613db1565b5b50919050565b613d1182613e0f565b810181811067ffffffffffffffff82111715613d3057613d2f613de0565b5b80604052505050565b6000613d4482613c8a565b91507fffffffffffffffffffffffffffffffffffffffffffffffffffffffffffffffff821415613d7757613d76613d82565b5b600182019050919050565b7f4e487b7100000000000000000000000000000000000000000000000000000000600052601160045260246000fd5b7f4e487b7100000000000000000000000000000000000000000000000000000000600052602260045260246000fd5b7f4e487b7100000000000000000000000000000000000000000000000000000000600052604160045260246000fd5b6000601f19601f8301169050919050565b7f4552433732313a2063616c6c6572206973206e6f7420746f6b656e206f776e6560008201527f72206f7220617070726f76656400000000000000000000000000000000000000602082015250565b7f436f756e7465723a2064656372656d656e74206f766572666c6f770000000000600082015250565b7f4552433732313a207472616e7366657220746f206e6f6e20455243373231526560008201527f63656976657220696d706c656d656e7465720000000000000000000000000000602082015250565b7f4552433732313a207472616e736665722066726f6d20696e636f72726563742060008201527f6f776e6572000000000000000000000000000000000000000000000000000000602082015250565b7f4552433732313a20746f6b656e20616c7265616479206d696e74656400000000600082015250565b7f4552433732313a207472616e7366657220746f20746865207a65726f2061646460008201527f7265737300000000000000000000000000000000000000000000000000000000602082015250565b7f4552433732313a20617070726f766520746f2063616c6c657200000000000000600082015250565b7f4552433732313a2061646472657373207a65726f206973206e6f74206120766160008201527f6c6964206f776e65720000000000000000000000000000000000000000000000602082015250565b7f45524337323155524953746f726167653a2055524920736574206f66206e6f6e60008201527f6578697374656e7420746f6b656e000000000000000000000000000000000000602082015250565b7f506c65617365207375626d6974207468652061736b696e67207072696365206960008201527f6e206f7264657220746f20636f6d706c65746520746865207075726368617365602082015250565b7f4552433732313a206d696e7420746f20746865207a65726f2061646472657373600082015250565b7f4f6e6c79206974656d206f776e65722063616e20706572666f726d207468697360008201527f206f7065726174696f6e00000000000000000000000000000000000000000000602082015250565b7f4552433732313a20696e76616c696420746f6b656e2049440000000000000000600082015250565b7f4552433732313a20617070726f76616c20746f2063757272656e74206f776e6560008201527f7200000000000000000000000000000000000000000000000000000000000000602082015250565b7f5072696365206d75737420626520657175616c20746f206c697374696e67207060008201527f7269636500000000000000000000000000000000000000000000000000000000602082015250565b7f4552433732313a20617070726f76652063616c6c6572206973206e6f7420746f60008201527f6b656e206f776e6572206f7220617070726f76656420666f7220616c6c000000602082015250565b7f4f6e6c79206d61726b6574706c616365206f776e65722063616e20757064617460008201527f65206c697374696e672070726963652e00000000000000000000000000000000602082015250565b7f5072696365206d757374206265206174206c6561737420312077656900000000600082015250565b6142d381613c0e565b81146142de57600080fd5b50565b6142ea81613c32565b81146142f557600080fd5b50565b61430181613c3e565b811461430c57600080fd5b50565b61431881613c8a565b811461432357600080fd5b5056fea2646970667358221220a7bc6a19ccf36a044db201c7676815e0246d9b0230df4f3622cb4a973b68b45464736f6c63430008040033",
  "linkReferences": {},
  "deployedLinkReferences": {}
}