{
  "_format": "hh-sol-artifact-1",
  "contractName": "NFTMarketplace",
  "sourceName": "contracts/NFTMarketplace.sol",
  "abi": [
    {
      "inputs": [],
      "stateMutability": "nonpayable",
      "type": "constructor"
    },
    {
      "anonymous": false,
      "inputs": [
        {
          "indexed": true,
          "internalType": "address",
          "name": "owner",
          "type": "address"
        },
        {
          "indexed": true,
          "internalType": "address",
          "name": "approved",
          "type": "address"
        },
        {
          "indexed": true,
          "internalType": "uint256",
          "name": "tokenId",
          "type": "uint256"
        }
      ],
      "name": "Approval",
      "type": "event"
    },
    {
      "anonymous": false,
      "inputs": [
        {
          "indexed": true,
          "internalType": "address",
          "name": "owner",
          "type": "address"
        },
        {
          "indexed": true,
          "internalType": "address",
          "name": "operator",
          "type": "address"
        },
        {
          "indexed": false,
          "internalType": "bool",
          "name": "approved",
          "type": "bool"
        }
      ],
      "name": "ApprovalForAll",
      "type": "event"
    },
    {
      "anonymous": false,
      "inputs": [
        {
          "indexed": true,
          "internalType": "uint256",
          "name": "tokenId",
          "type": "uint256"
        },
        {
          "indexed": false,
          "internalType": "address",
          "name": "seller",
          "type": "address"
        },
        {
          "indexed": false,
          "internalType": "address",
          "name": "owner",
          "type": "address"
        },
        {
          "indexed": false,
          "internalType": "uint256",
          "name": "price",
          "type": "uint256"
        },
        {
          "indexed": false,
          "internalType": "bool",
          "name": "sold",
          "type": "bool"
        }
      ],
      "name": "MarketItemCreated",
      "type": "event"
    },
    {
      "anonymous": false,
      "inputs": [
        {
          "indexed": false,
          "internalType": "address",
          "name": "tokenContract",
          "type": "address"
        },
        {
          "indexed": false,
          "internalType": "uint256",
          "name": "amount",
          "type": "uint256"
        }
      ],
      "name": "TokenWithdrawn",
      "type": "event"
    },
    {
      "anonymous": false,
      "inputs": [
        {
          "indexed": true,
          "internalType": "address",
          "name": "from",
          "type": "address"
        },
        {
          "indexed": true,
          "internalType": "address",
          "name": "to",
          "type": "address"
        },
        {
          "indexed": true,
          "internalType": "uint256",
          "name": "tokenId",
          "type": "uint256"
        }
      ],
      "name": "Transfer",
      "type": "event"
    },
    {
      "inputs": [
        {
          "internalType": "address",
          "name": "to",
          "type": "address"
        },
        {
          "internalType": "uint256",
          "name": "tokenId",
          "type": "uint256"
        }
      ],
      "name": "approve",
      "outputs": [],
      "stateMutability": "nonpayable",
      "type": "function"
    },
    {
      "inputs": [
        {
          "internalType": "address",
          "name": "owner",
          "type": "address"
        }
      ],
      "name": "balanceOf",
      "outputs": [
        {
          "internalType": "uint256",
          "name": "",
          "type": "uint256"
        }
      ],
      "stateMutability": "view",
      "type": "function"
    },
    {
      "inputs": [
        {
          "internalType": "uint256",
          "name": "tokenId",
          "type": "uint256"
        }
      ],
      "name": "createMarketSale",
      "outputs": [],
      "stateMutability": "payable",
      "type": "function"
    },
    {
      "inputs": [
        {
          "internalType": "string",
          "name": "tokenURI",
          "type": "string"
        },
        {
          "internalType": "uint256",
          "name": "price",
          "type": "uint256"
        }
      ],
      "name": "createToken",
      "outputs": [
        {
          "internalType": "uint256",
          "name": "",
          "type": "uint256"
        }
      ],
      "stateMutability": "payable",
      "type": "function"
    },
    {
      "inputs": [],
      "name": "fetchItemsListed",
      "outputs": [
        {
          "components": [
            {
              "internalType": "uint256",
              "name": "tokenId",
              "type": "uint256"
            },
            {
              "internalType": "address payable",
              "name": "seller",
              "type": "address"
            },
            {
              "internalType": "address payable",
              "name": "owner",
              "type": "address"
            },
            {
              "internalType": "uint256",
              "name": "price",
              "type": "uint256"
            },
            {
              "internalType": "bool",
              "name": "sold",
              "type": "bool"
            }
          ],
          "internalType": "struct NFTMarketplace.MarketItem[]",
          "name": "",
          "type": "tuple[]"
        }
      ],
      "stateMutability": "view",
      "type": "function"
    },
    {
      "inputs": [],
      "name": "fetchMarketItems",
      "outputs": [
        {
          "components": [
            {
              "internalType": "uint256",
              "name": "tokenId",
              "type": "uint256"
            },
            {
              "internalType": "address payable",
              "name": "seller",
              "type": "address"
            },
            {
              "internalType": "address payable",
              "name": "owner",
              "type": "address"
            },
            {
              "internalType": "uint256",
              "name": "price",
              "type": "uint256"
            },
            {
              "internalType": "bool",
              "name": "sold",
              "type": "bool"
            }
          ],
          "internalType": "struct NFTMarketplace.MarketItem[]",
          "name": "",
          "type": "tuple[]"
        }
      ],
      "stateMutability": "view",
      "type": "function"
    },
    {
      "inputs": [],
      "name": "fetchMyNFTs",
      "outputs": [
        {
          "components": [
            {
              "internalType": "uint256",
              "name": "tokenId",
              "type": "uint256"
            },
            {
              "internalType": "address payable",
              "name": "seller",
              "type": "address"
            },
            {
              "internalType": "address payable",
              "name": "owner",
              "type": "address"
            },
            {
              "internalType": "uint256",
              "name": "price",
              "type": "uint256"
            },
            {
              "internalType": "bool",
              "name": "sold",
              "type": "bool"
            }
          ],
          "internalType": "struct NFTMarketplace.MarketItem[]",
          "name": "",
          "type": "tuple[]"
        }
      ],
      "stateMutability": "view",
      "type": "function"
    },
    {
      "inputs": [
        {
          "internalType": "uint256",
          "name": "tokenId",
          "type": "uint256"
        }
      ],
      "name": "getApproved",
      "outputs": [
        {
          "internalType": "address",
          "name": "",
          "type": "address"
        }
      ],
      "stateMutability": "view",
      "type": "function"
    },
    {
      "inputs": [],
      "name": "getListingPrice",
      "outputs": [
        {
          "internalType": "uint256",
          "name": "",
          "type": "uint256"
        }
      ],
      "stateMutability": "view",
      "type": "function"
    },
    {
      "inputs": [
        {
          "internalType": "address",
          "name": "owner",
          "type": "address"
        },
        {
          "internalType": "address",
          "name": "operator",
          "type": "address"
        }
      ],
      "name": "isApprovedForAll",
      "outputs": [
        {
          "internalType": "bool",
          "name": "",
          "type": "bool"
        }
      ],
      "stateMutability": "view",
      "type": "function"
    },
    {
      "inputs": [],
      "name": "name",
      "outputs": [
        {
          "internalType": "string",
          "name": "",
          "type": "string"
        }
      ],
      "stateMutability": "view",
      "type": "function"
    },
    {
      "inputs": [
        {
          "internalType": "uint256",
          "name": "tokenId",
          "type": "uint256"
        }
      ],
      "name": "ownerOf",
      "outputs": [
        {
          "internalType": "address",
          "name": "",
          "type": "address"
        }
      ],
      "stateMutability": "view",
      "type": "function"
    },
    {
      "inputs": [
        {
          "internalType": "address",
          "name": "receiveToken",
          "type": "address"
        },
        {
          "internalType": "uint256",
          "name": "amount",
          "type": "uint256"
        },
        {
          "internalType": "string",
          "name": "paymentId",
          "type": "string"
        },
        {
          "internalType": "string",
          "name": "optional",
          "type": "string"
        }
      ],
      "name": "receivePayment",
      "outputs": [],
      "stateMutability": "payable",
      "type": "function"
    },
    {
      "inputs": [
        {
          "internalType": "uint256",
          "name": "tokenId",
          "type": "uint256"
        },
        {
          "internalType": "uint256",
          "name": "price",
          "type": "uint256"
        }
      ],
      "name": "resellToken",
      "outputs": [],
      "stateMutability": "payable",
      "type": "function"
    },
    {
      "inputs": [
        {
          "internalType": "address",
          "name": "from",
          "type": "address"
        },
        {
          "internalType": "address",
          "name": "to",
          "type": "address"
        },
        {
          "internalType": "uint256",
          "name": "tokenId",
          "type": "uint256"
        }
      ],
      "name": "safeTransferFrom",
      "outputs": [],
      "stateMutability": "nonpayable",
      "type": "function"
    },
    {
      "inputs": [
        {
          "internalType": "address",
          "name": "from",
          "type": "address"
        },
        {
          "internalType": "address",
          "name": "to",
          "type": "address"
        },
        {
          "internalType": "uint256",
          "name": "tokenId",
          "type": "uint256"
        },
        {
          "internalType": "bytes",
          "name": "data",
          "type": "bytes"
        }
      ],
      "name": "safeTransferFrom",
      "outputs": [],
      "stateMutability": "nonpayable",
      "type": "function"
    },
    {
      "inputs": [
        {
          "internalType": "address",
          "name": "operator",
          "type": "address"
        },
        {
          "internalType": "bool",
          "name": "approved",
          "type": "bool"
        }
      ],
      "name": "setApprovalForAll",
      "outputs": [],
      "stateMutability": "nonpayable",
      "type": "function"
    },
    {
      "inputs": [],
      "name": "supportSlashExtensionInterface",
      "outputs": [
        {
          "internalType": "bool",
          "name": "",
          "type": "bool"
        }
      ],
      "stateMutability": "pure",
      "type": "function"
    },
    {
      "inputs": [
        {
          "internalType": "bytes4",
          "name": "interfaceId",
          "type": "bytes4"
        }
      ],
      "name": "supportsInterface",
      "outputs": [
        {
          "internalType": "bool",
          "name": "",
          "type": "bool"
        }
      ],
      "stateMutability": "view",
      "type": "function"
    },
    {
      "inputs": [],
      "name": "symbol",
      "outputs": [
        {
          "internalType": "string",
          "name": "",
          "type": "string"
        }
      ],
      "stateMutability": "view",
      "type": "function"
    },
    {
      "inputs": [
        {
          "internalType": "uint256",
          "name": "tokenId",
          "type": "uint256"
        }
      ],
      "name": "tokenURI",
      "outputs": [
        {
          "internalType": "string",
          "name": "",
          "type": "string"
        }
      ],
      "stateMutability": "view",
      "type": "function"
    },
    {
      "inputs": [
        {
          "internalType": "address",
          "name": "from",
          "type": "address"
        },
        {
          "internalType": "address",
          "name": "to",
          "type": "address"
        },
        {
          "internalType": "uint256",
          "name": "tokenId",
          "type": "uint256"
        }
      ],
      "name": "transferFrom",
      "outputs": [],
      "stateMutability": "nonpayable",
      "type": "function"
    },
    {
      "inputs": [
        {
          "internalType": "uint256",
          "name": "_listingPrice",
          "type": "uint256"
        }
      ],
      "name": "updateListingPrice",
      "outputs": [],
      "stateMutability": "payable",
      "type": "function"
    },
    {
      "inputs": [
        {
          "internalType": "address",
          "name": "tokenAddress",
          "type": "address"
        }
      ],
      "name": "withdrawToken",
      "outputs": [],
      "stateMutability": "nonpayable",
      "type": "function"
    }
  ],
  "bytecode": "0x60806040526658d15e176280006009553480156200001c57600080fd5b506040518060400160405280600c81526020017f5368617065204d61726b657400000000000000000000000000000000000000008152506040518060400160405280600381526020017f53485000000000000000000000000000000000000000000000000000000000008152508160009080519060200190620000a192919062000104565b508060019080519060200190620000ba92919062000104565b50505033600a60006101000a81548173ffffffffffffffffffffffffffffffffffffffff021916908373ffffffffffffffffffffffffffffffffffffffff16021790555062000219565b8280546200011290620001b4565b90600052602060002090601f01602090048101928262000136576000855562000182565b82601f106200015157805160ff191683800117855562000182565b8280016001018555821562000182579182015b828111156200018157825182559160200191906001019062000164565b5b50905062000191919062000195565b5090565b5b80821115620001b057600081600090555060010162000196565b5090565b60006002820490506001821680620001cd57607f821691505b60208210811415620001e457620001e3620001ea565b5b50919050565b7f4e487b7100000000000000000000000000000000000000000000000000000000600052602260045260246000fd5b614f4a80620002296000396000f3fe60806040526004361061014b5760003560e01c806372b3b620116100b6578063b88d4fde1161006f578063b88d4fde1461048a578063be9af536146104b3578063c87b56dd146104cf578063cfd8864c1461050c578063e219fc7514610528578063e985e9c5146105445761014b565b806372b3b6201461039657806389476069146103c65780638ab43142146103ef57806395d89b411461041a578063a22cb46514610445578063ae677aa31461046e5761014b565b8063202e374011610108578063202e37401461027457806323b872dd1461029f57806342842e0e146102c857806345f8fa80146102f15780636352211e1461031c57806370a08231146103595761014b565b806301ffc9a71461015057806306fdde031461018d578063081812fc146101b8578063095ea7b3146101f55780630f08efe01461021e57806312e8558514610249575b600080fd5b34801561015c57600080fd5b50610177600480360381019061017291906139ea565b610581565b60405161018491906141a4565b60405180910390f35b34801561019957600080fd5b506101a2610663565b6040516101af91906141bf565b60405180910390f35b3480156101c457600080fd5b506101df60048036038101906101da9190613a90565b6106f5565b6040516101ec91906140ad565b60405180910390f35b34801561020157600080fd5b5061021c600480360381019061021791906138f2565b61073b565b005b34801561022a57600080fd5b50610233610853565b6040516102409190614182565b60405180910390f35b34801561025557600080fd5b5061025e610b08565b60405161026b91906144e1565b60405180910390f35b34801561028057600080fd5b50610289610b12565b6040516102969190614182565b60405180910390f35b3480156102ab57600080fd5b506102c660048036038101906102c191906137ec565b610e4c565b005b3480156102d457600080fd5b506102ef60048036038101906102ea91906137ec565b610eac565b005b3480156102fd57600080fd5b50610306610ecc565b6040516103139190614182565b60405180910390f35b34801561032857600080fd5b50610343600480360381019061033e9190613a90565b611206565b60405161035091906140ad565b60405180910390f35b34801561036557600080fd5b50610380600480360381019061037b9190613787565b61128d565b60405161038d91906144e1565b60405180910390f35b6103b060048036038101906103ab9190613a3c565b611345565b6040516103bd91906144e1565b60405180910390f35b3480156103d257600080fd5b506103ed60048036038101906103e89190613787565b611387565b005b3480156103fb57600080fd5b5061040461153a565b60405161041191906141a4565b60405180910390f35b34801561042657600080fd5b5061042f611543565b60405161043c91906141bf565b60405180910390f35b34801561045157600080fd5b5061046c600480360381019061046791906138b6565b6115d5565b005b61048860048036038101906104839190613a90565b6115eb565b005b34801561049657600080fd5b506104b160048036038101906104ac919061383b565b611685565b005b6104cd60048036038101906104c89190613a90565b6116e7565b005b3480156104db57600080fd5b506104f660048036038101906104f19190613a90565b61197e565b60405161050391906141bf565b60405180910390f35b6105266004803603810190610521919061392e565b611a91565b005b610542600480360381019061053d9190613ae2565b611a97565b005b34801561055057600080fd5b5061056b600480360381019061056691906137b0565b611c8c565b60405161057891906141a4565b60405180910390f35b60007f80ac58cd000000000000000000000000000000000000000000000000000000007bffffffffffffffffffffffffffffffffffffffffffffffffffffffff1916827bffffffffffffffffffffffffffffffffffffffffffffffffffffffff1916148061064c57507f5b5e139f000000000000000000000000000000000000000000000000000000007bffffffffffffffffffffffffffffffffffffffffffffffffffffffff1916827bffffffffffffffffffffffffffffffffffffffffffffffffffffffff1916145b8061065c575061065b82611d20565b5b9050919050565b6060600080546106729061475c565b80601f016020809104026020016040519081016040528092919081815260200182805461069e9061475c565b80156106eb5780601f106106c0576101008083540402835291602001916106eb565b820191906000526020600020905b8154815290600101906020018083116106ce57829003601f168201915b5050505050905090565b600061070082611d8a565b6004600083815260200190815260200160002060009054906101000a900473ffffffffffffffffffffffffffffffffffffffff169050919050565b600061074682611206565b90508073ffffffffffffffffffffffffffffffffffffffff168373ffffffffffffffffffffffffffffffffffffffff1614156107b7576040517f08c379a00000000000000000000000000000000000000000000000000000000081526004016107ae90614401565b60405180910390fd5b8073ffffffffffffffffffffffffffffffffffffffff166107d6611dd5565b73ffffffffffffffffffffffffffffffffffffffff1614806108055750610804816107ff611dd5565b611c8c565b5b610844576040517f08c379a000000000000000000000000000000000000000000000000000000000815260040161083b90614441565b60405180910390fd5b61084e8383611ddd565b505050565b606060006108616007611e96565b9050600061086f6008611e96565b6108796007611e96565b6108839190614660565b90506000808267ffffffffffffffff8111156108c8577f4e487b7100000000000000000000000000000000000000000000000000000000600052604160045260246000fd5b60405190808252806020026020018201604052801561090157816020015b6108ee613524565b8152602001906001900390816108e65790505b50905060005b84811015610afd573073ffffffffffffffffffffffffffffffffffffffff16600b6000600184610937919061460a565b815260200190815260200160002060020160009054906101000a900473ffffffffffffffffffffffffffffffffffffffff1673ffffffffffffffffffffffffffffffffffffffff161415610aea576000600182610994919061460a565b90506000600b60008381526020019081526020016000209050806040518060a0016040529081600082015481526020016001820160009054906101000a900473ffffffffffffffffffffffffffffffffffffffff1673ffffffffffffffffffffffffffffffffffffffff1673ffffffffffffffffffffffffffffffffffffffff1681526020016002820160009054906101000a900473ffffffffffffffffffffffffffffffffffffffff1673ffffffffffffffffffffffffffffffffffffffff1673ffffffffffffffffffffffffffffffffffffffff168152602001600382015481526020016004820160009054906101000a900460ff161515151581525050848681518110610acd577f4e487b7100000000000000000000000000000000000000000000000000000000600052603260045260246000fd5b6020026020010181905250600185610ae5919061460a565b945050505b8080610af5906147bf565b915050610907565b508094505050505090565b6000600954905090565b60606000610b206007611e96565b905060008060005b83811015610bc9573373ffffffffffffffffffffffffffffffffffffffff16600b6000600184610b58919061460a565b815260200190815260200160002060020160009054906101000a900473ffffffffffffffffffffffffffffffffffffffff1673ffffffffffffffffffffffffffffffffffffffff161415610bb657600183610bb3919061460a565b92505b8080610bc1906147bf565b915050610b28565b5060008267ffffffffffffffff811115610c0c577f4e487b7100000000000000000000000000000000000000000000000000000000600052604160045260246000fd5b604051908082528060200260200182016040528015610c4557816020015b610c32613524565b815260200190600190039081610c2a5790505b50905060005b84811015610e41573373ffffffffffffffffffffffffffffffffffffffff16600b6000600184610c7b919061460a565b815260200190815260200160002060020160009054906101000a900473ffffffffffffffffffffffffffffffffffffffff1673ffffffffffffffffffffffffffffffffffffffff161415610e2e576000600182610cd8919061460a565b90506000600b60008381526020019081526020016000209050806040518060a0016040529081600082015481526020016001820160009054906101000a900473ffffffffffffffffffffffffffffffffffffffff1673ffffffffffffffffffffffffffffffffffffffff1673ffffffffffffffffffffffffffffffffffffffff1681526020016002820160009054906101000a900473ffffffffffffffffffffffffffffffffffffffff1673ffffffffffffffffffffffffffffffffffffffff1673ffffffffffffffffffffffffffffffffffffffff168152602001600382015481526020016004820160009054906101000a900460ff161515151581525050848681518110610e11577f4e487b7100000000000000000000000000000000000000000000000000000000600052603260045260246000fd5b6020026020010181905250600185610e29919061460a565b945050505b8080610e39906147bf565b915050610c4b565b508094505050505090565b610e5d610e57611dd5565b82611ea4565b610e9c576040517f08c379a0000000000000000000000000000000000000000000000000000000008152600401610e93906141e1565b60405180910390fd5b610ea7838383611f39565b505050565b610ec783838360405180602001604052806000815250611685565b505050565b60606000610eda6007611e96565b905060008060005b83811015610f83573373ffffffffffffffffffffffffffffffffffffffff16600b6000600184610f12919061460a565b815260200190815260200160002060010160009054906101000a900473ffffffffffffffffffffffffffffffffffffffff1673ffffffffffffffffffffffffffffffffffffffff161415610f7057600183610f6d919061460a565b92505b8080610f7b906147bf565b915050610ee2565b5060008267ffffffffffffffff811115610fc6577f4e487b7100000000000000000000000000000000000000000000000000000000600052604160045260246000fd5b604051908082528060200260200182016040528015610fff57816020015b610fec613524565b815260200190600190039081610fe45790505b50905060005b848110156111fb573373ffffffffffffffffffffffffffffffffffffffff16600b6000600184611035919061460a565b815260200190815260200160002060010160009054906101000a900473ffffffffffffffffffffffffffffffffffffffff1673ffffffffffffffffffffffffffffffffffffffff1614156111e8576000600182611092919061460a565b90506000600b60008381526020019081526020016000209050806040518060a0016040529081600082015481526020016001820160009054906101000a900473ffffffffffffffffffffffffffffffffffffffff1673ffffffffffffffffffffffffffffffffffffffff1673ffffffffffffffffffffffffffffffffffffffff1681526020016002820160009054906101000a900473ffffffffffffffffffffffffffffffffffffffff1673ffffffffffffffffffffffffffffffffffffffff1673ffffffffffffffffffffffffffffffffffffffff168152602001600382015481526020016004820160009054906101000a900460ff1615151515815250508486815181106111cb577f4e487b7100000000000000000000000000000000000000000000000000000000600052603260045260246000fd5b60200260200101819052506001856111e3919061460a565b945050505b80806111f3906147bf565b915050611005565b508094505050505090565b60008061121283612233565b9050600073ffffffffffffffffffffffffffffffffffffffff168173ffffffffffffffffffffffffffffffffffffffff161415611284576040517f08c379a000000000000000000000000000000000000000000000000000000000815260040161127b906143e1565b60405180910390fd5b80915050919050565b60008073ffffffffffffffffffffffffffffffffffffffff168273ffffffffffffffffffffffffffffffffffffffff1614156112fe576040517f08c379a00000000000000000000000000000000000000000000000000000000081526004016112f590614341565b60405180910390fd5b600360008373ffffffffffffffffffffffffffffffffffffffff1673ffffffffffffffffffffffffffffffffffffffff168152602001908152602001600020549050919050565b60006113516007612270565b600061135d6007611e96565b90506113693382612286565b61137381856124a4565b61137d8184612518565b8091505092915050565b60006113b2308373ffffffffffffffffffffffffffffffffffffffff1661271b90919063ffffffff16565b116113f2576040517f08c379a00000000000000000000000000000000000000000000000000000000081526004016113e990614261565b60405180910390fd5b600a60009054906101000a900473ffffffffffffffffffffffffffffffffffffffff1673ffffffffffffffffffffffffffffffffffffffff163373ffffffffffffffffffffffffffffffffffffffff1614611482576040517f08c379a000000000000000000000000000000000000000000000000000000000815260040161147990614321565b60405180910390fd5b6114d5336114af308473ffffffffffffffffffffffffffffffffffffffff1661271b90919063ffffffff16565b8373ffffffffffffffffffffffffffffffffffffffff166127dc9092919063ffffffff16565b507fa2bd9fcfcdba69f52bcd9a520846ad4bd685b187483f53efc42d035b2ddebff081611521308473ffffffffffffffffffffffffffffffffffffffff1661271b90919063ffffffff16565b60405161152f929190614159565b60405180910390a150565b60006001905090565b6060600180546115529061475c565b80601f016020809104026020016040519081016040528092919081815260200182805461157e9061475c565b80156115cb5780601f106115a0576101008083540402835291602001916115cb565b820191906000526020600020905b8154815290600101906020018083116115ae57829003601f168201915b5050505050905090565b6115e76115e0611dd5565b8383612884565b5050565b3373ffffffffffffffffffffffffffffffffffffffff16600a60009054906101000a900473ffffffffffffffffffffffffffffffffffffffff1673ffffffffffffffffffffffffffffffffffffffff161461167b576040517f08c379a000000000000000000000000000000000000000000000000000000000815260040161167290614481565b60405180910390fd5b8060098190555050565b611696611690611dd5565b83611ea4565b6116d5576040517f08c379a00000000000000000000000000000000000000000000000000000000081526004016116cc906141e1565b60405180910390fd5b6116e1848484846129f1565b50505050565b6000600b6000838152602001908152602001600020600301549050803414611744576040517f08c379a000000000000000000000000000000000000000000000000000000000815260040161173b90614381565b60405180910390fd5b61175661175083611206565b30611c8c565b611795576040517f08c379a000000000000000000000000000000000000000000000000000000000815260040161178c90614201565b60405180910390fd5b60006117a083611206565b905033600b600085815260200190815260200160002060020160006101000a81548173ffffffffffffffffffffffffffffffffffffffff021916908373ffffffffffffffffffffffffffffffffffffffff1602179055506001600b600085815260200190815260200160002060040160006101000a81548160ff0219169083151502179055506000600b600085815260200190815260200160002060010160006101000a81548173ffffffffffffffffffffffffffffffffffffffff021916908373ffffffffffffffffffffffffffffffffffffffff1602179055506118866008612270565b611891813385611f39565b600a60009054906101000a900473ffffffffffffffffffffffffffffffffffffffff1673ffffffffffffffffffffffffffffffffffffffff166108fc6009549081150290604051600060405180830381858888f193505050501580156118fb573d6000803e3d6000fd5b50600b600084815260200190815260200160002060010160009054906101000a900473ffffffffffffffffffffffffffffffffffffffff1673ffffffffffffffffffffffffffffffffffffffff166108fc349081150290604051600060405180830381858888f19350505050158015611978573d6000803e3d6000fd5b50505050565b606061198982611d8a565b60006006600084815260200190815260200160002080546119a99061475c565b80601f01602080910402602001604051908101604052809291908181526020018280546119d59061475c565b8015611a225780601f106119f757610100808354040283529160200191611a22565b820191906000526020600020905b815481529060010190602001808311611a0557829003601f168201915b505050505090506000611a33612a4d565b9050600081511415611a49578192505050611a8c565b600082511115611a7e578082604051602001611a66929190614089565b60405160208183030381529060405292505050611a8c565b611a8784612a64565b925050505b919050565b50505050565b3373ffffffffffffffffffffffffffffffffffffffff16600b600084815260200190815260200160002060020160009054906101000a900473ffffffffffffffffffffffffffffffffffffffff1673ffffffffffffffffffffffffffffffffffffffff1614611b3b576040517f08c379a0000000000000000000000000000000000000000000000000000000008152600401611b32906143c1565b60405180910390fd5b6009543414611b7f576040517f08c379a0000000000000000000000000000000000000000000000000000000008152600401611b7690614421565b60405180910390fd5b6000600b600084815260200190815260200160002060040160006101000a81548160ff02191690831515021790555080600b60008481526020019081526020016000206003018190555033600b600084815260200190815260200160002060010160006101000a81548173ffffffffffffffffffffffffffffffffffffffff021916908373ffffffffffffffffffffffffffffffffffffffff16021790555030600b600084815260200190815260200160002060020160006101000a81548173ffffffffffffffffffffffffffffffffffffffff021916908373ffffffffffffffffffffffffffffffffffffffff160217905550611c7d6008612acc565b611c883060016115d5565b5050565b6000600560008473ffffffffffffffffffffffffffffffffffffffff1673ffffffffffffffffffffffffffffffffffffffff16815260200190815260200160002060008373ffffffffffffffffffffffffffffffffffffffff1673ffffffffffffffffffffffffffffffffffffffff16815260200190815260200160002060009054906101000a900460ff16905092915050565b60007f01ffc9a7000000000000000000000000000000000000000000000000000000007bffffffffffffffffffffffffffffffffffffffffffffffffffffffff1916827bffffffffffffffffffffffffffffffffffffffffffffffffffffffff1916149050919050565b611d9381612b28565b611dd2576040517f08c379a0000000000000000000000000000000000000000000000000000000008152600401611dc9906143e1565b60405180910390fd5b50565b600033905090565b816004600083815260200190815260200160002060006101000a81548173ffffffffffffffffffffffffffffffffffffffff021916908373ffffffffffffffffffffffffffffffffffffffff160217905550808273ffffffffffffffffffffffffffffffffffffffff16611e5083611206565b73ffffffffffffffffffffffffffffffffffffffff167f8c5be1e5ebec7d5bd14f71427d1e84f3dd0314c0f7b2291e5b200ac8c7c3b92560405160405180910390a45050565b600081600001549050919050565b600080611eb083611206565b90508073ffffffffffffffffffffffffffffffffffffffff168473ffffffffffffffffffffffffffffffffffffffff161480611ef25750611ef18185611c8c565b5b80611f3057508373ffffffffffffffffffffffffffffffffffffffff16611f18846106f5565b73ffffffffffffffffffffffffffffffffffffffff16145b91505092915050565b8273ffffffffffffffffffffffffffffffffffffffff16611f5982611206565b73ffffffffffffffffffffffffffffffffffffffff1614611faf576040517f08c379a0000000000000000000000000000000000000000000000000000000008152600401611fa690614281565b60405180910390fd5b600073ffffffffffffffffffffffffffffffffffffffff168273ffffffffffffffffffffffffffffffffffffffff16141561201f576040517f08c379a0000000000000000000000000000000000000000000000000000000008152600401612016906142c1565b60405180910390fd5b61202c8383836001612b69565b8273ffffffffffffffffffffffffffffffffffffffff1661204c82611206565b73ffffffffffffffffffffffffffffffffffffffff16146120a2576040517f08c379a000000000000000000000000000000000000000000000000000000000815260040161209990614281565b60405180910390fd5b6004600082815260200190815260200160002060006101000a81549073ffffffffffffffffffffffffffffffffffffffff02191690556001600360008573ffffffffffffffffffffffffffffffffffffffff1673ffffffffffffffffffffffffffffffffffffffff168152602001908152602001600020600082825403925050819055506001600360008473ffffffffffffffffffffffffffffffffffffffff1673ffffffffffffffffffffffffffffffffffffffff16815260200190815260200160002060008282540192505081905550816002600083815260200190815260200160002060006101000a81548173ffffffffffffffffffffffffffffffffffffffff021916908373ffffffffffffffffffffffffffffffffffffffff160217905550808273ffffffffffffffffffffffffffffffffffffffff168473ffffffffffffffffffffffffffffffffffffffff167fddf252ad1be2c89b69c2b068fc378daa952ba7f163c4a11628f55a4df523b3ef60405160405180910390a461222e8383836001612c8f565b505050565b60006002600083815260200190815260200160002060009054906101000a900473ffffffffffffffffffffffffffffffffffffffff169050919050565b6001816000016000828254019250508190555050565b600073ffffffffffffffffffffffffffffffffffffffff168273ffffffffffffffffffffffffffffffffffffffff1614156122f6576040517f08c379a00000000000000000000000000000000000000000000000000000000081526004016122ed906143a1565b60405180910390fd5b6122ff81612b28565b1561233f576040517f08c379a0000000000000000000000000000000000000000000000000000000008152600401612336906142a1565b60405180910390fd5b61234d600083836001612b69565b61235681612b28565b15612396576040517f08c379a000000000000000000000000000000000000000000000000000000000815260040161238d906142a1565b60405180910390fd5b6001600360008473ffffffffffffffffffffffffffffffffffffffff1673ffffffffffffffffffffffffffffffffffffffff16815260200190815260200160002060008282540192505081905550816002600083815260200190815260200160002060006101000a81548173ffffffffffffffffffffffffffffffffffffffff021916908373ffffffffffffffffffffffffffffffffffffffff160217905550808273ffffffffffffffffffffffffffffffffffffffff16600073ffffffffffffffffffffffffffffffffffffffff167fddf252ad1be2c89b69c2b068fc378daa952ba7f163c4a11628f55a4df523b3ef60405160405180910390a46124a0600083836001612c8f565b5050565b6124ad82612b28565b6124ec576040517f08c379a00000000000000000000000000000000000000000000000000000000081526004016124e390614361565b60405180910390fd5b80600660008481526020019081526020016000209080519060200190612513929190613581565b505050565b6000811161255b576040517f08c379a0000000000000000000000000000000000000000000000000000000008152600401612552906144c1565b60405180910390fd5b600954341461259f576040517f08c379a000000000000000000000000000000000000000000000000000000000815260040161259690614421565b60405180910390fd5b6040518060a001604052808381526020013373ffffffffffffffffffffffffffffffffffffffff1681526020013073ffffffffffffffffffffffffffffffffffffffff16815260200182815260200160001515815250600b60008481526020019081526020016000206000820151816000015560208201518160010160006101000a81548173ffffffffffffffffffffffffffffffffffffffff021916908373ffffffffffffffffffffffffffffffffffffffff16021790555060408201518160020160006101000a81548173ffffffffffffffffffffffffffffffffffffffff021916908373ffffffffffffffffffffffffffffffffffffffff1602179055506060820151816003015560808201518160040160006101000a81548160ff0219169083151502179055509050506126d83060016115d5565b817fb640004f1d14576d0c209e240cad0410e0d8c0c33a09375861fbadae2588a98d333084600060405161270f94939291906140c8565b60405180910390a25050565b600061272683612c95565b1561274a578173ffffffffffffffffffffffffffffffffffffffff163190506127d6565b8273ffffffffffffffffffffffffffffffffffffffff166370a08231836040518263ffffffff1660e01b815260040161278391906140ad565b60206040518083038186803b15801561279b57600080fd5b505afa1580156127af573d6000803e3d6000fd5b505050506040513d601f19601f820116820180604052508101906127d39190613ab9565b90505b92915050565b6000808214156127ef576001905061287d565b6127f884612c95565b1561284d578273ffffffffffffffffffffffffffffffffffffffff166108fc839081150290604051600060405180830381858888f19350505050158015612843573d6000803e3d6000fd5b506001905061287d565b61287883838673ffffffffffffffffffffffffffffffffffffffff16612d179092919063ffffffff16565b600190505b9392505050565b8173ffffffffffffffffffffffffffffffffffffffff168373ffffffffffffffffffffffffffffffffffffffff1614156128f3576040517f08c379a00000000000000000000000000000000000000000000000000000000081526004016128ea906142e1565b60405180910390fd5b80600560008573ffffffffffffffffffffffffffffffffffffffff1673ffffffffffffffffffffffffffffffffffffffff16815260200190815260200160002060008473ffffffffffffffffffffffffffffffffffffffff1673ffffffffffffffffffffffffffffffffffffffff16815260200190815260200160002060006101000a81548160ff0219169083151502179055508173ffffffffffffffffffffffffffffffffffffffff168373ffffffffffffffffffffffffffffffffffffffff167f17307eab39ab6107e8899845ad3d59bd9653f200f220920489ca2b5937696c31836040516129e491906141a4565b60405180910390a3505050565b6129fc848484611f39565b612a0884848484612d9d565b612a47576040517f08c379a0000000000000000000000000000000000000000000000000000000008152600401612a3e90614241565b60405180910390fd5b50505050565b606060405180602001604052806000815250905090565b6060612a6f82611d8a565b6000612a79612a4d565b90506000815111612a995760405180602001604052806000815250612ac4565b80612aa384612f34565b604051602001612ab4929190614089565b6040516020818303038152906040525b915050919050565b60008160000154905060008111612b18576040517f08c379a0000000000000000000000000000000000000000000000000000000008152600401612b0f90614221565b60405180910390fd5b6001810382600001819055505050565b60008073ffffffffffffffffffffffffffffffffffffffff16612b4a83612233565b73ffffffffffffffffffffffffffffffffffffffff1614159050919050565b6001811115612c8957600073ffffffffffffffffffffffffffffffffffffffff168473ffffffffffffffffffffffffffffffffffffffff1614612bfd5780600360008673ffffffffffffffffffffffffffffffffffffffff1673ffffffffffffffffffffffffffffffffffffffff1681526020019081526020016000206000828254612bf59190614660565b925050819055505b600073ffffffffffffffffffffffffffffffffffffffff168373ffffffffffffffffffffffffffffffffffffffff1614612c885780600360008573ffffffffffffffffffffffffffffffffffffffff1673ffffffffffffffffffffffffffffffffffffffff1681526020019081526020016000206000828254612c80919061460a565b925050819055505b5b50505050565b50505050565b60008073ffffffffffffffffffffffffffffffffffffffff168273ffffffffffffffffffffffffffffffffffffffff161480612d10575073eeeeeeeeeeeeeeeeeeeeeeeeeeeeeeeeeeeeeeee73ffffffffffffffffffffffffffffffffffffffff168273ffffffffffffffffffffffffffffffffffffffff16145b9050919050565b612d988363a9059cbb60e01b8484604051602401612d36929190614159565b604051602081830303815290604052907bffffffffffffffffffffffffffffffffffffffffffffffffffffffff19166020820180517bffffffffffffffffffffffffffffffffffffffffffffffffffffffff8381831617835250505050613058565b505050565b6000612dbe8473ffffffffffffffffffffffffffffffffffffffff1661311f565b15612f27578373ffffffffffffffffffffffffffffffffffffffff1663150b7a02612de7611dd5565b8786866040518563ffffffff1660e01b8152600401612e09949392919061410d565b602060405180830381600087803b158015612e2357600080fd5b505af1925050508015612e5457506040513d601f19601f82011682018060405250810190612e519190613a13565b60015b612ed7573d8060008114612e84576040519150601f19603f3d011682016040523d82523d6000602084013e612e89565b606091505b50600081511415612ecf576040517f08c379a0000000000000000000000000000000000000000000000000000000008152600401612ec690614241565b60405180910390fd5b805181602001fd5b63150b7a0260e01b7bffffffffffffffffffffffffffffffffffffffffffffffffffffffff1916817bffffffffffffffffffffffffffffffffffffffffffffffffffffffff191614915050612f2c565b600190505b949350505050565b606060006001612f4384613142565b01905060008167ffffffffffffffff811115612f88577f4e487b7100000000000000000000000000000000000000000000000000000000600052604160045260246000fd5b6040519080825280601f01601f191660200182016040528015612fba5781602001600182028036833780820191505090505b509050600082602001820190505b60011561304d578080600190039150507f3031323334353637383961626364656600000000000000000000000000000000600a86061a8153600a8581613037577f4e487b7100000000000000000000000000000000000000000000000000000000600052601260045260246000fd5b04945060008514156130485761304d565b612fc8565b819350505050919050565b60006130ba826040518060400160405280602081526020017f5361666545524332303a206c6f772d6c6576656c2063616c6c206661696c65648152508573ffffffffffffffffffffffffffffffffffffffff166133799092919063ffffffff16565b905060008151111561311a57808060200190518101906130da91906139c1565b613119576040517f08c379a0000000000000000000000000000000000000000000000000000000008152600401613110906144a1565b60405180910390fd5b5b505050565b6000808273ffffffffffffffffffffffffffffffffffffffff163b119050919050565b600080600090507a184f03e93ff9f4daa797ed6e38ed64bf6a1f01000000000000000083106131c6577a184f03e93ff9f4daa797ed6e38ed64bf6a1f01000000000000000083816131bc577f4e487b7100000000000000000000000000000000000000000000000000000000600052601260045260246000fd5b0492506040810190505b6d04ee2d6d415b85acef81000000008310613229576d04ee2d6d415b85acef8100000000838161321f577f4e487b7100000000000000000000000000000000000000000000000000000000600052601260045260246000fd5b0492506020810190505b662386f26fc10000831061327e57662386f26fc100008381613274577f4e487b7100000000000000000000000000000000000000000000000000000000600052601260045260246000fd5b0492506010810190505b6305f5e10083106132cd576305f5e10083816132c3577f4e487b7100000000000000000000000000000000000000000000000000000000600052601260045260246000fd5b0492506008810190505b612710831061331857612710838161330e577f4e487b7100000000000000000000000000000000000000000000000000000000600052601260045260246000fd5b0492506004810190505b606483106133615760648381613357577f4e487b7100000000000000000000000000000000000000000000000000000000600052601260045260246000fd5b0492506002810190505b600a8310613370576001810190505b80915050919050565b60606133888484600085613391565b90509392505050565b6060824710156133d6576040517f08c379a00000000000000000000000000000000000000000000000000000000081526004016133cd90614301565b60405180910390fd5b6000808673ffffffffffffffffffffffffffffffffffffffff1685876040516133ff9190614072565b60006040518083038185875af1925050503d806000811461343c576040519150601f19603f3d011682016040523d82523d6000602084013e613441565b606091505b50915091506134528783838761345e565b92505050949350505050565b606083156134c1576000835114156134b9576134798561311f565b6134b8576040517f08c379a00000000000000000000000000000000000000000000000000000000081526004016134af90614461565b60405180910390fd5b5b8290506134cc565b6134cb83836134d4565b5b949350505050565b6000825111156134e75781518083602001fd5b806040517f08c379a000000000000000000000000000000000000000000000000000000000815260040161351b91906141bf565b60405180910390fd5b6040518060a0016040528060008152602001600073ffffffffffffffffffffffffffffffffffffffff168152602001600073ffffffffffffffffffffffffffffffffffffffff168152602001600081526020016000151581525090565b82805461358d9061475c565b90600052602060002090601f0160209004810192826135af57600085556135f6565b82601f106135c857805160ff19168380011785556135f6565b828001600101855582156135f6579182015b828111156135f55782518255916020019190600101906135da565b5b5090506136039190613607565b5090565b5b80821115613620576000816000905550600101613608565b5090565b600061363761363284614521565b6144fc565b90508281526020810184848401111561364f57600080fd5b61365a84828561471a565b509392505050565b600061367561367084614552565b6144fc565b90508281526020810184848401111561368d57600080fd5b61369884828561471a565b509392505050565b6000813590506136af81614eb8565b92915050565b6000813590506136c481614ecf565b92915050565b6000815190506136d981614ecf565b92915050565b6000813590506136ee81614ee6565b92915050565b60008151905061370381614ee6565b92915050565b600082601f83011261371a57600080fd5b813561372a848260208601613624565b91505092915050565b600082601f83011261374457600080fd5b8135613754848260208601613662565b91505092915050565b60008135905061376c81614efd565b92915050565b60008151905061378181614efd565b92915050565b60006020828403121561379957600080fd5b60006137a7848285016136a0565b91505092915050565b600080604083850312156137c357600080fd5b60006137d1858286016136a0565b92505060206137e2858286016136a0565b9150509250929050565b60008060006060848603121561380157600080fd5b600061380f868287016136a0565b9350506020613820868287016136a0565b92505060406138318682870161375d565b9150509250925092565b6000806000806080858703121561385157600080fd5b600061385f878288016136a0565b9450506020613870878288016136a0565b93505060406138818782880161375d565b925050606085013567ffffffffffffffff81111561389e57600080fd5b6138aa87828801613709565b91505092959194509250565b600080604083850312156138c957600080fd5b60006138d7858286016136a0565b92505060206138e8858286016136b5565b9150509250929050565b6000806040838503121561390557600080fd5b6000613913858286016136a0565b92505060206139248582860161375d565b9150509250929050565b6000806000806080858703121561394457600080fd5b6000613952878288016136a0565b94505060206139638782880161375d565b935050604085013567ffffffffffffffff81111561398057600080fd5b61398c87828801613733565b925050606085013567ffffffffffffffff8111156139a957600080fd5b6139b587828801613733565b91505092959194509250565b6000602082840312156139d357600080fd5b60006139e1848285016136ca565b91505092915050565b6000602082840312156139fc57600080fd5b6000613a0a848285016136df565b91505092915050565b600060208284031215613a2557600080fd5b6000613a33848285016136f4565b91505092915050565b60008060408385031215613a4f57600080fd5b600083013567ffffffffffffffff811115613a6957600080fd5b613a7585828601613733565b9250506020613a868582860161375d565b9150509250929050565b600060208284031215613aa257600080fd5b6000613ab08482850161375d565b91505092915050565b600060208284031215613acb57600080fd5b6000613ad984828501613772565b91505092915050565b60008060408385031215613af557600080fd5b6000613b038582860161375d565b9250506020613b148582860161375d565b9150509250929050565b6000613b2a8383613fec565b60a08301905092915050565b613b3f816146a6565b82525050565b613b4e81614694565b82525050565b6000613b5f82614593565b613b6981856145c1565b9350613b7483614583565b8060005b83811015613ba5578151613b8c8882613b1e565b9750613b97836145b4565b925050600181019050613b78565b5085935050505092915050565b613bbb816146b8565b82525050565b613bca816146b8565b82525050565b6000613bdb8261459e565b613be581856145d2565b9350613bf5818560208601614729565b613bfe81614895565b840191505092915050565b6000613c148261459e565b613c1e81856145e3565b9350613c2e818560208601614729565b80840191505092915050565b6000613c45826145a9565b613c4f81856145ee565b9350613c5f818560208601614729565b613c6881614895565b840191505092915050565b6000613c7e826145a9565b613c8881856145ff565b9350613c98818560208601614729565b80840191505092915050565b6000613cb1602d836145ee565b9150613cbc826148a6565b604082019050919050565b6000613cd4602f836145ee565b9150613cdf826148f5565b604082019050919050565b6000613cf7601b836145ee565b9150613d0282614944565b602082019050919050565b6000613d1a6032836145ee565b9150613d258261496d565b604082019050919050565b6000613d3d600f836145ee565b9150613d48826149bc565b602082019050919050565b6000613d606025836145ee565b9150613d6b826149e5565b604082019050919050565b6000613d83601c836145ee565b9150613d8e82614a34565b602082019050919050565b6000613da66024836145ee565b9150613db182614a5d565b604082019050919050565b6000613dc96019836145ee565b9150613dd482614aac565b602082019050919050565b6000613dec6026836145ee565b9150613df782614ad5565b604082019050919050565b6000613e0f6020836145ee565b9150613e1a82614b24565b602082019050919050565b6000613e326029836145ee565b9150613e3d82614b4d565b604082019050919050565b6000613e55602e836145ee565b9150613e6082614b9c565b604082019050919050565b6000613e786040836145ee565b9150613e8382614beb565b604082019050919050565b6000613e9b6020836145ee565b9150613ea682614c3a565b602082019050919050565b6000613ebe602a836145ee565b9150613ec982614c63565b604082019050919050565b6000613ee16018836145ee565b9150613eec82614cb2565b602082019050919050565b6000613f046021836145ee565b9150613f0f82614cdb565b604082019050919050565b6000613f276024836145ee565b9150613f3282614d2a565b604082019050919050565b6000613f4a603d836145ee565b9150613f5582614d79565b604082019050919050565b6000613f6d601d836145ee565b9150613f7882614dc8565b602082019050919050565b6000613f906030836145ee565b9150613f9b82614df1565b604082019050919050565b6000613fb3602a836145ee565b9150613fbe82614e40565b604082019050919050565b6000613fd6601c836145ee565b9150613fe182614e8f565b602082019050919050565b60a0820160008201516140026000850182614054565b5060208201516140156020850182613b36565b5060408201516140286040850182613b36565b50606082015161403b6060850182614054565b50608082015161404e6080850182613bb2565b50505050565b61405d81614710565b82525050565b61406c81614710565b82525050565b600061407e8284613c09565b915081905092915050565b60006140958285613c73565b91506140a18284613c73565b91508190509392505050565b60006020820190506140c26000830184613b45565b92915050565b60006080820190506140dd6000830187613b45565b6140ea6020830186613b45565b6140f76040830185614063565b6141046060830184613bc1565b95945050505050565b60006080820190506141226000830187613b45565b61412f6020830186613b45565b61413c6040830185614063565b818103606083015261414e8184613bd0565b905095945050505050565b600060408201905061416e6000830185613b45565b61417b6020830184614063565b9392505050565b6000602082019050818103600083015261419c8184613b54565b905092915050565b60006020820190506141b96000830184613bc1565b92915050565b600060208201905081810360008301526141d98184613c3a565b905092915050565b600060208201905081810360008301526141fa81613ca4565b9050919050565b6000602082019050818103600083015261421a81613cc7565b9050919050565b6000602082019050818103600083015261423a81613cea565b9050919050565b6000602082019050818103600083015261425a81613d0d565b9050919050565b6000602082019050818103600083015261427a81613d30565b9050919050565b6000602082019050818103600083015261429a81613d53565b9050919050565b600060208201905081810360008301526142ba81613d76565b9050919050565b600060208201905081810360008301526142da81613d99565b9050919050565b600060208201905081810360008301526142fa81613dbc565b9050919050565b6000602082019050818103600083015261431a81613ddf565b9050919050565b6000602082019050818103600083015261433a81613e02565b9050919050565b6000602082019050818103600083015261435a81613e25565b9050919050565b6000602082019050818103600083015261437a81613e48565b9050919050565b6000602082019050818103600083015261439a81613e6b565b9050919050565b600060208201905081810360008301526143ba81613e8e565b9050919050565b600060208201905081810360008301526143da81613eb1565b9050919050565b600060208201905081810360008301526143fa81613ed4565b9050919050565b6000602082019050818103600083015261441a81613ef7565b9050919050565b6000602082019050818103600083015261443a81613f1a565b9050919050565b6000602082019050818103600083015261445a81613f3d565b9050919050565b6000602082019050818103600083015261447a81613f60565b9050919050565b6000602082019050818103600083015261449a81613f83565b9050919050565b600060208201905081810360008301526144ba81613fa6565b9050919050565b600060208201905081810360008301526144da81613fc9565b9050919050565b60006020820190506144f66000830184614063565b92915050565b6000614506614517565b9050614512828261478e565b919050565b6000604051905090565b600067ffffffffffffffff82111561453c5761453b614866565b5b61454582614895565b9050602081019050919050565b600067ffffffffffffffff82111561456d5761456c614866565b5b61457682614895565b9050602081019050919050565b6000819050602082019050919050565b600081519050919050565b600081519050919050565b600081519050919050565b6000602082019050919050565b600082825260208201905092915050565b600082825260208201905092915050565b600081905092915050565b600082825260208201905092915050565b600081905092915050565b600061461582614710565b915061462083614710565b9250827fffffffffffffffffffffffffffffffffffffffffffffffffffffffffffffffff0382111561465557614654614808565b5b828201905092915050565b600061466b82614710565b915061467683614710565b92508282101561468957614688614808565b5b828203905092915050565b600061469f826146f0565b9050919050565b60006146b1826146f0565b9050919050565b60008115159050919050565b60007fffffffff0000000000000000000000000000000000000000000000000000000082169050919050565b600073ffffffffffffffffffffffffffffffffffffffff82169050919050565b6000819050919050565b82818337600083830152505050565b60005b8381101561474757808201518184015260208101905061472c565b83811115614756576000848401525b50505050565b6000600282049050600182168061477457607f821691505b6020821081141561478857614787614837565b5b50919050565b61479782614895565b810181811067ffffffffffffffff821117156147b6576147b5614866565b5b80604052505050565b60006147ca82614710565b91507fffffffffffffffffffffffffffffffffffffffffffffffffffffffffffffffff8214156147fd576147fc614808565b5b600182019050919050565b7f4e487b7100000000000000000000000000000000000000000000000000000000600052601160045260246000fd5b7f4e487b7100000000000000000000000000000000000000000000000000000000600052602260045260246000fd5b7f4e487b7100000000000000000000000000000000000000000000000000000000600052604160045260246000fd5b6000601f19601f8301169050919050565b7f4552433732313a2063616c6c6572206973206e6f7420746f6b656e206f776e6560008201527f72206f7220617070726f76656400000000000000000000000000000000000000602082015250565b7f546865206f776e657220686173206e6f7420617070726f76656420746865207460008201527f6f6b656e20696420746f2073656c6c0000000000000000000000000000000000602082015250565b7f436f756e7465723a2064656372656d656e74206f766572666c6f770000000000600082015250565b7f4552433732313a207472616e7366657220746f206e6f6e20455243373231526560008201527f63656976657220696d706c656d656e7465720000000000000000000000000000602082015250565b7f62616c616e6365206973207a65726f0000000000000000000000000000000000600082015250565b7f4552433732313a207472616e736665722066726f6d20696e636f72726563742060008201527f6f776e6572000000000000000000000000000000000000000000000000000000602082015250565b7f4552433732313a20746f6b656e20616c7265616479206d696e74656400000000600082015250565b7f4552433732313a207472616e7366657220746f20746865207a65726f2061646460008201527f7265737300000000000000000000000000000000000000000000000000000000602082015250565b7f4552433732313a20617070726f766520746f2063616c6c657200000000000000600082015250565b7f416464726573733a20696e73756666696369656e742062616c616e636520666f60008201527f722063616c6c0000000000000000000000000000000000000000000000000000602082015250565b7f6d73672e73656e646572206d757374206265206f776e65722061646472657373600082015250565b7f4552433732313a2061646472657373207a65726f206973206e6f74206120766160008201527f6c6964206f776e65720000000000000000000000000000000000000000000000602082015250565b7f45524337323155524953746f726167653a2055524920736574206f66206e6f6e60008201527f6578697374656e7420746f6b656e000000000000000000000000000000000000602082015250565b7f506c65617365207375626d6974207468652061736b696e67207072696365206960008201527f6e206f7264657220746f20636f6d706c65746520746865207075726368617365602082015250565b7f4552433732313a206d696e7420746f20746865207a65726f2061646472657373600082015250565b7f4f6e6c79206974656d206f776e65722063616e20706572666f726d207468697360008201527f206f7065726174696f6e00000000000000000000000000000000000000000000602082015250565b7f4552433732313a20696e76616c696420746f6b656e2049440000000000000000600082015250565b7f4552433732313a20617070726f76616c20746f2063757272656e74206f776e6560008201527f7200000000000000000000000000000000000000000000000000000000000000602082015250565b7f5072696365206d75737420626520657175616c20746f206c697374696e67207060008201527f7269636500000000000000000000000000000000000000000000000000000000602082015250565b7f4552433732313a20617070726f76652063616c6c6572206973206e6f7420746f60008201527f6b656e206f776e6572206f7220617070726f76656420666f7220616c6c000000602082015250565b7f416464726573733a2063616c6c20746f206e6f6e2d636f6e7472616374000000600082015250565b7f4f6e6c79206d61726b6574706c616365206f776e65722063616e20757064617460008201527f65206c697374696e672070726963652e00000000000000000000000000000000602082015250565b7f5361666545524332303a204552433230206f7065726174696f6e20646964206e60008201527f6f74207375636365656400000000000000000000000000000000000000000000602082015250565b7f5072696365206d757374206265206174206c6561737420312077656900000000600082015250565b614ec181614694565b8114614ecc57600080fd5b50565b614ed8816146b8565b8114614ee357600080fd5b50565b614eef816146c4565b8114614efa57600080fd5b50565b614f0681614710565b8114614f1157600080fd5b5056fea2646970667358221220857583703ecf09c98d37d32ab2db10ccc3f635a2bd4f48783c9447320fcebb1664736f6c63430008040033",
  "linkReferences": {},
  "deployedLinkReferences": {}
}