{
  "_format": "hh-sol-artifact-1",
  "contractName": "NFTMarketplace",
  "sourceName": "contracts/NFTMarketplace.sol",
  "abi": [
    {
      "inputs": [],
      "stateMutability": "nonpayable",
      "type": "constructor"
    },
    {
      "anonymous": false,
      "inputs": [
        {
          "indexed": true,
          "internalType": "address",
          "name": "owner",
          "type": "address"
        },
        {
          "indexed": true,
          "internalType": "address",
          "name": "approved",
          "type": "address"
        },
        {
          "indexed": true,
          "internalType": "uint256",
          "name": "tokenId",
          "type": "uint256"
        }
      ],
      "name": "Approval",
      "type": "event"
    },
    {
      "anonymous": false,
      "inputs": [
        {
          "indexed": true,
          "internalType": "address",
          "name": "owner",
          "type": "address"
        },
        {
          "indexed": true,
          "internalType": "address",
          "name": "operator",
          "type": "address"
        },
        {
          "indexed": false,
          "internalType": "bool",
          "name": "approved",
          "type": "bool"
        }
      ],
      "name": "ApprovalForAll",
      "type": "event"
    },
    {
      "anonymous": false,
      "inputs": [
        {
          "indexed": true,
          "internalType": "uint256",
          "name": "tokenId",
          "type": "uint256"
        },
        {
          "indexed": false,
          "internalType": "address",
          "name": "seller",
          "type": "address"
        },
        {
          "indexed": false,
          "internalType": "address",
          "name": "owner",
          "type": "address"
        },
        {
          "indexed": false,
          "internalType": "uint256",
          "name": "price",
          "type": "uint256"
        },
        {
          "indexed": false,
          "internalType": "bool",
          "name": "sold",
          "type": "bool"
        }
      ],
      "name": "MarketItemCreated",
      "type": "event"
    },
    {
      "anonymous": false,
      "inputs": [
        {
          "indexed": true,
          "internalType": "address",
          "name": "from",
          "type": "address"
        },
        {
          "indexed": true,
          "internalType": "address",
          "name": "to",
          "type": "address"
        },
        {
          "indexed": true,
          "internalType": "uint256",
          "name": "tokenId",
          "type": "uint256"
        }
      ],
      "name": "Transfer",
      "type": "event"
    },
    {
      "inputs": [
        {
          "internalType": "address",
          "name": "to",
          "type": "address"
        },
        {
          "internalType": "uint256",
          "name": "tokenId",
          "type": "uint256"
        }
      ],
      "name": "approve",
      "outputs": [],
      "stateMutability": "nonpayable",
      "type": "function"
    },
    {
      "inputs": [
        {
          "internalType": "address",
          "name": "owner",
          "type": "address"
        }
      ],
      "name": "balanceOf",
      "outputs": [
        {
          "internalType": "uint256",
          "name": "",
          "type": "uint256"
        }
      ],
      "stateMutability": "view",
      "type": "function"
    },
    {
      "inputs": [
        {
          "internalType": "uint256",
          "name": "tokenId",
          "type": "uint256"
        }
      ],
      "name": "createMarketSale",
      "outputs": [],
      "stateMutability": "payable",
      "type": "function"
    },
    {
      "inputs": [
        {
          "internalType": "string",
          "name": "tokenURI",
          "type": "string"
        },
        {
          "internalType": "uint256",
          "name": "price",
          "type": "uint256"
        },
        {
          "internalType": "address",
          "name": "operator",
          "type": "address"
        },
        {
          "internalType": "bool",
          "name": "approved",
          "type": "bool"
        }
      ],
      "name": "createToken",
      "outputs": [
        {
          "internalType": "uint256",
          "name": "",
          "type": "uint256"
        }
      ],
      "stateMutability": "payable",
      "type": "function"
    },
    {
      "inputs": [],
      "name": "fetchItemsListed",
      "outputs": [
        {
          "components": [
            {
              "internalType": "uint256",
              "name": "tokenId",
              "type": "uint256"
            },
            {
              "internalType": "address payable",
              "name": "seller",
              "type": "address"
            },
            {
              "internalType": "address payable",
              "name": "owner",
              "type": "address"
            },
            {
              "internalType": "uint256",
              "name": "price",
              "type": "uint256"
            },
            {
              "internalType": "bool",
              "name": "sold",
              "type": "bool"
            }
          ],
          "internalType": "struct NFTMarketplace.MarketItem[]",
          "name": "",
          "type": "tuple[]"
        }
      ],
      "stateMutability": "view",
      "type": "function"
    },
    {
      "inputs": [],
      "name": "fetchMarketItems",
      "outputs": [
        {
          "components": [
            {
              "internalType": "uint256",
              "name": "tokenId",
              "type": "uint256"
            },
            {
              "internalType": "address payable",
              "name": "seller",
              "type": "address"
            },
            {
              "internalType": "address payable",
              "name": "owner",
              "type": "address"
            },
            {
              "internalType": "uint256",
              "name": "price",
              "type": "uint256"
            },
            {
              "internalType": "bool",
              "name": "sold",
              "type": "bool"
            }
          ],
          "internalType": "struct NFTMarketplace.MarketItem[]",
          "name": "",
          "type": "tuple[]"
        }
      ],
      "stateMutability": "view",
      "type": "function"
    },
    {
      "inputs": [],
      "name": "fetchMyNFTs",
      "outputs": [
        {
          "components": [
            {
              "internalType": "uint256",
              "name": "tokenId",
              "type": "uint256"
            },
            {
              "internalType": "address payable",
              "name": "seller",
              "type": "address"
            },
            {
              "internalType": "address payable",
              "name": "owner",
              "type": "address"
            },
            {
              "internalType": "uint256",
              "name": "price",
              "type": "uint256"
            },
            {
              "internalType": "bool",
              "name": "sold",
              "type": "bool"
            }
          ],
          "internalType": "struct NFTMarketplace.MarketItem[]",
          "name": "",
          "type": "tuple[]"
        }
      ],
      "stateMutability": "view",
      "type": "function"
    },
    {
      "inputs": [
        {
          "internalType": "uint256",
          "name": "tokenId",
          "type": "uint256"
        }
      ],
      "name": "getApproved",
      "outputs": [
        {
          "internalType": "address",
          "name": "",
          "type": "address"
        }
      ],
      "stateMutability": "view",
      "type": "function"
    },
    {
      "inputs": [],
      "name": "getListingPrice",
      "outputs": [
        {
          "internalType": "uint256",
          "name": "",
          "type": "uint256"
        }
      ],
      "stateMutability": "view",
      "type": "function"
    },
    {
      "inputs": [
        {
          "internalType": "address",
          "name": "owner",
          "type": "address"
        },
        {
          "internalType": "address",
          "name": "operator",
          "type": "address"
        }
      ],
      "name": "isApprovedForAll",
      "outputs": [
        {
          "internalType": "bool",
          "name": "",
          "type": "bool"
        }
      ],
      "stateMutability": "view",
      "type": "function"
    },
    {
      "inputs": [],
      "name": "name",
      "outputs": [
        {
          "internalType": "string",
          "name": "",
          "type": "string"
        }
      ],
      "stateMutability": "view",
      "type": "function"
    },
    {
      "inputs": [
        {
          "internalType": "uint256",
          "name": "tokenId",
          "type": "uint256"
        }
      ],
      "name": "ownerOf",
      "outputs": [
        {
          "internalType": "address",
          "name": "",
          "type": "address"
        }
      ],
      "stateMutability": "view",
      "type": "function"
    },
    {
      "inputs": [
        {
          "internalType": "address",
          "name": "from",
          "type": "address"
        },
        {
          "internalType": "address",
          "name": "to",
          "type": "address"
        },
        {
          "internalType": "uint256",
          "name": "tokenId",
          "type": "uint256"
        }
      ],
      "name": "safeTransferFrom",
      "outputs": [],
      "stateMutability": "nonpayable",
      "type": "function"
    },
    {
      "inputs": [
        {
          "internalType": "address",
          "name": "from",
          "type": "address"
        },
        {
          "internalType": "address",
          "name": "to",
          "type": "address"
        },
        {
          "internalType": "uint256",
          "name": "tokenId",
          "type": "uint256"
        },
        {
          "internalType": "bytes",
          "name": "_data",
          "type": "bytes"
        }
      ],
      "name": "safeTransferFrom",
      "outputs": [],
      "stateMutability": "nonpayable",
      "type": "function"
    },
    {
      "inputs": [
        {
          "internalType": "address",
          "name": "operator",
          "type": "address"
        },
        {
          "internalType": "bool",
          "name": "approved",
          "type": "bool"
        }
      ],
      "name": "setApprovalForAll",
      "outputs": [],
      "stateMutability": "nonpayable",
      "type": "function"
    },
    {
      "inputs": [
        {
          "internalType": "bytes4",
          "name": "interfaceId",
          "type": "bytes4"
        }
      ],
      "name": "supportsInterface",
      "outputs": [
        {
          "internalType": "bool",
          "name": "",
          "type": "bool"
        }
      ],
      "stateMutability": "view",
      "type": "function"
    },
    {
      "inputs": [],
      "name": "symbol",
      "outputs": [
        {
          "internalType": "string",
          "name": "",
          "type": "string"
        }
      ],
      "stateMutability": "view",
      "type": "function"
    },
    {
      "inputs": [
        {
          "internalType": "uint256",
          "name": "tokenId",
          "type": "uint256"
        }
      ],
      "name": "tokenURI",
      "outputs": [
        {
          "internalType": "string",
          "name": "",
          "type": "string"
        }
      ],
      "stateMutability": "view",
      "type": "function"
    },
    {
      "inputs": [
        {
          "internalType": "address",
          "name": "from",
          "type": "address"
        },
        {
          "internalType": "address",
          "name": "to",
          "type": "address"
        },
        {
          "internalType": "uint256",
          "name": "tokenId",
          "type": "uint256"
        }
      ],
      "name": "transferFrom",
      "outputs": [],
      "stateMutability": "nonpayable",
      "type": "function"
    },
    {
      "inputs": [
        {
          "internalType": "uint256",
          "name": "_listingPrice",
          "type": "uint256"
        }
      ],
      "name": "updateListingPrice",
      "outputs": [],
      "stateMutability": "payable",
      "type": "function"
    }
  ],
  "bytecode": "0x60806040526658d15e176280006009553480156200001c57600080fd5b506040518060400160405280600c81526020017f5368617065204d61726b657400000000000000000000000000000000000000008152506040518060400160405280600381526020017f53485000000000000000000000000000000000000000000000000000000000008152508160009080519060200190620000a192919062000104565b508060019080519060200190620000ba92919062000104565b50505033600a60006101000a81548173ffffffffffffffffffffffffffffffffffffffff021916908373ffffffffffffffffffffffffffffffffffffffff16021790555062000219565b8280546200011290620001b4565b90600052602060002090601f01602090048101928262000136576000855562000182565b82601f106200015157805160ff191683800117855562000182565b8280016001018555821562000182579182015b828111156200018157825182559160200191906001019062000164565b5b50905062000191919062000195565b5090565b5b80821115620001b057600081600090555060010162000196565b5090565b60006002820490506001821680620001cd57607f821691505b60208210811415620001e457620001e3620001ea565b5b50919050565b7f4e487b7100000000000000000000000000000000000000000000000000000000600052602260045260246000fd5b613fd680620002296000396000f3fe60806040526004361061011f5760003560e01c806345f8fa80116100a0578063ae677aa311610064578063ae677aa3146103ee578063b88d4fde1461040a578063be9af53614610433578063c87b56dd1461044f578063e985e9c51461048c5761011f565b806345f8fa80146102f55780636352211e1461032057806370a082311461035d57806395d89b411461039a578063a22cb465146103c55761011f565b806312e85585116100e757806312e855851461021d57806315c9d7d514610248578063202e37401461027857806323b872dd146102a357806342842e0e146102cc5761011f565b806301ffc9a71461012457806306fdde0314610161578063081812fc1461018c578063095ea7b3146101c95780630f08efe0146101f2575b600080fd5b34801561013057600080fd5b5061014b60048036038101906101469190612c29565b6104c9565b60405161015891906132a8565b60405180910390f35b34801561016d57600080fd5b506101766105ab565b60405161018391906132c3565b60405180910390f35b34801561019857600080fd5b506101b360048036038101906101ae9190612cf6565b61063d565b6040516101c091906131da565b60405180910390f35b3480156101d557600080fd5b506101f060048036038101906101eb9190612bed565b6106c2565b005b3480156101fe57600080fd5b506102076107da565b6040516102149190613286565b60405180910390f35b34801561022957600080fd5b50610232610a8f565b60405161023f9190613565565b60405180910390f35b610262600480360381019061025d9190612c7b565b610a99565b60405161026f9190613565565b60405180910390f35b34801561028457600080fd5b5061028d610adf565b60405161029a9190613286565b60405180910390f35b3480156102af57600080fd5b506102ca60048036038101906102c59190612ae7565b610e19565b005b3480156102d857600080fd5b506102f360048036038101906102ee9190612ae7565b610e79565b005b34801561030157600080fd5b5061030a610e99565b6040516103179190613286565b60405180910390f35b34801561032c57600080fd5b5061034760048036038101906103429190612cf6565b6111d3565b60405161035491906131da565b60405180910390f35b34801561036957600080fd5b50610384600480360381019061037f9190612a82565b611285565b6040516103919190613565565b60405180910390f35b3480156103a657600080fd5b506103af61133d565b6040516103bc91906132c3565b60405180910390f35b3480156103d157600080fd5b506103ec60048036038101906103e79190612bb1565b6113cf565b005b61040860048036038101906104039190612cf6565b6113e5565b005b34801561041657600080fd5b50610431600480360381019061042c9190612b36565b61147f565b005b61044d60048036038101906104489190612cf6565b6114e1565b005b34801561045b57600080fd5b5061047660048036038101906104719190612cf6565b611719565b60405161048391906132c3565b60405180910390f35b34801561049857600080fd5b506104b360048036038101906104ae9190612aab565b61186b565b6040516104c091906132a8565b60405180910390f35b60007f80ac58cd000000000000000000000000000000000000000000000000000000007bffffffffffffffffffffffffffffffffffffffffffffffffffffffff1916827bffffffffffffffffffffffffffffffffffffffffffffffffffffffff1916148061059457507f5b5e139f000000000000000000000000000000000000000000000000000000007bffffffffffffffffffffffffffffffffffffffffffffffffffffffff1916827bffffffffffffffffffffffffffffffffffffffffffffffffffffffff1916145b806105a457506105a3826118ff565b5b9050919050565b6060600080546105ba90613806565b80601f01602080910402602001604051908101604052809291908181526020018280546105e690613806565b80156106335780601f1061060857610100808354040283529160200191610633565b820191906000526020600020905b81548152906001019060200180831161061657829003601f168201915b5050505050905090565b600061064882611969565b610687576040517f08c379a000000000000000000000000000000000000000000000000000000000815260040161067e90613485565b60405180910390fd5b6004600083815260200190815260200160002060009054906101000a900473ffffffffffffffffffffffffffffffffffffffff169050919050565b60006106cd826111d3565b90508073ffffffffffffffffffffffffffffffffffffffff168373ffffffffffffffffffffffffffffffffffffffff16141561073e576040517f08c379a0000000000000000000000000000000000000000000000000000000008152600401610735906134c5565b60405180910390fd5b8073ffffffffffffffffffffffffffffffffffffffff1661075d6119d5565b73ffffffffffffffffffffffffffffffffffffffff16148061078c575061078b816107866119d5565b61186b565b5b6107cb576040517f08c379a00000000000000000000000000000000000000000000000000000000081526004016107c2906133a5565b60405180910390fd5b6107d583836119dd565b505050565b606060006107e86007611a96565b905060006107f66008611a96565b6108006007611a96565b61080a919061370a565b90506000808267ffffffffffffffff81111561084f577f4e487b7100000000000000000000000000000000000000000000000000000000600052604160045260246000fd5b60405190808252806020026020018201604052801561088857816020015b610875612849565b81526020019060019003908161086d5790505b50905060005b84811015610a84573073ffffffffffffffffffffffffffffffffffffffff16600b60006001846108be9190613683565b815260200190815260200160002060020160009054906101000a900473ffffffffffffffffffffffffffffffffffffffff1673ffffffffffffffffffffffffffffffffffffffff161415610a7157600060018261091b9190613683565b90506000600b60008381526020019081526020016000209050806040518060a0016040529081600082015481526020016001820160009054906101000a900473ffffffffffffffffffffffffffffffffffffffff1673ffffffffffffffffffffffffffffffffffffffff1673ffffffffffffffffffffffffffffffffffffffff1681526020016002820160009054906101000a900473ffffffffffffffffffffffffffffffffffffffff1673ffffffffffffffffffffffffffffffffffffffff1673ffffffffffffffffffffffffffffffffffffffff168152602001600382015481526020016004820160009054906101000a900460ff161515151581525050848681518110610a54577f4e487b7100000000000000000000000000000000000000000000000000000000600052603260045260246000fd5b6020026020010181905250600185610a6c9190613683565b945050505b8080610a7c90613869565b91505061088e565b508094505050505090565b6000600954905090565b6000610aa56007611aa4565b6000610ab16007611a96565b9050610abd3382611aba565b610ac78187611c94565b610ad381868686611d08565b80915050949350505050565b60606000610aed6007611a96565b905060008060005b83811015610b96573373ffffffffffffffffffffffffffffffffffffffff16600b6000600184610b259190613683565b815260200190815260200160002060020160009054906101000a900473ffffffffffffffffffffffffffffffffffffffff1673ffffffffffffffffffffffffffffffffffffffff161415610b8357600183610b809190613683565b92505b8080610b8e90613869565b915050610af5565b5060008267ffffffffffffffff811115610bd9577f4e487b7100000000000000000000000000000000000000000000000000000000600052604160045260246000fd5b604051908082528060200260200182016040528015610c1257816020015b610bff612849565b815260200190600190039081610bf75790505b50905060005b84811015610e0e573373ffffffffffffffffffffffffffffffffffffffff16600b6000600184610c489190613683565b815260200190815260200160002060020160009054906101000a900473ffffffffffffffffffffffffffffffffffffffff1673ffffffffffffffffffffffffffffffffffffffff161415610dfb576000600182610ca59190613683565b90506000600b60008381526020019081526020016000209050806040518060a0016040529081600082015481526020016001820160009054906101000a900473ffffffffffffffffffffffffffffffffffffffff1673ffffffffffffffffffffffffffffffffffffffff1673ffffffffffffffffffffffffffffffffffffffff1681526020016002820160009054906101000a900473ffffffffffffffffffffffffffffffffffffffff1673ffffffffffffffffffffffffffffffffffffffff1673ffffffffffffffffffffffffffffffffffffffff168152602001600382015481526020016004820160009054906101000a900460ff161515151581525050848681518110610dde577f4e487b7100000000000000000000000000000000000000000000000000000000600052603260045260246000fd5b6020026020010181905250600185610df69190613683565b945050505b8080610e0690613869565b915050610c18565b508094505050505090565b610e2a610e246119d5565b82611f0c565b610e69576040517f08c379a0000000000000000000000000000000000000000000000000000000008152600401610e6090613505565b60405180910390fd5b610e74838383611fea565b505050565b610e948383836040518060200160405280600081525061147f565b505050565b60606000610ea76007611a96565b905060008060005b83811015610f50573373ffffffffffffffffffffffffffffffffffffffff16600b6000600184610edf9190613683565b815260200190815260200160002060010160009054906101000a900473ffffffffffffffffffffffffffffffffffffffff1673ffffffffffffffffffffffffffffffffffffffff161415610f3d57600183610f3a9190613683565b92505b8080610f4890613869565b915050610eaf565b5060008267ffffffffffffffff811115610f93577f4e487b7100000000000000000000000000000000000000000000000000000000600052604160045260246000fd5b604051908082528060200260200182016040528015610fcc57816020015b610fb9612849565b815260200190600190039081610fb15790505b50905060005b848110156111c8573373ffffffffffffffffffffffffffffffffffffffff16600b60006001846110029190613683565b815260200190815260200160002060010160009054906101000a900473ffffffffffffffffffffffffffffffffffffffff1673ffffffffffffffffffffffffffffffffffffffff1614156111b557600060018261105f9190613683565b90506000600b60008381526020019081526020016000209050806040518060a0016040529081600082015481526020016001820160009054906101000a900473ffffffffffffffffffffffffffffffffffffffff1673ffffffffffffffffffffffffffffffffffffffff1673ffffffffffffffffffffffffffffffffffffffff1681526020016002820160009054906101000a900473ffffffffffffffffffffffffffffffffffffffff1673ffffffffffffffffffffffffffffffffffffffff1673ffffffffffffffffffffffffffffffffffffffff168152602001600382015481526020016004820160009054906101000a900460ff161515151581525050848681518110611198577f4e487b7100000000000000000000000000000000000000000000000000000000600052603260045260246000fd5b60200260200101819052506001856111b09190613683565b945050505b80806111c090613869565b915050610fd2565b508094505050505090565b6000806002600084815260200190815260200160002060009054906101000a900473ffffffffffffffffffffffffffffffffffffffff169050600073ffffffffffffffffffffffffffffffffffffffff168173ffffffffffffffffffffffffffffffffffffffff16141561127c576040517f08c379a0000000000000000000000000000000000000000000000000000000008152600401611273906133e5565b60405180910390fd5b80915050919050565b60008073ffffffffffffffffffffffffffffffffffffffff168273ffffffffffffffffffffffffffffffffffffffff1614156112f6576040517f08c379a00000000000000000000000000000000000000000000000000000000081526004016112ed906133c5565b60405180910390fd5b600360008373ffffffffffffffffffffffffffffffffffffffff1673ffffffffffffffffffffffffffffffffffffffff168152602001908152602001600020549050919050565b60606001805461134c90613806565b80601f016020809104026020016040519081016040528092919081815260200182805461137890613806565b80156113c55780601f1061139a576101008083540402835291602001916113c5565b820191906000526020600020905b8154815290600101906020018083116113a857829003601f168201915b5050505050905090565b6113e16113da6119d5565b8383612251565b5050565b3373ffffffffffffffffffffffffffffffffffffffff16600a60009054906101000a900473ffffffffffffffffffffffffffffffffffffffff1673ffffffffffffffffffffffffffffffffffffffff1614611475576040517f08c379a000000000000000000000000000000000000000000000000000000000815260040161146c90613525565b60405180910390fd5b8060098190555050565b61149061148a6119d5565b83611f0c565b6114cf576040517f08c379a00000000000000000000000000000000000000000000000000000000081526004016114c690613505565b60405180910390fd5b6114db848484846123be565b50505050565b6000600b600083815260200190815260200160002060030154905080341461153e576040517f08c379a000000000000000000000000000000000000000000000000000000000815260040161153590613425565b60405180910390fd5b33600b600084815260200190815260200160002060020160006101000a81548173ffffffffffffffffffffffffffffffffffffffff021916908373ffffffffffffffffffffffffffffffffffffffff1602179055506001600b600084815260200190815260200160002060040160006101000a81548160ff0219169083151502179055506000600b600084815260200190815260200160002060010160006101000a81548173ffffffffffffffffffffffffffffffffffffffff021916908373ffffffffffffffffffffffffffffffffffffffff1602179055506116226008611aa4565b61162d303384611fea565b600a60009054906101000a900473ffffffffffffffffffffffffffffffffffffffff1673ffffffffffffffffffffffffffffffffffffffff166108fc6009549081150290604051600060405180830381858888f19350505050158015611697573d6000803e3d6000fd5b50600b600083815260200190815260200160002060010160009054906101000a900473ffffffffffffffffffffffffffffffffffffffff1673ffffffffffffffffffffffffffffffffffffffff166108fc349081150290604051600060405180830381858888f19350505050158015611714573d6000803e3d6000fd5b505050565b606061172482611969565b611763576040517f08c379a000000000000000000000000000000000000000000000000000000000815260040161175a90613465565b60405180910390fd5b600060066000848152602001908152602001600020805461178390613806565b80601f01602080910402602001604051908101604052809291908181526020018280546117af90613806565b80156117fc5780601f106117d1576101008083540402835291602001916117fc565b820191906000526020600020905b8154815290600101906020018083116117df57829003601f168201915b50505050509050600061180d61241a565b9050600081511415611823578192505050611866565b6000825111156118585780826040516020016118409291906131b6565b60405160208183030381529060405292505050611866565b61186184612431565b925050505b919050565b6000600560008473ffffffffffffffffffffffffffffffffffffffff1673ffffffffffffffffffffffffffffffffffffffff16815260200190815260200160002060008373ffffffffffffffffffffffffffffffffffffffff1673ffffffffffffffffffffffffffffffffffffffff16815260200190815260200160002060009054906101000a900460ff16905092915050565b60007f01ffc9a7000000000000000000000000000000000000000000000000000000007bffffffffffffffffffffffffffffffffffffffffffffffffffffffff1916827bffffffffffffffffffffffffffffffffffffffffffffffffffffffff1916149050919050565b60008073ffffffffffffffffffffffffffffffffffffffff166002600084815260200190815260200160002060009054906101000a900473ffffffffffffffffffffffffffffffffffffffff1673ffffffffffffffffffffffffffffffffffffffff1614159050919050565b600033905090565b816004600083815260200190815260200160002060006101000a81548173ffffffffffffffffffffffffffffffffffffffff021916908373ffffffffffffffffffffffffffffffffffffffff160217905550808273ffffffffffffffffffffffffffffffffffffffff16611a50836111d3565b73ffffffffffffffffffffffffffffffffffffffff167f8c5be1e5ebec7d5bd14f71427d1e84f3dd0314c0f7b2291e5b200ac8c7c3b92560405160405180910390a45050565b600081600001549050919050565b6001816000016000828254019250508190555050565b600073ffffffffffffffffffffffffffffffffffffffff168273ffffffffffffffffffffffffffffffffffffffff161415611b2a576040517f08c379a0000000000000000000000000000000000000000000000000000000008152600401611b2190613445565b60405180910390fd5b611b3381611969565b15611b73576040517f08c379a0000000000000000000000000000000000000000000000000000000008152600401611b6a90613325565b60405180910390fd5b611b7f600083836124d8565b6001600360008473ffffffffffffffffffffffffffffffffffffffff1673ffffffffffffffffffffffffffffffffffffffff1681526020019081526020016000206000828254611bcf9190613683565b92505081905550816002600083815260200190815260200160002060006101000a81548173ffffffffffffffffffffffffffffffffffffffff021916908373ffffffffffffffffffffffffffffffffffffffff160217905550808273ffffffffffffffffffffffffffffffffffffffff16600073ffffffffffffffffffffffffffffffffffffffff167fddf252ad1be2c89b69c2b068fc378daa952ba7f163c4a11628f55a4df523b3ef60405160405180910390a4611c90600083836124dd565b5050565b611c9d82611969565b611cdc576040517f08c379a0000000000000000000000000000000000000000000000000000000008152600401611cd390613405565b60405180910390fd5b80600660008481526020019081526020016000209080519060200190611d039291906128a6565b505050565b60008311611d4b576040517f08c379a0000000000000000000000000000000000000000000000000000000008152600401611d4290613545565b60405180910390fd5b6009543414611d8f576040517f08c379a0000000000000000000000000000000000000000000000000000000008152600401611d86906134e5565b60405180910390fd5b6040518060a001604052808581526020013373ffffffffffffffffffffffffffffffffffffffff1681526020013373ffffffffffffffffffffffffffffffffffffffff16815260200184815260200160001515815250600b60008681526020019081526020016000206000820151816000015560208201518160010160006101000a81548173ffffffffffffffffffffffffffffffffffffffff021916908373ffffffffffffffffffffffffffffffffffffffff16021790555060408201518160020160006101000a81548173ffffffffffffffffffffffffffffffffffffffff021916908373ffffffffffffffffffffffffffffffffffffffff1602179055506060820151816003015560808201518160040160006101000a81548160ff021916908315150217905550905050611ec782826113cf565b837fb640004f1d14576d0c209e240cad0410e0d8c0c33a09375861fbadae2588a98d3333866000604051611efe94939291906131f5565b60405180910390a250505050565b6000611f1782611969565b611f56576040517f08c379a0000000000000000000000000000000000000000000000000000000008152600401611f4d90613385565b60405180910390fd5b6000611f61836111d3565b90508073ffffffffffffffffffffffffffffffffffffffff168473ffffffffffffffffffffffffffffffffffffffff161480611fd057508373ffffffffffffffffffffffffffffffffffffffff16611fb88461063d565b73ffffffffffffffffffffffffffffffffffffffff16145b80611fe15750611fe0818561186b565b5b91505092915050565b8273ffffffffffffffffffffffffffffffffffffffff1661200a826111d3565b73ffffffffffffffffffffffffffffffffffffffff1614612060576040517f08c379a000000000000000000000000000000000000000000000000000000000815260040161205790613305565b60405180910390fd5b600073ffffffffffffffffffffffffffffffffffffffff168273ffffffffffffffffffffffffffffffffffffffff1614156120d0576040517f08c379a00000000000000000000000000000000000000000000000000000000081526004016120c790613345565b60405180910390fd5b6120db8383836124d8565b6120e66000826119dd565b6001600360008573ffffffffffffffffffffffffffffffffffffffff1673ffffffffffffffffffffffffffffffffffffffff1681526020019081526020016000206000828254612136919061370a565b925050819055506001600360008473ffffffffffffffffffffffffffffffffffffffff1673ffffffffffffffffffffffffffffffffffffffff168152602001908152602001600020600082825461218d9190613683565b92505081905550816002600083815260200190815260200160002060006101000a81548173ffffffffffffffffffffffffffffffffffffffff021916908373ffffffffffffffffffffffffffffffffffffffff160217905550808273ffffffffffffffffffffffffffffffffffffffff168473ffffffffffffffffffffffffffffffffffffffff167fddf252ad1be2c89b69c2b068fc378daa952ba7f163c4a11628f55a4df523b3ef60405160405180910390a461224c8383836124dd565b505050565b8173ffffffffffffffffffffffffffffffffffffffff168373ffffffffffffffffffffffffffffffffffffffff1614156122c0576040517f08c379a00000000000000000000000000000000000000000000000000000000081526004016122b790613365565b60405180910390fd5b80600560008573ffffffffffffffffffffffffffffffffffffffff1673ffffffffffffffffffffffffffffffffffffffff16815260200190815260200160002060008473ffffffffffffffffffffffffffffffffffffffff1673ffffffffffffffffffffffffffffffffffffffff16815260200190815260200160002060006101000a81548160ff0219169083151502179055508173ffffffffffffffffffffffffffffffffffffffff168373ffffffffffffffffffffffffffffffffffffffff167f17307eab39ab6107e8899845ad3d59bd9653f200f220920489ca2b5937696c31836040516123b191906132a8565b60405180910390a3505050565b6123c9848484611fea565b6123d5848484846124e2565b612414576040517f08c379a000000000000000000000000000000000000000000000000000000000815260040161240b906132e5565b60405180910390fd5b50505050565b606060405180602001604052806000815250905090565b606061243c82611969565b61247b576040517f08c379a0000000000000000000000000000000000000000000000000000000008152600401612472906134a5565b60405180910390fd5b600061248561241a565b905060008151116124a557604051806020016040528060008152506124d0565b806124af84612679565b6040516020016124c09291906131b6565b6040516020818303038152906040525b915050919050565b505050565b505050565b60006125038473ffffffffffffffffffffffffffffffffffffffff16612826565b1561266c578373ffffffffffffffffffffffffffffffffffffffff1663150b7a0261252c6119d5565b8786866040518563ffffffff1660e01b815260040161254e949392919061323a565b602060405180830381600087803b15801561256857600080fd5b505af192505050801561259957506040513d601f19601f820116820180604052508101906125969190612c52565b60015b61261c573d80600081146125c9576040519150601f19603f3d011682016040523d82523d6000602084013e6125ce565b606091505b50600081511415612614576040517f08c379a000000000000000000000000000000000000000000000000000000000815260040161260b906132e5565b60405180910390fd5b805181602001fd5b63150b7a0260e01b7bffffffffffffffffffffffffffffffffffffffffffffffffffffffff1916817bffffffffffffffffffffffffffffffffffffffffffffffffffffffff191614915050612671565b600190505b949350505050565b606060008214156126c1576040518060400160405280600181526020017f30000000000000000000000000000000000000000000000000000000000000008152509050612821565b600082905060005b600082146126f35780806126dc90613869565b915050600a826126ec91906136d9565b91506126c9565b60008167ffffffffffffffff811115612735577f4e487b7100000000000000000000000000000000000000000000000000000000600052604160045260246000fd5b6040519080825280601f01601f1916602001820160405280156127675781602001600182028036833780820191505090505b5090505b6000851461281a57600182612780919061370a565b9150600a8561278f91906138b2565b603061279b9190613683565b60f81b8183815181106127d7577f4e487b7100000000000000000000000000000000000000000000000000000000600052603260045260246000fd5b60200101907effffffffffffffffffffffffffffffffffffffffffffffffffffffffffffff1916908160001a905350600a8561281391906136d9565b945061276b565b8093505050505b919050565b6000808273ffffffffffffffffffffffffffffffffffffffff163b119050919050565b6040518060a0016040528060008152602001600073ffffffffffffffffffffffffffffffffffffffff168152602001600073ffffffffffffffffffffffffffffffffffffffff168152602001600081526020016000151581525090565b8280546128b290613806565b90600052602060002090601f0160209004810192826128d4576000855561291b565b82601f106128ed57805160ff191683800117855561291b565b8280016001018555821561291b579182015b8281111561291a5782518255916020019190600101906128ff565b5b509050612928919061292c565b5090565b5b8082111561294557600081600090555060010161292d565b5090565b600061295c612957846135a5565b613580565b90508281526020810184848401111561297457600080fd5b61297f8482856137c4565b509392505050565b600061299a612995846135d6565b613580565b9050828152602081018484840111156129b257600080fd5b6129bd8482856137c4565b509392505050565b6000813590506129d481613f44565b92915050565b6000813590506129e981613f5b565b92915050565b6000813590506129fe81613f72565b92915050565b600081519050612a1381613f72565b92915050565b600082601f830112612a2a57600080fd5b8135612a3a848260208601612949565b91505092915050565b600082601f830112612a5457600080fd5b8135612a64848260208601612987565b91505092915050565b600081359050612a7c81613f89565b92915050565b600060208284031215612a9457600080fd5b6000612aa2848285016129c5565b91505092915050565b60008060408385031215612abe57600080fd5b6000612acc858286016129c5565b9250506020612add858286016129c5565b9150509250929050565b600080600060608486031215612afc57600080fd5b6000612b0a868287016129c5565b9350506020612b1b868287016129c5565b9250506040612b2c86828701612a6d565b9150509250925092565b60008060008060808587031215612b4c57600080fd5b6000612b5a878288016129c5565b9450506020612b6b878288016129c5565b9350506040612b7c87828801612a6d565b925050606085013567ffffffffffffffff811115612b9957600080fd5b612ba587828801612a19565b91505092959194509250565b60008060408385031215612bc457600080fd5b6000612bd2858286016129c5565b9250506020612be3858286016129da565b9150509250929050565b60008060408385031215612c0057600080fd5b6000612c0e858286016129c5565b9250506020612c1f85828601612a6d565b9150509250929050565b600060208284031215612c3b57600080fd5b6000612c49848285016129ef565b91505092915050565b600060208284031215612c6457600080fd5b6000612c7284828501612a04565b91505092915050565b60008060008060808587031215612c9157600080fd5b600085013567ffffffffffffffff811115612cab57600080fd5b612cb787828801612a43565b9450506020612cc887828801612a6d565b9350506040612cd9878288016129c5565b9250506060612cea878288016129da565b91505092959194509250565b600060208284031215612d0857600080fd5b6000612d1684828501612a6d565b91505092915050565b6000612d2b8383613130565b60a08301905092915050565b612d4081613750565b82525050565b612d4f8161373e565b82525050565b6000612d6082613617565b612d6a8185613645565b9350612d7583613607565b8060005b83811015612da6578151612d8d8882612d1f565b9750612d9883613638565b925050600181019050612d79565b5085935050505092915050565b612dbc81613762565b82525050565b612dcb81613762565b82525050565b6000612ddc82613622565b612de68185613656565b9350612df68185602086016137d3565b612dff8161399f565b840191505092915050565b6000612e158261362d565b612e1f8185613667565b9350612e2f8185602086016137d3565b612e388161399f565b840191505092915050565b6000612e4e8261362d565b612e588185613678565b9350612e688185602086016137d3565b80840191505092915050565b6000612e81603283613667565b9150612e8c826139b0565b604082019050919050565b6000612ea4602583613667565b9150612eaf826139ff565b604082019050919050565b6000612ec7601c83613667565b9150612ed282613a4e565b602082019050919050565b6000612eea602483613667565b9150612ef582613a77565b604082019050919050565b6000612f0d601983613667565b9150612f1882613ac6565b602082019050919050565b6000612f30602c83613667565b9150612f3b82613aef565b604082019050919050565b6000612f53603883613667565b9150612f5e82613b3e565b604082019050919050565b6000612f76602a83613667565b9150612f8182613b8d565b604082019050919050565b6000612f99602983613667565b9150612fa482613bdc565b604082019050919050565b6000612fbc602e83613667565b9150612fc782613c2b565b604082019050919050565b6000612fdf604083613667565b9150612fea82613c7a565b604082019050919050565b6000613002602083613667565b915061300d82613cc9565b602082019050919050565b6000613025603183613667565b915061303082613cf2565b604082019050919050565b6000613048602c83613667565b915061305382613d41565b604082019050919050565b600061306b602f83613667565b915061307682613d90565b604082019050919050565b600061308e602183613667565b915061309982613ddf565b604082019050919050565b60006130b1602483613667565b91506130bc82613e2e565b604082019050919050565b60006130d4603183613667565b91506130df82613e7d565b604082019050919050565b60006130f7603083613667565b915061310282613ecc565b604082019050919050565b600061311a601c83613667565b915061312582613f1b565b602082019050919050565b60a0820160008201516131466000850182613198565b5060208201516131596020850182612d37565b50604082015161316c6040850182612d37565b50606082015161317f6060850182613198565b5060808201516131926080850182612db3565b50505050565b6131a1816137ba565b82525050565b6131b0816137ba565b82525050565b60006131c28285612e43565b91506131ce8284612e43565b91508190509392505050565b60006020820190506131ef6000830184612d46565b92915050565b600060808201905061320a6000830187612d46565b6132176020830186612d46565b61322460408301856131a7565b6132316060830184612dc2565b95945050505050565b600060808201905061324f6000830187612d46565b61325c6020830186612d46565b61326960408301856131a7565b818103606083015261327b8184612dd1565b905095945050505050565b600060208201905081810360008301526132a08184612d55565b905092915050565b60006020820190506132bd6000830184612dc2565b92915050565b600060208201905081810360008301526132dd8184612e0a565b905092915050565b600060208201905081810360008301526132fe81612e74565b9050919050565b6000602082019050818103600083015261331e81612e97565b9050919050565b6000602082019050818103600083015261333e81612eba565b9050919050565b6000602082019050818103600083015261335e81612edd565b9050919050565b6000602082019050818103600083015261337e81612f00565b9050919050565b6000602082019050818103600083015261339e81612f23565b9050919050565b600060208201905081810360008301526133be81612f46565b9050919050565b600060208201905081810360008301526133de81612f69565b9050919050565b600060208201905081810360008301526133fe81612f8c565b9050919050565b6000602082019050818103600083015261341e81612faf565b9050919050565b6000602082019050818103600083015261343e81612fd2565b9050919050565b6000602082019050818103600083015261345e81612ff5565b9050919050565b6000602082019050818103600083015261347e81613018565b9050919050565b6000602082019050818103600083015261349e8161303b565b9050919050565b600060208201905081810360008301526134be8161305e565b9050919050565b600060208201905081810360008301526134de81613081565b9050919050565b600060208201905081810360008301526134fe816130a4565b9050919050565b6000602082019050818103600083015261351e816130c7565b9050919050565b6000602082019050818103600083015261353e816130ea565b9050919050565b6000602082019050818103600083015261355e8161310d565b9050919050565b600060208201905061357a60008301846131a7565b92915050565b600061358a61359b565b90506135968282613838565b919050565b6000604051905090565b600067ffffffffffffffff8211156135c0576135bf613970565b5b6135c98261399f565b9050602081019050919050565b600067ffffffffffffffff8211156135f1576135f0613970565b5b6135fa8261399f565b9050602081019050919050565b6000819050602082019050919050565b600081519050919050565b600081519050919050565b600081519050919050565b6000602082019050919050565b600082825260208201905092915050565b600082825260208201905092915050565b600082825260208201905092915050565b600081905092915050565b600061368e826137ba565b9150613699836137ba565b9250827fffffffffffffffffffffffffffffffffffffffffffffffffffffffffffffffff038211156136ce576136cd6138e3565b5b828201905092915050565b60006136e4826137ba565b91506136ef836137ba565b9250826136ff576136fe613912565b5b828204905092915050565b6000613715826137ba565b9150613720836137ba565b925082821015613733576137326138e3565b5b828203905092915050565b60006137498261379a565b9050919050565b600061375b8261379a565b9050919050565b60008115159050919050565b60007fffffffff0000000000000000000000000000000000000000000000000000000082169050919050565b600073ffffffffffffffffffffffffffffffffffffffff82169050919050565b6000819050919050565b82818337600083830152505050565b60005b838110156137f15780820151818401526020810190506137d6565b83811115613800576000848401525b50505050565b6000600282049050600182168061381e57607f821691505b6020821081141561383257613831613941565b5b50919050565b6138418261399f565b810181811067ffffffffffffffff821117156138605761385f613970565b5b80604052505050565b6000613874826137ba565b91507fffffffffffffffffffffffffffffffffffffffffffffffffffffffffffffffff8214156138a7576138a66138e3565b5b600182019050919050565b60006138bd826137ba565b91506138c8836137ba565b9250826138d8576138d7613912565b5b828206905092915050565b7f4e487b7100000000000000000000000000000000000000000000000000000000600052601160045260246000fd5b7f4e487b7100000000000000000000000000000000000000000000000000000000600052601260045260246000fd5b7f4e487b7100000000000000000000000000000000000000000000000000000000600052602260045260246000fd5b7f4e487b7100000000000000000000000000000000000000000000000000000000600052604160045260246000fd5b6000601f19601f8301169050919050565b7f4552433732313a207472616e7366657220746f206e6f6e20455243373231526560008201527f63656976657220696d706c656d656e7465720000000000000000000000000000602082015250565b7f4552433732313a207472616e736665722066726f6d20696e636f72726563742060008201527f6f776e6572000000000000000000000000000000000000000000000000000000602082015250565b7f4552433732313a20746f6b656e20616c7265616479206d696e74656400000000600082015250565b7f4552433732313a207472616e7366657220746f20746865207a65726f2061646460008201527f7265737300000000000000000000000000000000000000000000000000000000602082015250565b7f4552433732313a20617070726f766520746f2063616c6c657200000000000000600082015250565b7f4552433732313a206f70657261746f7220717565727920666f72206e6f6e657860008201527f697374656e7420746f6b656e0000000000000000000000000000000000000000602082015250565b7f4552433732313a20617070726f76652063616c6c6572206973206e6f74206f7760008201527f6e6572206e6f7220617070726f76656420666f7220616c6c0000000000000000602082015250565b7f4552433732313a2062616c616e636520717565727920666f7220746865207a6560008201527f726f206164647265737300000000000000000000000000000000000000000000602082015250565b7f4552433732313a206f776e657220717565727920666f72206e6f6e657869737460008201527f656e7420746f6b656e0000000000000000000000000000000000000000000000602082015250565b7f45524337323155524953746f726167653a2055524920736574206f66206e6f6e60008201527f6578697374656e7420746f6b656e000000000000000000000000000000000000602082015250565b7f506c65617365207375626d6974207468652061736b696e67207072696365206960008201527f6e206f7264657220746f20636f6d706c65746520746865207075726368617365602082015250565b7f4552433732313a206d696e7420746f20746865207a65726f2061646472657373600082015250565b7f45524337323155524953746f726167653a2055524920717565727920666f722060008201527f6e6f6e6578697374656e7420746f6b656e000000000000000000000000000000602082015250565b7f4552433732313a20617070726f76656420717565727920666f72206e6f6e657860008201527f697374656e7420746f6b656e0000000000000000000000000000000000000000602082015250565b7f4552433732314d657461646174613a2055524920717565727920666f72206e6f60008201527f6e6578697374656e7420746f6b656e0000000000000000000000000000000000602082015250565b7f4552433732313a20617070726f76616c20746f2063757272656e74206f776e6560008201527f7200000000000000000000000000000000000000000000000000000000000000602082015250565b7f5072696365206d75737420626520657175616c20746f206c697374696e67207060008201527f7269636500000000000000000000000000000000000000000000000000000000602082015250565b7f4552433732313a207472616e736665722063616c6c6572206973206e6f74206f60008201527f776e6572206e6f7220617070726f766564000000000000000000000000000000602082015250565b7f4f6e6c79206d61726b6574706c616365206f776e65722063616e20757064617460008201527f65206c697374696e672070726963652e00000000000000000000000000000000602082015250565b7f5072696365206d757374206265206174206c6561737420312077656900000000600082015250565b613f4d8161373e565b8114613f5857600080fd5b50565b613f6481613762565b8114613f6f57600080fd5b50565b613f7b8161376e565b8114613f8657600080fd5b50565b613f92816137ba565b8114613f9d57600080fd5b5056fea26469706673582212206e4372aec63aa41907a81c8693a256cf89e08a978aebff0ccb084a3b3212fce264736f6c63430008040033",
  "linkReferences": {},
  "deployedLinkReferences": {}
}